{
  "address": "0x9fE46736679d2D9a65F0992F2272dE9f3c7fa6e0",
  "abi": [
    {
      "inputs": [],
      "stateMutability": "nonpayable",
      "type": "constructor"
    },
    {
      "inputs": [],
      "name": "AccessControlBadConfirmation",
      "type": "error"
    },
    {
      "inputs": [
        {
          "internalType": "address",
          "name": "account",
          "type": "address"
        },
        {
          "internalType": "bytes32",
          "name": "neededRole",
          "type": "bytes32"
        }
      ],
      "name": "AccessControlUnauthorizedAccount",
      "type": "error"
    },
    {
      "anonymous": false,
      "inputs": [
        {
          "indexed": true,
          "internalType": "uint256",
          "name": "requestId",
          "type": "uint256"
        },
        {
          "indexed": true,
          "internalType": "address",
          "name": "doctor",
          "type": "address"
        },
        {
          "indexed": true,
          "internalType": "address",
          "name": "patient",
          "type": "address"
        }
      ],
      "name": "AccessApproved",
      "type": "event"
    },
    {
      "anonymous": false,
      "inputs": [
        {
          "indexed": true,
          "internalType": "uint256",
          "name": "requestId",
          "type": "uint256"
        },
        {
          "indexed": false,
          "internalType": "uint256",
          "name": "newExpiry",
          "type": "uint256"
        }
      ],
      "name": "AccessExtended",
      "type": "event"
    },
    {
      "anonymous": false,
      "inputs": [
        {
          "indexed": true,
          "internalType": "uint256",
          "name": "requestId",
          "type": "uint256"
        },
        {
          "indexed": true,
          "internalType": "address",
          "name": "doctor",
          "type": "address"
        },
        {
          "indexed": true,
          "internalType": "address",
          "name": "patient",
          "type": "address"
        }
      ],
      "name": "AccessRequested",
      "type": "event"
    },
    {
      "anonymous": false,
      "inputs": [
        {
          "indexed": true,
          "internalType": "address",
          "name": "doctor",
          "type": "address"
        },
        {
          "indexed": true,
          "internalType": "address",
          "name": "patient",
          "type": "address"
        }
      ],
      "name": "AccessRevoked",
      "type": "event"
    },
    {
      "anonymous": false,
      "inputs": [
        {
          "indexed": true,
          "internalType": "uint256",
          "name": "requestId",
          "type": "uint256"
        }
      ],
      "name": "AccessRevokedEarly",
      "type": "event"
    },
    {
      "anonymous": false,
      "inputs": [
        {
          "indexed": true,
          "internalType": "address",
          "name": "patient",
          "type": "address"
        },
        {
          "indexed": false,
          "internalType": "string",
          "name": "cid",
          "type": "string"
        }
      ],
      "name": "DataStored",
      "type": "event"
    },
    {
      "anonymous": false,
      "inputs": [
        {
          "indexed": true,
          "internalType": "address",
          "name": "doctor",
          "type": "address"
        },
        {
          "indexed": false,
          "internalType": "string",
          "name": "licenseHash",
          "type": "string"
        },
        {
          "indexed": false,
          "internalType": "uint256",
          "name": "expiry",
          "type": "uint256"
        }
      ],
      "name": "DoctorRegistered",
      "type": "event"
    },
    {
      "anonymous": false,
      "inputs": [
        {
          "indexed": true,
          "internalType": "address",
          "name": "doctor",
          "type": "address"
        }
      ],
      "name": "DoctorRevoked",
      "type": "event"
    },
    {
      "anonymous": false,
      "inputs": [
        {
          "indexed": true,
          "internalType": "address",
          "name": "doctor",
          "type": "address"
        }
      ],
      "name": "DoctorUpdated",
      "type": "event"
    },
    {
      "anonymous": false,
      "inputs": [
        {
          "indexed": true,
          "internalType": "address",
          "name": "account",
          "type": "address"
        }
      ],
      "name": "PatientRegistered",
      "type": "event"
    },
    {
      "anonymous": false,
      "inputs": [
        {
          "indexed": false,
          "internalType": "bool",
          "name": "isPaused",
          "type": "bool"
        }
      ],
      "name": "PauseToggled",
      "type": "event"
    },
    {
      "anonymous": false,
      "inputs": [
        {
          "indexed": true,
          "internalType": "address",
          "name": "pharmacist",
          "type": "address"
        },
        {
          "indexed": false,
          "internalType": "string",
          "name": "pharmacyId",
          "type": "string"
        }
      ],
      "name": "PharmacistRegistered",
      "type": "event"
    },
    {
      "anonymous": false,
      "inputs": [
        {
          "indexed": true,
          "internalType": "address",
          "name": "pharmacist",
          "type": "address"
        }
      ],
      "name": "PharmacistRevoked",
      "type": "event"
    },
    {
      "anonymous": false,
      "inputs": [
        {
          "indexed": true,
          "internalType": "bytes32",
          "name": "role",
          "type": "bytes32"
        },
        {
          "indexed": true,
          "internalType": "bytes32",
          "name": "previousAdminRole",
          "type": "bytes32"
        },
        {
          "indexed": true,
          "internalType": "bytes32",
          "name": "newAdminRole",
          "type": "bytes32"
        }
      ],
      "name": "RoleAdminChanged",
      "type": "event"
    },
    {
      "anonymous": false,
      "inputs": [
        {
          "indexed": true,
          "internalType": "bytes32",
          "name": "role",
          "type": "bytes32"
        },
        {
          "indexed": true,
          "internalType": "address",
          "name": "account",
          "type": "address"
        },
        {
          "indexed": true,
          "internalType": "address",
          "name": "sender",
          "type": "address"
        }
      ],
      "name": "RoleGranted",
      "type": "event"
    },
    {
      "anonymous": false,
      "inputs": [
        {
          "indexed": true,
          "internalType": "bytes32",
          "name": "role",
          "type": "bytes32"
        },
        {
          "indexed": true,
          "internalType": "address",
          "name": "account",
          "type": "address"
        },
        {
          "indexed": true,
          "internalType": "address",
          "name": "sender",
          "type": "address"
        }
      ],
      "name": "RoleRevoked",
      "type": "event"
    },
    {
      "anonymous": false,
      "inputs": [
        {
          "indexed": true,
          "internalType": "bytes32",
          "name": "role",
          "type": "bytes32"
        },
        {
          "indexed": true,
          "internalType": "address",
          "name": "account",
          "type": "address"
        }
      ],
      "name": "RoleRevokedWithSender",
      "type": "event"
    },
    {
      "anonymous": false,
      "inputs": [
        {
          "indexed": true,
          "internalType": "uint256",
          "name": "requestId",
          "type": "uint256"
        },
        {
          "indexed": true,
          "internalType": "address",
          "name": "doctor",
          "type": "address"
        },
        {
          "indexed": true,
          "internalType": "address",
          "name": "patient",
          "type": "address"
        },
        {
          "indexed": false,
          "internalType": "uint256",
          "name": "expiryTime",
          "type": "uint256"
        },
        {
          "indexed": false,
          "internalType": "string[]",
          "name": "dataFields",
          "type": "string[]"
        }
      ],
      "name": "TemporaryAccessGranted",
      "type": "event"
    },
    {
      "inputs": [],
      "name": "ADMIN_ROLE",
      "outputs": [
        {
          "internalType": "bytes32",
          "name": "",
          "type": "bytes32"
        }
      ],
      "stateMutability": "view",
      "type": "function"
    },
    {
      "inputs": [],
      "name": "DEFAULT_ADMIN_ROLE",
      "outputs": [
        {
          "internalType": "bytes32",
          "name": "",
          "type": "bytes32"
        }
      ],
      "stateMutability": "view",
      "type": "function"
    },
    {
      "inputs": [],
      "name": "DOCTOR_ROLE",
      "outputs": [
        {
          "internalType": "bytes32",
          "name": "",
          "type": "bytes32"
        }
      ],
      "stateMutability": "view",
      "type": "function"
    },
    {
      "inputs": [],
      "name": "PATIENT_ROLE",
      "outputs": [
        {
          "internalType": "bytes32",
          "name": "",
          "type": "bytes32"
        }
      ],
      "stateMutability": "view",
      "type": "function"
    },
    {
      "inputs": [],
      "name": "PHARMACIST_ROLE",
      "outputs": [
        {
          "internalType": "bytes32",
          "name": "",
          "type": "bytes32"
        }
      ],
      "stateMutability": "view",
      "type": "function"
    },
    {
      "inputs": [
        {
          "internalType": "uint256",
          "name": "requestId",
          "type": "uint256"
        },
        {
          "internalType": "bytes",
          "name": "encryptedKey",
          "type": "bytes"
        }
      ],
      "name": "approveAccess",
      "outputs": [],
      "stateMutability": "nonpayable",
      "type": "function"
    },
    {
      "inputs": [],
      "name": "emergencyPause",
      "outputs": [
        {
          "internalType": "bool",
          "name": "",
          "type": "bool"
        }
      ],
      "stateMutability": "view",
      "type": "function"
    },
    {
      "inputs": [
        {
          "internalType": "uint256",
          "name": "requestId",
          "type": "uint256"
        },
        {
          "internalType": "uint256",
          "name": "additionalDuration",
          "type": "uint256"
        }
      ],
      "name": "extendAccess",
      "outputs": [],
      "stateMutability": "nonpayable",
      "type": "function"
    },
    {
      "inputs": [
        {
          "internalType": "address",
          "name": "patient",
          "type": "address"
        }
      ],
      "name": "getAccessRequests",
      "outputs": [
        {
          "components": [
            {
              "internalType": "uint256",
              "name": "id",
              "type": "uint256"
            },
            {
              "internalType": "address",
              "name": "doctor",
              "type": "address"
            },
            {
              "internalType": "address",
              "name": "patient",
              "type": "address"
            },
            {
              "internalType": "string",
              "name": "doctorName",
              "type": "string"
            },
            {
              "internalType": "string",
              "name": "hospital",
              "type": "string"
            },
            {
              "internalType": "uint256",
              "name": "timestamp",
              "type": "uint256"
            },
            {
              "internalType": "bool",
              "name": "fulfilled",
              "type": "bool"
            }
          ],
          "internalType": "struct IMedicalAccess.AccessRequest[]",
          "name": "",
          "type": "tuple[]"
        }
      ],
      "stateMutability": "view",
      "type": "function"
    },
    {
      "inputs": [
        {
          "internalType": "address",
          "name": "patient",
          "type": "address"
        }
      ],
      "name": "getActivePermissions",
      "outputs": [
        {
          "components": [
            {
              "internalType": "uint256",
              "name": "requestId",
              "type": "uint256"
            },
            {
              "internalType": "address",
              "name": "doctor",
              "type": "address"
            },
            {
              "internalType": "address",
              "name": "patient",
              "type": "address"
            },
            {
              "internalType": "uint256",
              "name": "expiryTime",
              "type": "uint256"
            },
            {
              "internalType": "string[]",
              "name": "dataFields",
              "type": "string[]"
            },
            {
              "internalType": "bool",
              "name": "isActive",
              "type": "bool"
            }
          ],
          "internalType": "struct IMedicalAccess.AccessPermission[]",
          "name": "",
          "type": "tuple[]"
        }
      ],
      "stateMutability": "view",
      "type": "function"
    },
    {
      "inputs": [],
      "name": "getAllDoctors",
      "outputs": [
        {
          "internalType": "address[]",
          "name": "",
          "type": "address[]"
        }
      ],
      "stateMutability": "view",
      "type": "function"
    },
    {
      "inputs": [],
      "name": "getAllPharmacists",
      "outputs": [
        {
          "internalType": "address[]",
          "name": "",
          "type": "address[]"
        }
      ],
      "stateMutability": "view",
      "type": "function"
    },
    {
      "inputs": [
        {
          "internalType": "address",
          "name": "doctorAddress",
          "type": "address"
        }
      ],
      "name": "getDoctor",
      "outputs": [
        {
          "components": [
            {
              "internalType": "string",
              "name": "licenseHash",
              "type": "string"
            },
            {
              "internalType": "uint256",
              "name": "expiryDate",
              "type": "uint256"
            },
            {
              "internalType": "string",
              "name": "name",
              "type": "string"
            },
            {
              "internalType": "string",
              "name": "specialization",
              "type": "string"
            },
            {
              "internalType": "bool",
              "name": "isActive",
              "type": "bool"
            }
          ],
          "internalType": "struct IMedicalAccess.DoctorProfile",
          "name": "",
          "type": "tuple"
        }
      ],
      "stateMutability": "view",
      "type": "function"
    },
    {
      "inputs": [],
      "name": "getDoctorCount",
      "outputs": [
        {
          "internalType": "uint256",
          "name": "",
          "type": "uint256"
        }
      ],
      "stateMutability": "view",
      "type": "function"
    },
    {
      "inputs": [
        {
          "internalType": "address",
          "name": "patient",
          "type": "address"
        }
      ],
      "name": "getPatientCID",
      "outputs": [
        {
          "internalType": "string",
          "name": "",
          "type": "string"
        }
      ],
      "stateMutability": "view",
      "type": "function"
    },
    {
      "inputs": [
        {
          "internalType": "address",
          "name": "pharmacistAddress",
          "type": "address"
        }
      ],
      "name": "getPharmacist",
      "outputs": [
        {
          "components": [
            {
              "internalType": "string",
              "name": "pharmacyId",
              "type": "string"
            },
            {
              "internalType": "string",
              "name": "pharmacyName",
              "type": "string"
            },
            {
              "internalType": "bool",
              "name": "isVerified",
              "type": "bool"
            }
          ],
          "internalType": "struct IMedicalAccess.PharmacistProfile",
          "name": "",
          "type": "tuple"
        }
      ],
      "stateMutability": "view",
      "type": "function"
    },
    {
      "inputs": [],
      "name": "getPharmacistCount",
      "outputs": [
        {
          "internalType": "uint256",
          "name": "",
          "type": "uint256"
        }
      ],
      "stateMutability": "view",
      "type": "function"
    },
    {
      "inputs": [
        {
          "internalType": "bytes32",
          "name": "role",
          "type": "bytes32"
        }
      ],
      "name": "getRoleAdmin",
      "outputs": [
        {
          "internalType": "bytes32",
          "name": "",
          "type": "bytes32"
        }
      ],
      "stateMutability": "view",
      "type": "function"
    },
    {
      "inputs": [
        {
          "internalType": "bytes32",
          "name": "role",
          "type": "bytes32"
        },
        {
          "internalType": "address",
          "name": "account",
          "type": "address"
        }
      ],
      "name": "grantRole",
      "outputs": [],
      "stateMutability": "nonpayable",
      "type": "function"
    },
    {
      "inputs": [
        {
          "internalType": "address",
          "name": "doctor",
          "type": "address"
        },
        {
          "internalType": "string[]",
          "name": "dataFields",
          "type": "string[]"
        },
        {
          "internalType": "uint256",
          "name": "duration",
          "type": "uint256"
        }
      ],
      "name": "grantTemporaryAccess",
      "outputs": [],
      "stateMutability": "nonpayable",
      "type": "function"
    },
    {
      "inputs": [
        {
          "internalType": "bytes32",
          "name": "role",
          "type": "bytes32"
        },
        {
          "internalType": "address",
          "name": "account",
          "type": "address"
        }
      ],
      "name": "hasRole",
      "outputs": [
        {
          "internalType": "bool",
          "name": "",
          "type": "bool"
        }
      ],
      "stateMutability": "view",
      "type": "function"
    },
    {
      "inputs": [
        {
          "internalType": "address",
          "name": "doctorAddress",
          "type": "address"
        }
      ],
      "name": "isActive",
      "outputs": [
        {
          "internalType": "bool",
          "name": "",
          "type": "bool"
        }
      ],
      "stateMutability": "view",
      "type": "function"
    },
    {
      "inputs": [
        {
          "internalType": "address",
          "name": "account",
          "type": "address"
        }
      ],
      "name": "isVerifiedPharmacist",
      "outputs": [
        {
          "internalType": "bool",
          "name": "",
          "type": "bool"
        }
      ],
      "stateMutability": "view",
      "type": "function"
    },
    {
      "inputs": [
        {
          "internalType": "address",
          "name": "",
          "type": "address"
        }
      ],
      "name": "patientRegistry",
      "outputs": [
        {
          "internalType": "bool",
          "name": "",
          "type": "bool"
        }
      ],
      "stateMutability": "view",
      "type": "function"
    },
    {
      "inputs": [],
      "name": "pauseExpiry",
      "outputs": [
        {
          "internalType": "uint256",
          "name": "",
          "type": "uint256"
        }
      ],
      "stateMutability": "view",
      "type": "function"
    },
    {
      "inputs": [
        {
          "internalType": "address",
          "name": "doctorAddress",
          "type": "address"
        },
        {
          "internalType": "string",
          "name": "licenseHash",
          "type": "string"
        },
        {
          "internalType": "uint256",
          "name": "licenseExpiry",
          "type": "uint256"
        },
        {
          "internalType": "string",
          "name": "name",
          "type": "string"
        },
        {
          "internalType": "string",
          "name": "specialization",
          "type": "string"
        }
      ],
      "name": "registerDoctor",
      "outputs": [],
      "stateMutability": "nonpayable",
      "type": "function"
    },
    {
      "inputs": [],
      "name": "registerPatient",
      "outputs": [],
      "stateMutability": "nonpayable",
      "type": "function"
    },
    {
      "inputs": [
        {
          "internalType": "address",
          "name": "pharmacistAddress",
          "type": "address"
        },
        {
          "internalType": "string",
          "name": "pharmacyId",
          "type": "string"
        },
        {
          "internalType": "string",
          "name": "pharmacyName",
          "type": "string"
        }
      ],
      "name": "registerPharmacist",
      "outputs": [],
      "stateMutability": "nonpayable",
      "type": "function"
    },
    {
      "inputs": [
        {
          "internalType": "bytes32",
          "name": "role",
          "type": "bytes32"
        },
        {
          "internalType": "address",
          "name": "callerConfirmation",
          "type": "address"
        }
      ],
      "name": "renounceRole",
      "outputs": [],
      "stateMutability": "nonpayable",
      "type": "function"
    },
    {
      "inputs": [
        {
          "internalType": "address",
          "name": "patient",
          "type": "address"
        },
        {
          "internalType": "string",
          "name": "doctorName",
          "type": "string"
        },
        {
          "internalType": "string",
          "name": "hospital",
          "type": "string"
        }
      ],
      "name": "requestAccess",
      "outputs": [],
      "stateMutability": "nonpayable",
      "type": "function"
    },
    {
      "inputs": [
        {
          "internalType": "address",
          "name": "doctor",
          "type": "address"
        }
      ],
      "name": "revokeAccess",
      "outputs": [],
      "stateMutability": "nonpayable",
      "type": "function"
    },
    {
      "inputs": [
        {
          "internalType": "uint256",
          "name": "requestId",
          "type": "uint256"
        }
      ],
      "name": "revokeAccessEarly",
      "outputs": [],
      "stateMutability": "nonpayable",
      "type": "function"
    },
    {
      "inputs": [
        {
          "internalType": "address",
          "name": "doctorAddress",
          "type": "address"
        }
      ],
      "name": "revokeDoctor",
      "outputs": [],
      "stateMutability": "nonpayable",
      "type": "function"
    },
    {
      "inputs": [
        {
          "internalType": "address",
          "name": "pharmacistAddress",
          "type": "address"
        }
      ],
      "name": "revokePharmacist",
      "outputs": [],
      "stateMutability": "nonpayable",
      "type": "function"
    },
    {
      "inputs": [
        {
          "internalType": "bytes32",
          "name": "role",
          "type": "bytes32"
        },
        {
          "internalType": "address",
          "name": "account",
          "type": "address"
        }
      ],
      "name": "revokeRole",
      "outputs": [],
      "stateMutability": "nonpayable",
      "type": "function"
    },
    {
      "inputs": [
        {
          "internalType": "string",
          "name": "cid",
          "type": "string"
        }
      ],
      "name": "storeDataCID",
      "outputs": [],
      "stateMutability": "nonpayable",
      "type": "function"
    },
    {
      "inputs": [
        {
          "internalType": "bytes4",
          "name": "interfaceId",
          "type": "bytes4"
        }
      ],
      "name": "supportsInterface",
      "outputs": [
        {
          "internalType": "bool",
          "name": "",
          "type": "bool"
        }
      ],
      "stateMutability": "view",
      "type": "function"
    },
    {
      "inputs": [
        {
          "internalType": "uint256",
          "name": "durationHours",
          "type": "uint256"
        }
      ],
      "name": "togglePause",
      "outputs": [],
      "stateMutability": "nonpayable",
      "type": "function"
    }
  ],
  "transactionHash": "0x5b2120d1a6c9c50e410aa4c0b8251d00c7e07d275be9481ea6bebe9f4932224e",
  "args": [],
  "numDeployments": 1,
  "solcInputHash": "21e007abe199724924244b7389e086b0",
  "bytecode": "0x608060405234801561001057600080fd5b506100417fa49807205ce4d355092ef5a8a18f56e8913cf4a201fbe287825b095693c217753361013760201b60201c565b506100927f0af1dac7dea2fd7f7738119cec7df099dfad49aa9d2e7d17ba6b60f63ae7411f7fa49807205ce4d355092ef5a8a18f56e8913cf4a201fbe287825b095693c2177561023460201b60201c565b6100e27fc2d498fa6734073871a6dde33c56174c52423804118e0d5b66171fad3494de687fa49807205ce4d355092ef5a8a18f56e8913cf4a201fbe287825b095693c2177561023460201b60201c565b6101327f72606200fac42b7dc86b75901d61ecfab2a4a1a6eded478b97a428094891abed7fa49807205ce4d355092ef5a8a18f56e8913cf4a201fbe287825b095693c2177561023460201b60201c565b610340565b6000610149838361029560201b60201c565b61022957600160008085815260200190815260200160002060000160008473ffffffffffffffffffffffffffffffffffffffff1673ffffffffffffffffffffffffffffffffffffffff16815260200190815260200160002060006101000a81548160ff0219169083151502179055506101c66102af60201b60201c565b73ffffffffffffffffffffffffffffffffffffffff168273ffffffffffffffffffffffffffffffffffffffff16847f2f8788117e7eff1d82e926ec794901d17c78024a50270940304540a733656f0d60405160405180910390a46001905061022e565b600090505b92915050565b6000610245836102b760201b60201c565b905081600080858152602001908152602001600020600101819055508181847fbd79b86ffe0ab8e8776151514217cd7cacd52c909f66475c3af44e129f0b00ff60405160405180910390a4505050565b60006102a783836102d660201b60201c565b905092915050565b600033905090565b6000806000838152602001908152602001600020600101549050919050565b600080600084815260200190815260200160002060000160008373ffffffffffffffffffffffffffffffffffffffff1673ffffffffffffffffffffffffffffffffffffffff16815260200190815260200160002060009054906101000a900460ff16905092915050565b6159558061034f6000396000f3fe608060405234801561001057600080fd5b50600436106102325760003560e01c806385e6853111610130578063a7e29814116100b8578063d1eb16521161007c578063d1eb1652146106ab578063d547741f146106c9578063f0d95090146106e5578063f125af6b14610703578063fec331f21461072157610232565b8063a7e2981414610607578063ac5cb97d14610623578063b803a2e314610641578063c532d9fa1461065d578063cf3743341461067b57610232565b80639f8a13d7116100ff5780639f8a13d714610551578063a1a7236214610581578063a217fddf1461059d578063a6af1606146105bb578063a784176b146105d757610232565b806385e68531146104b757806391d14854146104d35780639c80cfa3146105035780639db92d681461053357610232565b8063405fa249116101be5780636bd9110e116101825780636bd9110e1461041157806375b238fc1461044157806379111c1c1461045f578063822d38851461047d57806384efc52f1461048757610232565b8063405fa2491461036f578063437435701461038b57806351858e27146103a757806356f25d27146103c5578063689d7c74146103f557610232565b80632f04e064116102055780632f04e064146102cf5780632f2ff15d146102ff57806336568abe1461031b57806339c59de9146103375780633b0c0f0f1461035357610232565b806301ffc9a7146102375780630416af2714610267578063088be8c314610283578063248a9ca31461029f575b600080fd5b610251600480360381019061024c919061320a565b61073f565b60405161025e9190613252565b60405180910390f35b610281600480360381019061027c91906132cb565b6107b9565b005b61029d6004803603810190610298919061343e565b61098e565b005b6102b960048036038101906102b491906134ff565b610c76565b6040516102c6919061353b565b60405180910390f35b6102e960048036038101906102e491906132cb565b610c95565b6040516102f69190613681565b60405180910390f35b610319600480360381019061031491906136a3565b610d26565b005b610335600480360381019061033091906136a3565b610d48565b005b610351600480360381019061034c91906132cb565b610dc3565b005b61036d6004803603810190610368919061370f565b610f09565b005b6103896004803603810190610384919061383e565b611307565b005b6103a560048036038101906103a0919061388b565b6113d5565b005b6103af6114ec565b6040516103bc9190613252565b60405180910390f35b6103df60048036038101906103da91906132cb565b6114ff565b6040516103ec9190613252565b60405180910390f35b61040f600480360381019061040a91906138b8565b61158d565b005b61042b600480360381019061042691906132cb565b611644565b6040516104389190613942565b60405180910390f35b6104496117e5565b604051610456919061353b565b60405180910390f35b610467611809565b6040516104749190613973565b60405180910390f35b61048561188b565b005b6104a1600480360381019061049c91906132cb565b611a6f565b6040516104ae91906139e5565b60405180910390f35b6104d160048036038101906104cc91906132cb565b611b00565b005b6104ed60048036038101906104e891906136a3565b611d8a565b6040516104fa9190613252565b60405180910390f35b61051d600480360381019061051891906132cb565b611d9e565b60405161052a9190613252565b60405180910390f35b61053b611dbe565b6040516105489190613ac5565b60405180910390f35b61056b600480360381019061056691906132cb565b611e45565b6040516105789190613252565b60405180910390f35b61059b60048036038101906105969190613b88565b6120c0565b005b6105a561233b565b6040516105b2919061353b565b60405180910390f35b6105d560048036038101906105d09190613c3a565b612342565b005b6105f160048036038101906105ec91906132cb565b61251e565b6040516105fe9190613ebb565b60405180910390f35b610621600480360381019061061c919061343e565b6125a9565b005b61062b612812565b604051610638919061353b565b60405180910390f35b61065b6004803603810190610656919061388b565b612836565b005b6106656128d4565b604051610672919061353b565b60405180910390f35b610695600480360381019061069091906132cb565b6128f8565b6040516106a29190614042565b60405180910390f35b6106b3612b95565b6040516106c09190613973565b60405180910390f35b6106e360048036038101906106de91906136a3565b612c17565b005b6106ed612c7c565b6040516106fa9190613ac5565b60405180910390f35b61070b612d03565b6040516107189190613973565b60405180910390f35b610729612d09565b604051610736919061353b565b60405180910390f35b60007ffce87ace000000000000000000000000000000000000000000000000000000007bffffffffffffffffffffffffffffffffffffffffffffffffffffffff1916827bffffffffffffffffffffffffffffffffffffffffffffffffffffffff191614806107b257506107b182612d2d565b5b9050919050565b6107e37fa49807205ce4d355092ef5a8a18f56e8913cf4a201fbe287825b095693c2177533611d8a565b610822576040517f08c379a0000000000000000000000000000000000000000000000000000000008152600401610819906140b0565b60405180910390fd5b600d60009054906101000a900460ff1680156108405750600e544210155b15610861576000600d60006101000a81548160ff0219169083151502179055505b600d60009054906101000a900460ff16156108b1576040517f08c379a00000000000000000000000000000000000000000000000000000000081526004016108a89061411c565b60405180910390fd5b600373e7f1725E7734CE288F8367e1Bb143E90bb3F05126355c473879091836040518363ffffffff1660e01b81526004016108ed929190614152565b60006040518083038186803b15801561090557600080fd5b505af4158015610919573d6000803e3d6000fd5b505050506109477f0af1dac7dea2fd7f7738119cec7df099dfad49aa9d2e7d17ba6b60f63ae7411f82612da7565b508073ffffffffffffffffffffffffffffffffffffffff167fc7053e532de062d754b8ed96090affe0c4ba36dde0a699de7dd5185a9a9e7d0f60405160405180910390a250565b6109b87fa49807205ce4d355092ef5a8a18f56e8913cf4a201fbe287825b095693c2177533611d8a565b6109f7576040517f08c379a00000000000000000000000000000000000000000000000000000000081526004016109ee906140b0565b60405180910390fd5b600d60009054906101000a900460ff168015610a155750600e544210155b15610a36576000600d60006101000a81548160ff0219169083151502179055505b600d60009054906101000a900460ff1615610a86576040517f08c379a0000000000000000000000000000000000000000000000000000000008152600401610a7d9061411c565b60405180910390fd5b600073ffffffffffffffffffffffffffffffffffffffff168373ffffffffffffffffffffffffffffffffffffffff1603610af5576040517f08c379a0000000000000000000000000000000000000000000000000000000008152600401610aec906141c7565b60405180910390fd5b600660000160008473ffffffffffffffffffffffffffffffffffffffff1673ffffffffffffffffffffffffffffffffffffffff16815260200190815260200160002060020160009054906101000a900460ff1615610b88576040517f08c379a0000000000000000000000000000000000000000000000000000000008152600401610b7f90614233565b60405180910390fd5b610bb27fc2d498fa6734073871a6dde33c56174c52423804118e0d5b66171fad3494de6884612e99565b50600673e7f1725E7734CE288F8367e1Bb143E90bb3F0512635da0371090918585856040518563ffffffff1660e01b8152600401610bf394939291906142a4565b60006040518083038186803b158015610c0b57600080fd5b505af4158015610c1f573d6000803e3d6000fd5b505050508273ffffffffffffffffffffffffffffffffffffffff167ff780bede1449966edddb53884c0ea6892f688b86aa75813f703f4ee50ec16e5b83604051610c699190613942565b60405180910390a2505050565b6000806000838152602001908152602001600020600101549050919050565b610c9d6130ed565b600373e7f1725E7734CE288F8367e1Bb143E90bb3F05126349a839a79091846040518363ffffffff1660e01b8152600401610cd9929190614152565b600060405180830381865af4158015610cf6573d6000803e3d6000fd5b505050506040513d6000823e3d601f19601f82011682018060405250810190610d1f9190614492565b9050919050565b610d2f82610c76565b610d3881612f8a565b610d428383612e99565b50505050565b610d50612f9e565b73ffffffffffffffffffffffffffffffffffffffff168173ffffffffffffffffffffffffffffffffffffffff1614610db4576040517f6697b23200000000000000000000000000000000000000000000000000000000815260040160405180910390fd5b610dbe8282612da7565b505050565b610ded7fa49807205ce4d355092ef5a8a18f56e8913cf4a201fbe287825b095693c2177533611d8a565b610e2c576040517f08c379a0000000000000000000000000000000000000000000000000000000008152600401610e23906140b0565b60405180910390fd5b600673e7f1725E7734CE288F8367e1Bb143E90bb3F051263e075debc9091836040518363ffffffff1660e01b8152600401610e689291906144db565b60006040518083038186803b158015610e8057600080fd5b505af4158015610e94573d6000803e3d6000fd5b50505050610ec27fc2d498fa6734073871a6dde33c56174c52423804118e0d5b66171fad3494de6882612da7565b508073ffffffffffffffffffffffffffffffffffffffff167f3d35d2ee499267c27c37466f419f5d2fb4f9d71671ba366201725410649035d360405160405180910390a250565b610f337fa49807205ce4d355092ef5a8a18f56e8913cf4a201fbe287825b095693c2177533611d8a565b610f72576040517f08c379a0000000000000000000000000000000000000000000000000000000008152600401610f69906140b0565b60405180910390fd5b600d60009054906101000a900460ff168015610f905750600e544210155b15610fb1576000600d60006101000a81548160ff0219169083151502179055505b600d60009054906101000a900460ff1615611001576040517f08c379a0000000000000000000000000000000000000000000000000000000008152600401610ff89061411c565b60405180910390fd5b428311611043576040517f08c379a000000000000000000000000000000000000000000000000000000000815260040161103a90614550565b60405180910390fd5b6000845111611087576040517f08c379a000000000000000000000000000000000000000000000000000000000815260040161107e906145bc565b60405180910390fd5b600073ffffffffffffffffffffffffffffffffffffffff168573ffffffffffffffffffffffffffffffffffffffff16036110f6576040517f08c379a00000000000000000000000000000000000000000000000000000000081526004016110ed906141c7565b60405180910390fd5b600082511161113a576040517f08c379a000000000000000000000000000000000000000000000000000000000815260040161113190614628565b60405180910390fd5b600081511161117e576040517f08c379a000000000000000000000000000000000000000000000000000000000815260040161117590614694565b60405180910390fd5b600360000160008673ffffffffffffffffffffffffffffffffffffffff1673ffffffffffffffffffffffffffffffffffffffff16815260200190815260200160002060040160009054906101000a900460ff1615611211576040517f08c379a000000000000000000000000000000000000000000000000000000000815260040161120890614700565b60405180910390fd5b61123b7f0af1dac7dea2fd7f7738119cec7df099dfad49aa9d2e7d17ba6b60f63ae7411f86612e99565b50600373e7f1725E7734CE288F8367e1Bb143E90bb3F0512638e7cc4bc909187878787876040518763ffffffff1660e01b81526004016112809695949392919061472f565b60006040518083038186803b15801561129857600080fd5b505af41580156112ac573d6000803e3d6000fd5b505050508473ffffffffffffffffffffffffffffffffffffffff167f1f5e33d2573da99a901bca6b2c06d5f12b75dfd179bcbbe46a5216cf8349ee6b85856040516112f89291906147a5565b60405180910390a25050505050565b7f72606200fac42b7dc86b75901d61ecfab2a4a1a6eded478b97a428094891abed61133181612f8a565b8282600a60003373ffffffffffffffffffffffffffffffffffffffff1673ffffffffffffffffffffffffffffffffffffffff168152602001908152602001600020918261137f9291906149ec565b503373ffffffffffffffffffffffffffffffffffffffff167f4b33dafb50dac5530c30aca4e4069fd67a18220888b874b8519558d1769d49a184846040516113c8929190614ae9565b60405180910390a2505050565b6113ff7fa49807205ce4d355092ef5a8a18f56e8913cf4a201fbe287825b095693c2177533611d8a565b61143e576040517f08c379a0000000000000000000000000000000000000000000000000000000008152600401611435906140b0565b60405180910390fd5b600d60009054906101000a900460ff1615600d60006101000a81548160ff021916908315150217905550600d60009054906101000a900460ff1661148357600061149d565b610e10816114919190614b3c565b4261149c9190614b7e565b5b600e819055507f9077d36bc00859b5c3f320310707208543dd35092cb0a0fe117d0c6a558b148b600d60009054906101000a900460ff166040516114e19190613252565b60405180910390a150565b600d60009054906101000a900460ff1681565b600061152b7fc2d498fa6734073871a6dde33c56174c52423804118e0d5b66171fad3494de6883611d8a565b80156115865750600660000160008373ffffffffffffffffffffffffffffffffffffffff1673ffffffffffffffffffffffffffffffffffffffff16815260200190815260200160002060020160009054906101000a900460ff165b9050919050565b6001735FbDB2315678afecb367f032d93F642f64180aa363d5f0828190913385856040518563ffffffff1660e01b81526004016115cd9493929190614bb9565b60006040518083038186803b1580156115e557600080fd5b505af41580156115f9573d6000803e3d6000fd5b50505050817fe32aab36a0db5d8c977134f45af8266890345c66229dd59f9ecdf663668d4731824261162b9190614b7e565b6040516116389190613973565b60405180910390a25050565b60608173ffffffffffffffffffffffffffffffffffffffff163373ffffffffffffffffffffffffffffffffffffffff1614806116a657506116a57fa49807205ce4d355092ef5a8a18f56e8913cf4a201fbe287825b095693c2177533611d8a565b5b806116d757506116d67f0af1dac7dea2fd7f7738119cec7df099dfad49aa9d2e7d17ba6b60f63ae7411f33611d8a565b5b611716576040517f08c379a000000000000000000000000000000000000000000000000000000000815260040161170d90614c4a565b60405180910390fd5b600a60008373ffffffffffffffffffffffffffffffffffffffff1673ffffffffffffffffffffffffffffffffffffffff16815260200190815260200160002080546117609061480f565b80601f016020809104026020016040519081016040528092919081815260200182805461178c9061480f565b80156117d95780601f106117ae576101008083540402835291602001916117d9565b820191906000526020600020905b8154815290600101906020018083116117bc57829003601f168201915b50505050509050919050565b7fa49807205ce4d355092ef5a8a18f56e8913cf4a201fbe287825b095693c2177581565b6000600373e7f1725E7734CE288F8367e1Bb143E90bb3F051263c5f5d36f90916040518263ffffffff1660e01b81526004016118459190614c6a565b602060405180830381865af4158015611862573d6000803e3d6000fd5b505050506040513d601f19601f820116820180604052508101906118869190614c85565b905090565b600d60009054906101000a900460ff1680156118a95750600e544210155b156118ca576000600d60006101000a81548160ff0219169083151502179055505b600d60009054906101000a900460ff161561191a576040517f08c379a00000000000000000000000000000000000000000000000000000000081526004016119119061411c565b60405180910390fd5b600960003373ffffffffffffffffffffffffffffffffffffffff1673ffffffffffffffffffffffffffffffffffffffff16815260200190815260200160002060009054906101000a900460ff16156119a7576040517f08c379a000000000000000000000000000000000000000000000000000000000815260040161199e90614cfe565b60405180910390fd5b6119d17f72606200fac42b7dc86b75901d61ecfab2a4a1a6eded478b97a428094891abed33612e99565b506001600960003373ffffffffffffffffffffffffffffffffffffffff1673ffffffffffffffffffffffffffffffffffffffff16815260200190815260200160002060006101000a81548160ff0219169083151502179055503373ffffffffffffffffffffffffffffffffffffffff167fc9fa2003fca4ce0dfc8cb0deae32266b715536df6685365b05b5be96ede8e49c60405160405180910390a2565b611a7761311e565b600673e7f1725E7734CE288F8367e1Bb143E90bb3F05126326dd7c369091846040518363ffffffff1660e01b8152600401611ab39291906144db565b600060405180830381865af4158015611ad0573d6000803e3d6000fd5b505050506040513d6000823e3d601f19601f82011682018060405250810190611af99190614dba565b9050919050565b6000600160000160003373ffffffffffffffffffffffffffffffffffffffff1673ffffffffffffffffffffffffffffffffffffffff168152602001908152602001600020905060005b8180549050811015611ca3578273ffffffffffffffffffffffffffffffffffffffff16828281548110611b7f57611b7e614e03565b5b906000526020600020906006020160010160009054906101000a900473ffffffffffffffffffffffffffffffffffffffff1673ffffffffffffffffffffffffffffffffffffffff16148015611c025750818181548110611be257611be1614e03565b5b906000526020600020906006020160050160009054906101000a900460ff165b15611c96576000828281548110611c1c57611c1b614e03565b5b906000526020600020906006020160050160006101000a81548160ff021916908315150217905550818181548110611c5757611c56614e03565b5b9060005260206000209060060201600001547f91ff4d16576040b78e69b4d9da7512a6b24c63472eb50154802f3e3f4ed5500e60405160405180910390a25b8080600101915050611b49565b50600c60003373ffffffffffffffffffffffffffffffffffffffff1673ffffffffffffffffffffffffffffffffffffffff16815260200190815260200160002060008373ffffffffffffffffffffffffffffffffffffffff1673ffffffffffffffffffffffffffffffffffffffff1681526020019081526020016000206000611d2c9190613141565b3373ffffffffffffffffffffffffffffffffffffffff168273ffffffffffffffffffffffffffffffffffffffff167f825c8be24eb0df19500f63e86c29e7d0d951e73056b889b891d85e40938d9b6e60405160405180910390a35050565b6000611d968383612fa6565b905092915050565b60096020528060005260406000206000915054906101000a900460ff1681565b6060600673e7f1725E7734CE288F8367e1Bb143E90bb3F0512638f77b68d90916040518263ffffffff1660e01b8152600401611dfa9190614e32565b600060405180830381865af4158015611e17573d6000803e3d6000fd5b505050506040513d6000823e3d601f19601f82011682018060405250810190611e409190614f25565b905090565b600080600360000160008473ffffffffffffffffffffffffffffffffffffffff1673ffffffffffffffffffffffffffffffffffffffff1681526020019081526020016000206040518060a0016040529081600082018054611ea59061480f565b80601f0160208091040260200160405190810160405280929190818152602001828054611ed19061480f565b8015611f1e5780601f10611ef357610100808354040283529160200191611f1e565b820191906000526020600020905b815481529060010190602001808311611f0157829003601f168201915b5050505050815260200160018201548152602001600282018054611f419061480f565b80601f0160208091040260200160405190810160405280929190818152602001828054611f6d9061480f565b8015611fba5780601f10611f8f57610100808354040283529160200191611fba565b820191906000526020600020905b815481529060010190602001808311611f9d57829003601f168201915b50505050508152602001600382018054611fd39061480f565b80601f0160208091040260200160405190810160405280929190818152602001828054611fff9061480f565b801561204c5780601f106120215761010080835404028352916020019161204c565b820191906000526020600020905b81548152906001019060200180831161202f57829003601f168201915b505050505081526020016004820160009054906101000a900460ff161515151581525050905061209c7f0af1dac7dea2fd7f7738119cec7df099dfad49aa9d2e7d17ba6b60f63ae7411f84611d8a565b80156120a9575080608001515b80156120b85750428160200151115b915050919050565b6000600b60003373ffffffffffffffffffffffffffffffffffffffff1673ffffffffffffffffffffffffffffffffffffffff168152602001908152602001600020905060005b81805490508110156122fb578382828154811061212657612125614e03565b5b906000526020600020906007020160000154036122ee57600182828154811061215257612151614e03565b5b906000526020600020906007020160060160006101000a81548160ff02191690831515021790555082600c60003373ffffffffffffffffffffffffffffffffffffffff1673ffffffffffffffffffffffffffffffffffffffff16815260200190815260200160002060008484815481106121cf576121ce614e03565b5b906000526020600020906007020160010160009054906101000a900473ffffffffffffffffffffffffffffffffffffffff1673ffffffffffffffffffffffffffffffffffffffff1673ffffffffffffffffffffffffffffffffffffffff16815260200190815260200160002090816122479190614fd4565b503373ffffffffffffffffffffffffffffffffffffffff1682828154811061227257612271614e03565b5b906000526020600020906007020160010160009054906101000a900473ffffffffffffffffffffffffffffffffffffffff1673ffffffffffffffffffffffffffffffffffffffff16857f734eac5b54039ed4ed359c7034f5c743cbea175340fc22ca139f102119991ce960405160405180910390a45050612337565b8080600101915050612106565b506040517f08c379a000000000000000000000000000000000000000000000000000000000815260040161232e906150f2565b60405180910390fd5b5050565b6000801b81565b7f72606200fac42b7dc86b75901d61ecfab2a4a1a6eded478b97a428094891abed61236c81612f8a565b6123967f0af1dac7dea2fd7f7738119cec7df099dfad49aa9d2e7d17ba6b60f63ae7411f86611d8a565b6123d5576040517f08c379a00000000000000000000000000000000000000000000000000000000081526004016123cc9061515e565b60405180910390fd5b60008211612418576040517f08c379a000000000000000000000000000000000000000000000000000000000815260040161240f906151ca565b60405180910390fd5b60006001735FbDB2315678afecb367f032d93F642f64180aa3634f6601e0909188338989896040518763ffffffff1660e01b815260040161245e9695949392919061534e565b602060405180830381865af415801561247b573d6000803e3d6000fd5b505050506040513d601f19601f8201168201806040525081019061249f9190614c85565b90503373ffffffffffffffffffffffffffffffffffffffff168673ffffffffffffffffffffffffffffffffffffffff16827fefe5b72062702550465fdc2e5b73521c231f083cba1fd798d285715f9f483d6e86426124fd9190614b7e565b898960405161250e93929190615474565b60405180910390a4505050505050565b60606001735FbDB2315678afecb367f032d93F642f64180aa363de9d94b89091846040518363ffffffff1660e01b815260040161255c9291906154a6565b600060405180830381865af4158015612579573d6000803e3d6000fd5b505050506040513d6000823e3d601f19601f820116820180604052508101906125a2919061574d565b9050919050565b7f0af1dac7dea2fd7f7738119cec7df099dfad49aa9d2e7d17ba6b60f63ae7411f6125d381612f8a565b600060018001549050600b60008673ffffffffffffffffffffffffffffffffffffffff1673ffffffffffffffffffffffffffffffffffffffff1681526020019081526020016000206040518060e001604052808381526020013373ffffffffffffffffffffffffffffffffffffffff1681526020018773ffffffffffffffffffffffffffffffffffffffff1681526020018681526020018581526020014281526020016000151581525090806001815401808255809150506001900390600052602060002090600702016000909190919091506000820151816000015560208201518160010160006101000a81548173ffffffffffffffffffffffffffffffffffffffff021916908373ffffffffffffffffffffffffffffffffffffffff16021790555060408201518160020160006101000a81548173ffffffffffffffffffffffffffffffffffffffff021916908373ffffffffffffffffffffffffffffffffffffffff16021790555060608201518160030190816127539190615796565b5060808201518160040190816127699190615796565b5060a0820151816005015560c08201518160060160006101000a81548160ff02191690831515021790555050506001800160008154809291906127ab90615868565b91905055508473ffffffffffffffffffffffffffffffffffffffff163373ffffffffffffffffffffffffffffffffffffffff16827fc0d9df9d6d8acee28356fcc24c0de4597104943515c4c0b12fb3d6b1ca74b0ee60405160405180910390a45050505050565b7f72606200fac42b7dc86b75901d61ecfab2a4a1a6eded478b97a428094891abed81565b6001735FbDB2315678afecb367f032d93F642f64180aa363cbca4aec909133846040518463ffffffff1660e01b8152600401612874939291906158b0565b60006040518083038186803b15801561288c57600080fd5b505af41580156128a0573d6000803e3d6000fd5b50505050807f91ff4d16576040b78e69b4d9da7512a6b24c63472eb50154802f3e3f4ed5500e60405160405180910390a250565b7fc2d498fa6734073871a6dde33c56174c52423804118e0d5b66171fad3494de6881565b6060600b60008373ffffffffffffffffffffffffffffffffffffffff1673ffffffffffffffffffffffffffffffffffffffff168152602001908152602001600020805480602002602001604051908101604052809291908181526020016000905b82821015612b8a57838290600052602060002090600702016040518060e0016040529081600082015481526020016001820160009054906101000a900473ffffffffffffffffffffffffffffffffffffffff1673ffffffffffffffffffffffffffffffffffffffff1673ffffffffffffffffffffffffffffffffffffffff1681526020016002820160009054906101000a900473ffffffffffffffffffffffffffffffffffffffff1673ffffffffffffffffffffffffffffffffffffffff1673ffffffffffffffffffffffffffffffffffffffff168152602001600382018054612a429061480f565b80601f0160208091040260200160405190810160405280929190818152602001828054612a6e9061480f565b8015612abb5780601f10612a9057610100808354040283529160200191612abb565b820191906000526020600020905b815481529060010190602001808311612a9e57829003601f168201915b50505050508152602001600482018054612ad49061480f565b80601f0160208091040260200160405190810160405280929190818152602001828054612b009061480f565b8015612b4d5780601f10612b2257610100808354040283529160200191612b4d565b820191906000526020600020905b815481529060010190602001808311612b3057829003601f168201915b50505050508152602001600582015481526020016006820160009054906101000a900460ff16151515158152505081526020019060010190612959565b505050509050919050565b6000600673e7f1725E7734CE288F8367e1Bb143E90bb3F051263f3208c1e90916040518263ffffffff1660e01b8152600401612bd19190614e32565b602060405180830381865af4158015612bee573d6000803e3d6000fd5b505050506040513d601f19601f82011682018060405250810190612c129190614c85565b905090565b612c2082610c76565b612c2981612f8a565b612c338383613010565b8173ffffffffffffffffffffffffffffffffffffffff16837fcfb95b05744d1dc2a42dc08bf4bd2ed68f381aeac3c9b1a6250a6120e236ba8860405160405180910390a3505050565b6060600373e7f1725E7734CE288F8367e1Bb143E90bb3F0512637e39afd690916040518263ffffffff1660e01b8152600401612cb89190614c6a565b600060405180830381865af4158015612cd5573d6000803e3d6000fd5b505050506040513d6000823e3d601f19601f82011682018060405250810190612cfe9190614f25565b905090565b600e5481565b7f0af1dac7dea2fd7f7738119cec7df099dfad49aa9d2e7d17ba6b60f63ae7411f81565b60007f7965db0b000000000000000000000000000000000000000000000000000000007bffffffffffffffffffffffffffffffffffffffffffffffffffffffff1916827bffffffffffffffffffffffffffffffffffffffffffffffffffffffff19161480612da05750612d9f82613032565b5b9050919050565b6000612db38383611d8a565b15612e8e57600080600085815260200190815260200160002060000160008473ffffffffffffffffffffffffffffffffffffffff1673ffffffffffffffffffffffffffffffffffffffff16815260200190815260200160002060006101000a81548160ff021916908315150217905550612e2b612f9e565b73ffffffffffffffffffffffffffffffffffffffff168273ffffffffffffffffffffffffffffffffffffffff16847ff6391f5c32d9c69d2a47ea670b442974b53935d1edc7fd64eb21e047a839171b60405160405180910390a460019050612e93565b600090505b92915050565b6000612ea58383611d8a565b612f7f57600160008085815260200190815260200160002060000160008473ffffffffffffffffffffffffffffffffffffffff1673ffffffffffffffffffffffffffffffffffffffff16815260200190815260200160002060006101000a81548160ff021916908315150217905550612f1c612f9e565b73ffffffffffffffffffffffffffffffffffffffff168273ffffffffffffffffffffffffffffffffffffffff16847f2f8788117e7eff1d82e926ec794901d17c78024a50270940304540a733656f0d60405160405180910390a460019050612f84565b600090505b92915050565b612f9b81612f96612f9e565b61309c565b50565b600033905090565b600080600084815260200190815260200160002060000160008373ffffffffffffffffffffffffffffffffffffffff1673ffffffffffffffffffffffffffffffffffffffff16815260200190815260200160002060009054906101000a900460ff16905092915050565b61301982610c76565b61302281612f8a565b61302c8383612da7565b50505050565b60007f01ffc9a7000000000000000000000000000000000000000000000000000000007bffffffffffffffffffffffffffffffffffffffffffffffffffffffff1916827bffffffffffffffffffffffffffffffffffffffffffffffffffffffff1916149050919050565b6130a68282611d8a565b6130e95780826040517fe2517d3f0000000000000000000000000000000000000000000000000000000081526004016130e09291906158f6565b60405180910390fd5b5050565b6040518060a00160405280606081526020016000815260200160608152602001606081526020016000151581525090565b604051806060016040528060608152602001606081526020016000151581525090565b50805461314d9061480f565b6000825580601f1061315f575061317e565b601f01602090049060005260206000209081019061317d9190613181565b5b50565b5b8082111561319a576000816000905550600101613182565b5090565b6000604051905090565b600080fd5b600080fd5b60007fffffffff0000000000000000000000000000000000000000000000000000000082169050919050565b6131e7816131b2565b81146131f257600080fd5b50565b600081359050613204816131de565b92915050565b6000602082840312156132205761321f6131a8565b5b600061322e848285016131f5565b91505092915050565b60008115159050919050565b61324c81613237565b82525050565b60006020820190506132676000830184613243565b92915050565b600073ffffffffffffffffffffffffffffffffffffffff82169050919050565b60006132988261326d565b9050919050565b6132a88161328d565b81146132b357600080fd5b50565b6000813590506132c58161329f565b92915050565b6000602082840312156132e1576132e06131a8565b5b60006132ef848285016132b6565b91505092915050565b600080fd5b600080fd5b6000601f19601f8301169050919050565b7f4e487b7100000000000000000000000000000000000000000000000000000000600052604160045260246000fd5b61334b82613302565b810181811067ffffffffffffffff8211171561336a57613369613313565b5b80604052505050565b600061337d61319e565b90506133898282613342565b919050565b600067ffffffffffffffff8211156133a9576133a8613313565b5b6133b282613302565b9050602081019050919050565b82818337600083830152505050565b60006133e16133dc8461338e565b613373565b9050828152602081018484840111156133fd576133fc6132fd565b5b6134088482856133bf565b509392505050565b600082601f830112613425576134246132f8565b5b81356134358482602086016133ce565b91505092915050565b600080600060608486031215613457576134566131a8565b5b6000613465868287016132b6565b935050602084013567ffffffffffffffff811115613486576134856131ad565b5b61349286828701613410565b925050604084013567ffffffffffffffff8111156134b3576134b26131ad565b5b6134bf86828701613410565b9150509250925092565b6000819050919050565b6134dc816134c9565b81146134e757600080fd5b50565b6000813590506134f9816134d3565b92915050565b600060208284031215613515576135146131a8565b5b6000613523848285016134ea565b91505092915050565b613535816134c9565b82525050565b6000602082019050613550600083018461352c565b92915050565b600081519050919050565b600082825260208201905092915050565b60005b83811015613590578082015181840152602081019050613575565b60008484015250505050565b60006135a782613556565b6135b18185613561565b93506135c1818560208601613572565b6135ca81613302565b840191505092915050565b6000819050919050565b6135e8816135d5565b82525050565b6135f781613237565b82525050565b600060a083016000830151848203600086015261361a828261359c565b915050602083015161362f60208601826135df565b5060408301518482036040860152613647828261359c565b91505060608301518482036060860152613661828261359c565b915050608083015161367660808601826135ee565b508091505092915050565b6000602082019050818103600083015261369b81846135fd565b905092915050565b600080604083850312156136ba576136b96131a8565b5b60006136c8858286016134ea565b92505060206136d9858286016132b6565b9150509250929050565b6136ec816135d5565b81146136f757600080fd5b50565b600081359050613709816136e3565b92915050565b600080600080600060a0868803121561372b5761372a6131a8565b5b6000613739888289016132b6565b955050602086013567ffffffffffffffff81111561375a576137596131ad565b5b61376688828901613410565b9450506040613777888289016136fa565b935050606086013567ffffffffffffffff811115613798576137976131ad565b5b6137a488828901613410565b925050608086013567ffffffffffffffff8111156137c5576137c46131ad565b5b6137d188828901613410565b9150509295509295909350565b600080fd5b600080fd5b60008083601f8401126137fe576137fd6132f8565b5b8235905067ffffffffffffffff81111561381b5761381a6137de565b5b602083019150836001820283011115613837576138366137e3565b5b9250929050565b60008060208385031215613855576138546131a8565b5b600083013567ffffffffffffffff811115613873576138726131ad565b5b61387f858286016137e8565b92509250509250929050565b6000602082840312156138a1576138a06131a8565b5b60006138af848285016136fa565b91505092915050565b600080604083850312156138cf576138ce6131a8565b5b60006138dd858286016136fa565b92505060206138ee858286016136fa565b9150509250929050565b600082825260208201905092915050565b600061391482613556565b61391e81856138f8565b935061392e818560208601613572565b61393781613302565b840191505092915050565b6000602082019050818103600083015261395c8184613909565b905092915050565b61396d816135d5565b82525050565b60006020820190506139886000830184613964565b92915050565b600060608301600083015184820360008601526139ab828261359c565b915050602083015184820360208601526139c5828261359c565b91505060408301516139da60408601826135ee565b508091505092915050565b600060208201905081810360008301526139ff818461398e565b905092915050565b600081519050919050565b600082825260208201905092915050565b6000819050602082019050919050565b613a3c8161328d565b82525050565b6000613a4e8383613a33565b60208301905092915050565b6000602082019050919050565b6000613a7282613a07565b613a7c8185613a12565b9350613a8783613a23565b8060005b83811015613ab8578151613a9f8882613a42565b9750613aaa83613a5a565b925050600181019050613a8b565b5085935050505092915050565b60006020820190508181036000830152613adf8184613a67565b905092915050565b600067ffffffffffffffff821115613b0257613b01613313565b5b613b0b82613302565b9050602081019050919050565b6000613b2b613b2684613ae7565b613373565b905082815260208101848484011115613b4757613b466132fd565b5b613b528482856133bf565b509392505050565b600082601f830112613b6f57613b6e6132f8565b5b8135613b7f848260208601613b18565b91505092915050565b60008060408385031215613b9f57613b9e6131a8565b5b6000613bad858286016136fa565b925050602083013567ffffffffffffffff811115613bce57613bcd6131ad565b5b613bda85828601613b5a565b9150509250929050565b60008083601f840112613bfa57613bf96132f8565b5b8235905067ffffffffffffffff811115613c1757613c166137de565b5b602083019150836020820283011115613c3357613c326137e3565b5b9250929050565b60008060008060608587031215613c5457613c536131a8565b5b6000613c62878288016132b6565b945050602085013567ffffffffffffffff811115613c8357613c826131ad565b5b613c8f87828801613be4565b93509350506040613ca2878288016136fa565b91505092959194509250565b600081519050919050565b600082825260208201905092915050565b6000819050602082019050919050565b600081519050919050565b600082825260208201905092915050565b6000819050602082019050919050565b6000613d12838361359c565b905092915050565b6000602082019050919050565b6000613d3282613cda565b613d3c8185613ce5565b935083602082028501613d4e85613cf6565b8060005b85811015613d8a5784840389528151613d6b8582613d06565b9450613d7683613d1a565b925060208a01995050600181019050613d52565b50829750879550505050505092915050565b600060c083016000830151613db460008601826135df565b506020830151613dc76020860182613a33565b506040830151613dda6040860182613a33565b506060830151613ded60608601826135df565b5060808301518482036080860152613e058282613d27565b91505060a0830151613e1a60a08601826135ee565b508091505092915050565b6000613e318383613d9c565b905092915050565b6000602082019050919050565b6000613e5182613cae565b613e5b8185613cb9565b935083602082028501613e6d85613cca565b8060005b85811015613ea95784840389528151613e8a8582613e25565b9450613e9583613e39565b925060208a01995050600181019050613e71565b50829750879550505050505092915050565b60006020820190508181036000830152613ed58184613e46565b905092915050565b600081519050919050565b600082825260208201905092915050565b6000819050602082019050919050565b600060e083016000830151613f2160008601826135df565b506020830151613f346020860182613a33565b506040830151613f476040860182613a33565b5060608301518482036060860152613f5f828261359c565b91505060808301518482036080860152613f79828261359c565b91505060a0830151613f8e60a08601826135df565b5060c0830151613fa160c08601826135ee565b508091505092915050565b6000613fb88383613f09565b905092915050565b6000602082019050919050565b6000613fd882613edd565b613fe28185613ee8565b935083602082028501613ff485613ef9565b8060005b8581101561403057848403895281516140118582613fac565b945061401c83613fc0565b925060208a01995050600181019050613ff8565b50829750879550505050505092915050565b6000602082019050818103600083015261405c8184613fcd565b905092915050565b7f43616c6c6572206973206e6f7420616e2041646d696e00000000000000000000600082015250565b600061409a6016836138f8565b91506140a582614064565b602082019050919050565b600060208201905081810360008301526140c98161408d565b9050919050565b7f436f6e7472616374207061757365640000000000000000000000000000000000600082015250565b6000614106600f836138f8565b9150614111826140d0565b602082019050919050565b60006020820190508181036000830152614135816140f9565b9050919050565b8082525050565b61414c8161328d565b82525050565b6000604082019050614167600083018561413c565b6141746020830184614143565b9392505050565b7f496e76616c696420416464726573730000000000000000000000000000000000600082015250565b60006141b1600f836138f8565b91506141bc8261417b565b602082019050919050565b600060208201905081810360008301526141e0816141a4565b9050919050565b7f506861726d616369737420616c72656164792052656769737465726564000000600082015250565b600061421d601d836138f8565b9150614228826141e7565b602082019050919050565b6000602082019050818103600083015261424c81614210565b9050919050565b8082525050565b600082825260208201905092915050565b600061427682613556565b614280818561425a565b9350614290818560208601613572565b61429981613302565b840191505092915050565b60006080820190506142b96000830187614253565b6142c66020830186614143565b81810360408301526142d8818561426b565b905081810360608301526142ec818461426b565b905095945050505050565b600080fd5b600080fd5b600061431461430f8461338e565b613373565b9050828152602081018484840111156143305761432f6132fd565b5b61433b848285613572565b509392505050565b600082601f830112614358576143576132f8565b5b8151614368848260208601614301565b91505092915050565b600081519050614380816136e3565b92915050565b61438f81613237565b811461439a57600080fd5b50565b6000815190506143ac81614386565b92915050565b600060a082840312156143c8576143c76142f7565b5b6143d260a0613373565b9050600082015167ffffffffffffffff8111156143f2576143f16142fc565b5b6143fe84828501614343565b600083015250602061441284828501614371565b602083015250604082015167ffffffffffffffff811115614436576144356142fc565b5b61444284828501614343565b604083015250606082015167ffffffffffffffff811115614466576144656142fc565b5b61447284828501614343565b60608301525060806144868482850161439d565b60808301525092915050565b6000602082840312156144a8576144a76131a8565b5b600082015167ffffffffffffffff8111156144c6576144c56131ad565b5b6144d2848285016143b2565b91505092915050565b60006040820190506144f06000830185614253565b6144fd6020830184614143565b9392505050565b7f4c6963656e736520457870697265640000000000000000000000000000000000600082015250565b600061453a600f836138f8565b915061454582614504565b602082019050919050565b600060208201905081810360008301526145698161452d565b9050919050565b7f496e76616c6964204c6963656e73650000000000000000000000000000000000600082015250565b60006145a6600f836138f8565b91506145b182614570565b602082019050919050565b600060208201905081810360008301526145d581614599565b9050919050565b7f4e616d6520726571756972656400000000000000000000000000000000000000600082015250565b6000614612600d836138f8565b915061461d826145dc565b602082019050919050565b6000602082019050818103600083015261464181614605565b9050919050565b7f5370656369616c697a6174696f6e207265717569726564000000000000000000600082015250565b600061467e6017836138f8565b915061468982614648565b602082019050919050565b600060208201905081810360008301526146ad81614671565b9050919050565b7f446f63746f7220616c7265616479207265676973746572656400000000000000600082015250565b60006146ea6019836138f8565b91506146f5826146b4565b602082019050919050565b60006020820190508181036000830152614719816146dd565b9050919050565b614729816135d5565b82525050565b600060c082019050614744600083018961413c565b6147516020830188614143565b8181036040830152614763818761426b565b90506147726060830186614720565b8181036080830152614784818561426b565b905081810360a0830152614798818461426b565b9050979650505050505050565b600060408201905081810360008301526147bf8185613909565b90506147ce6020830184613964565b9392505050565b600082905092915050565b7f4e487b7100000000000000000000000000000000000000000000000000000000600052602260045260246000fd5b6000600282049050600182168061482757607f821691505b60208210810361483a576148396147e0565b5b50919050565b60008190508160005260206000209050919050565b60006020601f8301049050919050565b600082821b905092915050565b6000600883026148a27fffffffffffffffffffffffffffffffffffffffffffffffffffffffffffffffff82614865565b6148ac8683614865565b95508019841693508086168417925050509392505050565b6000819050919050565b60006148e96148e46148df846135d5565b6148c4565b6135d5565b9050919050565b6000819050919050565b614903836148ce565b61491761490f826148f0565b848454614872565b825550505050565b600090565b61492c61491f565b6149378184846148fa565b505050565b5b8181101561495b57614950600082614924565b60018101905061493d565b5050565b601f8211156149a05761497181614840565b61497a84614855565b81016020851015614989578190505b61499d61499585614855565b83018261493c565b50505b505050565b600082821c905092915050565b60006149c3600019846008026149a5565b1980831691505092915050565b60006149dc83836149b2565b9150826002028217905092915050565b6149f683836147d5565b67ffffffffffffffff811115614a0f57614a0e613313565b5b614a19825461480f565b614a2482828561495f565b6000601f831160018114614a535760008415614a41578287013590505b614a4b85826149d0565b865550614ab3565b601f198416614a6186614840565b60005b82811015614a8957848901358255600182019150602085019450602081019050614a64565b86831015614aa65784890135614aa2601f8916826149b2565b8355505b6001600288020188555050505b50505050505050565b6000614ac883856138f8565b9350614ad58385846133bf565b614ade83613302565b840190509392505050565b60006020820190508181036000830152614b04818486614abc565b90509392505050565b7f4e487b7100000000000000000000000000000000000000000000000000000000600052601160045260246000fd5b6000614b47826135d5565b9150614b52836135d5565b9250828202614b60816135d5565b91508282048414831517614b7757614b76614b0d565b5b5092915050565b6000614b89826135d5565b9150614b94836135d5565b9250828201905080821115614bac57614bab614b0d565b5b92915050565b8082525050565b6000608082019050614bce6000830187614bb2565b614bdb6020830186614143565b614be86040830185614720565b614bf56060830184614720565b95945050505050565b7f4e6f206163636573730000000000000000000000000000000000000000000000600082015250565b6000614c346009836138f8565b9150614c3f82614bfe565b602082019050919050565b60006020820190508181036000830152614c6381614c27565b9050919050565b6000602082019050614c7f600083018461413c565b92915050565b600060208284031215614c9b57614c9a6131a8565b5b6000614ca984828501614371565b91505092915050565b7f50617469656e7420616c72656164792072656769737465726564000000000000600082015250565b6000614ce8601a836138f8565b9150614cf382614cb2565b602082019050919050565b60006020820190508181036000830152614d1781614cdb565b9050919050565b600060608284031215614d3457614d336142f7565b5b614d3e6060613373565b9050600082015167ffffffffffffffff811115614d5e57614d5d6142fc565b5b614d6a84828501614343565b600083015250602082015167ffffffffffffffff811115614d8e57614d8d6142fc565b5b614d9a84828501614343565b6020830152506040614dae8482850161439d565b60408301525092915050565b600060208284031215614dd057614dcf6131a8565b5b600082015167ffffffffffffffff811115614dee57614ded6131ad565b5b614dfa84828501614d1e565b91505092915050565b7f4e487b7100000000000000000000000000000000000000000000000000000000600052603260045260246000fd5b6000602082019050614e476000830184614253565b92915050565b600067ffffffffffffffff821115614e6857614e67613313565b5b602082029050602081019050919050565b600081519050614e888161329f565b92915050565b6000614ea1614e9c84614e4d565b613373565b90508083825260208201905060208402830185811115614ec457614ec36137e3565b5b835b81811015614eed5780614ed98882614e79565b845260208401935050602081019050614ec6565b5050509392505050565b600082601f830112614f0c57614f0b6132f8565b5b8151614f1c848260208601614e8e565b91505092915050565b600060208284031215614f3b57614f3a6131a8565b5b600082015167ffffffffffffffff811115614f5957614f586131ad565b5b614f6584828501614ef7565b91505092915050565b600081519050919050565b60008190508160005260206000209050919050565b601f821115614fcf57614fa081614f79565b614fa984614855565b81016020851015614fb8578190505b614fcc614fc485614855565b83018261493c565b50505b505050565b614fdd82614f6e565b67ffffffffffffffff811115614ff657614ff5613313565b5b615000825461480f565b61500b828285614f8e565b600060209050601f83116001811461503e576000841561502c578287015190505b61503685826149d0565b86555061509e565b601f19841661504c86614f79565b60005b828110156150745784890151825560018201915060208501945060208101905061504f565b86831015615091578489015161508d601f8916826149b2565b8355505b6001600288020188555050505b505050505050565b7f52657175657374206e6f7420666f756e64000000000000000000000000000000600082015250565b60006150dc6011836138f8565b91506150e7826150a6565b602082019050919050565b6000602082019050818103600083015261510b816150cf565b9050919050565b7f4e6f7420612076616c696420646f63746f720000000000000000000000000000600082015250565b60006151486012836138f8565b915061515382615112565b602082019050919050565b600060208201905081810360008301526151778161513b565b9050919050565b7f4475726174696f6e206d75737420626520706f73697469766500000000000000600082015250565b60006151b46019836138f8565b91506151bf8261517e565b602082019050919050565b600060208201905081810360008301526151e3816151a7565b9050919050565b600082825260208201905092915050565b6000819050919050565b600082825260208201905092915050565b60006152228385615205565b935061522f8385846133bf565b61523883613302565b840190509392505050565b6000615250848484615216565b90509392505050565b600080fd5b600080fd5b600080fd5b6000808335600160200384360303811261528557615284615263565b5b83810192508235915060208301925067ffffffffffffffff8211156152ad576152ac615259565b5b6001820236038313156152c3576152c261525e565b5b509250929050565b6000602082019050919050565b60006152e483856151ea565b9350836020840285016152f6846151fb565b8060005b8781101561533c5784840389526153118284615268565b61531c868284615243565b9550615327846152cb565b935060208b019a5050506001810190506152fa565b50829750879450505050509392505050565b600060a0820190506153636000830189614bb2565b6153706020830188614143565b61537d6040830187614143565b81810360608301526153908185876152d8565b905061539f6080830184614720565b979650505050505050565b600082825260208201905092915050565b60006153c78385613561565b93506153d48385846133bf565b6153dd83613302565b840190509392505050565b60006153f58484846153bb565b90509392505050565b600061540a83856153aa565b93508360208402850161541c846151fb565b8060005b878110156154625784840389526154378284615268565b6154428682846153e8565b955061544d846152cb565b935060208b019a505050600181019050615420565b50829750879450505050509392505050565b60006040820190506154896000830186613964565b818103602083015261549c8184866153fe565b9050949350505050565b60006040820190506154bb6000830185614bb2565b6154c86020830184614143565b9392505050565b600067ffffffffffffffff8211156154ea576154e9613313565b5b602082029050602081019050919050565b600067ffffffffffffffff82111561551657615515613313565b5b602082029050602081019050919050565b600061553a615535846154fb565b613373565b9050808382526020820190506020840283018581111561555d5761555c6137e3565b5b835b818110156155a457805167ffffffffffffffff811115615582576155816132f8565b5b80860161558f8982614343565b8552602085019450505060208101905061555f565b5050509392505050565b600082601f8301126155c3576155c26132f8565b5b81516155d3848260208601615527565b91505092915050565b600060c082840312156155f2576155f16142f7565b5b6155fc60c0613373565b9050600061560c84828501614371565b600083015250602061562084828501614e79565b602083015250604061563484828501614e79565b604083015250606061564884828501614371565b606083015250608082015167ffffffffffffffff81111561566c5761566b6142fc565b5b615678848285016155ae565b60808301525060a061568c8482850161439d565b60a08301525092915050565b60006156ab6156a6846154cf565b613373565b905080838252602082019050602084028301858111156156ce576156cd6137e3565b5b835b8181101561571557805167ffffffffffffffff8111156156f3576156f26132f8565b5b80860161570089826155dc565b855260208501945050506020810190506156d0565b5050509392505050565b600082601f830112615734576157336132f8565b5b8151615744848260208601615698565b91505092915050565b600060208284031215615763576157626131a8565b5b600082015167ffffffffffffffff811115615781576157806131ad565b5b61578d8482850161571f565b91505092915050565b61579f82613556565b67ffffffffffffffff8111156157b8576157b7613313565b5b6157c2825461480f565b6157cd82828561495f565b600060209050601f83116001811461580057600084156157ee578287015190505b6157f885826149d0565b865550615860565b601f19841661580e86614840565b60005b8281101561583657848901518255600182019150602085019450602081019050615811565b86831015615853578489015161584f601f8916826149b2565b8355505b6001600288020188555050505b505050505050565b6000615873826135d5565b91507fffffffffffffffffffffffffffffffffffffffffffffffffffffffffffffffff82036158a5576158a4614b0d565b5b600182019050919050565b60006060820190506158c56000830186614bb2565b6158d26020830185614143565b6158df6040830184614720565b949350505050565b6158f08161328d565b82525050565b600060408201905061590b60008301856158e7565b615918602083018461352c565b939250505056fea26469706673582212208d77998bb71c05f688bc71e28fbf820192b47bdc01096c84e3d1ce82bd7bba6e64736f6c634300081c0033",
  "deployedBytecode": "0x608060405234801561001057600080fd5b50600436106102325760003560e01c806385e6853111610130578063a7e29814116100b8578063d1eb16521161007c578063d1eb1652146106ab578063d547741f146106c9578063f0d95090146106e5578063f125af6b14610703578063fec331f21461072157610232565b8063a7e2981414610607578063ac5cb97d14610623578063b803a2e314610641578063c532d9fa1461065d578063cf3743341461067b57610232565b80639f8a13d7116100ff5780639f8a13d714610551578063a1a7236214610581578063a217fddf1461059d578063a6af1606146105bb578063a784176b146105d757610232565b806385e68531146104b757806391d14854146104d35780639c80cfa3146105035780639db92d681461053357610232565b8063405fa249116101be5780636bd9110e116101825780636bd9110e1461041157806375b238fc1461044157806379111c1c1461045f578063822d38851461047d57806384efc52f1461048757610232565b8063405fa2491461036f578063437435701461038b57806351858e27146103a757806356f25d27146103c5578063689d7c74146103f557610232565b80632f04e064116102055780632f04e064146102cf5780632f2ff15d146102ff57806336568abe1461031b57806339c59de9146103375780633b0c0f0f1461035357610232565b806301ffc9a7146102375780630416af2714610267578063088be8c314610283578063248a9ca31461029f575b600080fd5b610251600480360381019061024c919061320a565b61073f565b60405161025e9190613252565b60405180910390f35b610281600480360381019061027c91906132cb565b6107b9565b005b61029d6004803603810190610298919061343e565b61098e565b005b6102b960048036038101906102b491906134ff565b610c76565b6040516102c6919061353b565b60405180910390f35b6102e960048036038101906102e491906132cb565b610c95565b6040516102f69190613681565b60405180910390f35b610319600480360381019061031491906136a3565b610d26565b005b610335600480360381019061033091906136a3565b610d48565b005b610351600480360381019061034c91906132cb565b610dc3565b005b61036d6004803603810190610368919061370f565b610f09565b005b6103896004803603810190610384919061383e565b611307565b005b6103a560048036038101906103a0919061388b565b6113d5565b005b6103af6114ec565b6040516103bc9190613252565b60405180910390f35b6103df60048036038101906103da91906132cb565b6114ff565b6040516103ec9190613252565b60405180910390f35b61040f600480360381019061040a91906138b8565b61158d565b005b61042b600480360381019061042691906132cb565b611644565b6040516104389190613942565b60405180910390f35b6104496117e5565b604051610456919061353b565b60405180910390f35b610467611809565b6040516104749190613973565b60405180910390f35b61048561188b565b005b6104a1600480360381019061049c91906132cb565b611a6f565b6040516104ae91906139e5565b60405180910390f35b6104d160048036038101906104cc91906132cb565b611b00565b005b6104ed60048036038101906104e891906136a3565b611d8a565b6040516104fa9190613252565b60405180910390f35b61051d600480360381019061051891906132cb565b611d9e565b60405161052a9190613252565b60405180910390f35b61053b611dbe565b6040516105489190613ac5565b60405180910390f35b61056b600480360381019061056691906132cb565b611e45565b6040516105789190613252565b60405180910390f35b61059b60048036038101906105969190613b88565b6120c0565b005b6105a561233b565b6040516105b2919061353b565b60405180910390f35b6105d560048036038101906105d09190613c3a565b612342565b005b6105f160048036038101906105ec91906132cb565b61251e565b6040516105fe9190613ebb565b60405180910390f35b610621600480360381019061061c919061343e565b6125a9565b005b61062b612812565b604051610638919061353b565b60405180910390f35b61065b6004803603810190610656919061388b565b612836565b005b6106656128d4565b604051610672919061353b565b60405180910390f35b610695600480360381019061069091906132cb565b6128f8565b6040516106a29190614042565b60405180910390f35b6106b3612b95565b6040516106c09190613973565b60405180910390f35b6106e360048036038101906106de91906136a3565b612c17565b005b6106ed612c7c565b6040516106fa9190613ac5565b60405180910390f35b61070b612d03565b6040516107189190613973565b60405180910390f35b610729612d09565b604051610736919061353b565b60405180910390f35b60007ffce87ace000000000000000000000000000000000000000000000000000000007bffffffffffffffffffffffffffffffffffffffffffffffffffffffff1916827bffffffffffffffffffffffffffffffffffffffffffffffffffffffff191614806107b257506107b182612d2d565b5b9050919050565b6107e37fa49807205ce4d355092ef5a8a18f56e8913cf4a201fbe287825b095693c2177533611d8a565b610822576040517f08c379a0000000000000000000000000000000000000000000000000000000008152600401610819906140b0565b60405180910390fd5b600d60009054906101000a900460ff1680156108405750600e544210155b15610861576000600d60006101000a81548160ff0219169083151502179055505b600d60009054906101000a900460ff16156108b1576040517f08c379a00000000000000000000000000000000000000000000000000000000081526004016108a89061411c565b60405180910390fd5b600373__$f25c482e92a731d9ed43127d815f1df244$__6355c473879091836040518363ffffffff1660e01b81526004016108ed929190614152565b60006040518083038186803b15801561090557600080fd5b505af4158015610919573d6000803e3d6000fd5b505050506109477f0af1dac7dea2fd7f7738119cec7df099dfad49aa9d2e7d17ba6b60f63ae7411f82612da7565b508073ffffffffffffffffffffffffffffffffffffffff167fc7053e532de062d754b8ed96090affe0c4ba36dde0a699de7dd5185a9a9e7d0f60405160405180910390a250565b6109b87fa49807205ce4d355092ef5a8a18f56e8913cf4a201fbe287825b095693c2177533611d8a565b6109f7576040517f08c379a00000000000000000000000000000000000000000000000000000000081526004016109ee906140b0565b60405180910390fd5b600d60009054906101000a900460ff168015610a155750600e544210155b15610a36576000600d60006101000a81548160ff0219169083151502179055505b600d60009054906101000a900460ff1615610a86576040517f08c379a0000000000000000000000000000000000000000000000000000000008152600401610a7d9061411c565b60405180910390fd5b600073ffffffffffffffffffffffffffffffffffffffff168373ffffffffffffffffffffffffffffffffffffffff1603610af5576040517f08c379a0000000000000000000000000000000000000000000000000000000008152600401610aec906141c7565b60405180910390fd5b600660000160008473ffffffffffffffffffffffffffffffffffffffff1673ffffffffffffffffffffffffffffffffffffffff16815260200190815260200160002060020160009054906101000a900460ff1615610b88576040517f08c379a0000000000000000000000000000000000000000000000000000000008152600401610b7f90614233565b60405180910390fd5b610bb27fc2d498fa6734073871a6dde33c56174c52423804118e0d5b66171fad3494de6884612e99565b50600673__$f25c482e92a731d9ed43127d815f1df244$__635da0371090918585856040518563ffffffff1660e01b8152600401610bf394939291906142a4565b60006040518083038186803b158015610c0b57600080fd5b505af4158015610c1f573d6000803e3d6000fd5b505050508273ffffffffffffffffffffffffffffffffffffffff167ff780bede1449966edddb53884c0ea6892f688b86aa75813f703f4ee50ec16e5b83604051610c699190613942565b60405180910390a2505050565b6000806000838152602001908152602001600020600101549050919050565b610c9d6130ed565b600373__$f25c482e92a731d9ed43127d815f1df244$__6349a839a79091846040518363ffffffff1660e01b8152600401610cd9929190614152565b600060405180830381865af4158015610cf6573d6000803e3d6000fd5b505050506040513d6000823e3d601f19601f82011682018060405250810190610d1f9190614492565b9050919050565b610d2f82610c76565b610d3881612f8a565b610d428383612e99565b50505050565b610d50612f9e565b73ffffffffffffffffffffffffffffffffffffffff168173ffffffffffffffffffffffffffffffffffffffff1614610db4576040517f6697b23200000000000000000000000000000000000000000000000000000000815260040160405180910390fd5b610dbe8282612da7565b505050565b610ded7fa49807205ce4d355092ef5a8a18f56e8913cf4a201fbe287825b095693c2177533611d8a565b610e2c576040517f08c379a0000000000000000000000000000000000000000000000000000000008152600401610e23906140b0565b60405180910390fd5b600673__$f25c482e92a731d9ed43127d815f1df244$__63e075debc9091836040518363ffffffff1660e01b8152600401610e689291906144db565b60006040518083038186803b158015610e8057600080fd5b505af4158015610e94573d6000803e3d6000fd5b50505050610ec27fc2d498fa6734073871a6dde33c56174c52423804118e0d5b66171fad3494de6882612da7565b508073ffffffffffffffffffffffffffffffffffffffff167f3d35d2ee499267c27c37466f419f5d2fb4f9d71671ba366201725410649035d360405160405180910390a250565b610f337fa49807205ce4d355092ef5a8a18f56e8913cf4a201fbe287825b095693c2177533611d8a565b610f72576040517f08c379a0000000000000000000000000000000000000000000000000000000008152600401610f69906140b0565b60405180910390fd5b600d60009054906101000a900460ff168015610f905750600e544210155b15610fb1576000600d60006101000a81548160ff0219169083151502179055505b600d60009054906101000a900460ff1615611001576040517f08c379a0000000000000000000000000000000000000000000000000000000008152600401610ff89061411c565b60405180910390fd5b428311611043576040517f08c379a000000000000000000000000000000000000000000000000000000000815260040161103a90614550565b60405180910390fd5b6000845111611087576040517f08c379a000000000000000000000000000000000000000000000000000000000815260040161107e906145bc565b60405180910390fd5b600073ffffffffffffffffffffffffffffffffffffffff168573ffffffffffffffffffffffffffffffffffffffff16036110f6576040517f08c379a00000000000000000000000000000000000000000000000000000000081526004016110ed906141c7565b60405180910390fd5b600082511161113a576040517f08c379a000000000000000000000000000000000000000000000000000000000815260040161113190614628565b60405180910390fd5b600081511161117e576040517f08c379a000000000000000000000000000000000000000000000000000000000815260040161117590614694565b60405180910390fd5b600360000160008673ffffffffffffffffffffffffffffffffffffffff1673ffffffffffffffffffffffffffffffffffffffff16815260200190815260200160002060040160009054906101000a900460ff1615611211576040517f08c379a000000000000000000000000000000000000000000000000000000000815260040161120890614700565b60405180910390fd5b61123b7f0af1dac7dea2fd7f7738119cec7df099dfad49aa9d2e7d17ba6b60f63ae7411f86612e99565b50600373__$f25c482e92a731d9ed43127d815f1df244$__638e7cc4bc909187878787876040518763ffffffff1660e01b81526004016112809695949392919061472f565b60006040518083038186803b15801561129857600080fd5b505af41580156112ac573d6000803e3d6000fd5b505050508473ffffffffffffffffffffffffffffffffffffffff167f1f5e33d2573da99a901bca6b2c06d5f12b75dfd179bcbbe46a5216cf8349ee6b85856040516112f89291906147a5565b60405180910390a25050505050565b7f72606200fac42b7dc86b75901d61ecfab2a4a1a6eded478b97a428094891abed61133181612f8a565b8282600a60003373ffffffffffffffffffffffffffffffffffffffff1673ffffffffffffffffffffffffffffffffffffffff168152602001908152602001600020918261137f9291906149ec565b503373ffffffffffffffffffffffffffffffffffffffff167f4b33dafb50dac5530c30aca4e4069fd67a18220888b874b8519558d1769d49a184846040516113c8929190614ae9565b60405180910390a2505050565b6113ff7fa49807205ce4d355092ef5a8a18f56e8913cf4a201fbe287825b095693c2177533611d8a565b61143e576040517f08c379a0000000000000000000000000000000000000000000000000000000008152600401611435906140b0565b60405180910390fd5b600d60009054906101000a900460ff1615600d60006101000a81548160ff021916908315150217905550600d60009054906101000a900460ff1661148357600061149d565b610e10816114919190614b3c565b4261149c9190614b7e565b5b600e819055507f9077d36bc00859b5c3f320310707208543dd35092cb0a0fe117d0c6a558b148b600d60009054906101000a900460ff166040516114e19190613252565b60405180910390a150565b600d60009054906101000a900460ff1681565b600061152b7fc2d498fa6734073871a6dde33c56174c52423804118e0d5b66171fad3494de6883611d8a565b80156115865750600660000160008373ffffffffffffffffffffffffffffffffffffffff1673ffffffffffffffffffffffffffffffffffffffff16815260200190815260200160002060020160009054906101000a900460ff165b9050919050565b600173__$fa020a500783576cb949474ac6940fd299$__63d5f0828190913385856040518563ffffffff1660e01b81526004016115cd9493929190614bb9565b60006040518083038186803b1580156115e557600080fd5b505af41580156115f9573d6000803e3d6000fd5b50505050817fe32aab36a0db5d8c977134f45af8266890345c66229dd59f9ecdf663668d4731824261162b9190614b7e565b6040516116389190613973565b60405180910390a25050565b60608173ffffffffffffffffffffffffffffffffffffffff163373ffffffffffffffffffffffffffffffffffffffff1614806116a657506116a57fa49807205ce4d355092ef5a8a18f56e8913cf4a201fbe287825b095693c2177533611d8a565b5b806116d757506116d67f0af1dac7dea2fd7f7738119cec7df099dfad49aa9d2e7d17ba6b60f63ae7411f33611d8a565b5b611716576040517f08c379a000000000000000000000000000000000000000000000000000000000815260040161170d90614c4a565b60405180910390fd5b600a60008373ffffffffffffffffffffffffffffffffffffffff1673ffffffffffffffffffffffffffffffffffffffff16815260200190815260200160002080546117609061480f565b80601f016020809104026020016040519081016040528092919081815260200182805461178c9061480f565b80156117d95780601f106117ae576101008083540402835291602001916117d9565b820191906000526020600020905b8154815290600101906020018083116117bc57829003601f168201915b50505050509050919050565b7fa49807205ce4d355092ef5a8a18f56e8913cf4a201fbe287825b095693c2177581565b6000600373__$f25c482e92a731d9ed43127d815f1df244$__63c5f5d36f90916040518263ffffffff1660e01b81526004016118459190614c6a565b602060405180830381865af4158015611862573d6000803e3d6000fd5b505050506040513d601f19601f820116820180604052508101906118869190614c85565b905090565b600d60009054906101000a900460ff1680156118a95750600e544210155b156118ca576000600d60006101000a81548160ff0219169083151502179055505b600d60009054906101000a900460ff161561191a576040517f08c379a00000000000000000000000000000000000000000000000000000000081526004016119119061411c565b60405180910390fd5b600960003373ffffffffffffffffffffffffffffffffffffffff1673ffffffffffffffffffffffffffffffffffffffff16815260200190815260200160002060009054906101000a900460ff16156119a7576040517f08c379a000000000000000000000000000000000000000000000000000000000815260040161199e90614cfe565b60405180910390fd5b6119d17f72606200fac42b7dc86b75901d61ecfab2a4a1a6eded478b97a428094891abed33612e99565b506001600960003373ffffffffffffffffffffffffffffffffffffffff1673ffffffffffffffffffffffffffffffffffffffff16815260200190815260200160002060006101000a81548160ff0219169083151502179055503373ffffffffffffffffffffffffffffffffffffffff167fc9fa2003fca4ce0dfc8cb0deae32266b715536df6685365b05b5be96ede8e49c60405160405180910390a2565b611a7761311e565b600673__$f25c482e92a731d9ed43127d815f1df244$__6326dd7c369091846040518363ffffffff1660e01b8152600401611ab39291906144db565b600060405180830381865af4158015611ad0573d6000803e3d6000fd5b505050506040513d6000823e3d601f19601f82011682018060405250810190611af99190614dba565b9050919050565b6000600160000160003373ffffffffffffffffffffffffffffffffffffffff1673ffffffffffffffffffffffffffffffffffffffff168152602001908152602001600020905060005b8180549050811015611ca3578273ffffffffffffffffffffffffffffffffffffffff16828281548110611b7f57611b7e614e03565b5b906000526020600020906006020160010160009054906101000a900473ffffffffffffffffffffffffffffffffffffffff1673ffffffffffffffffffffffffffffffffffffffff16148015611c025750818181548110611be257611be1614e03565b5b906000526020600020906006020160050160009054906101000a900460ff165b15611c96576000828281548110611c1c57611c1b614e03565b5b906000526020600020906006020160050160006101000a81548160ff021916908315150217905550818181548110611c5757611c56614e03565b5b9060005260206000209060060201600001547f91ff4d16576040b78e69b4d9da7512a6b24c63472eb50154802f3e3f4ed5500e60405160405180910390a25b8080600101915050611b49565b50600c60003373ffffffffffffffffffffffffffffffffffffffff1673ffffffffffffffffffffffffffffffffffffffff16815260200190815260200160002060008373ffffffffffffffffffffffffffffffffffffffff1673ffffffffffffffffffffffffffffffffffffffff1681526020019081526020016000206000611d2c9190613141565b3373ffffffffffffffffffffffffffffffffffffffff168273ffffffffffffffffffffffffffffffffffffffff167f825c8be24eb0df19500f63e86c29e7d0d951e73056b889b891d85e40938d9b6e60405160405180910390a35050565b6000611d968383612fa6565b905092915050565b60096020528060005260406000206000915054906101000a900460ff1681565b6060600673__$f25c482e92a731d9ed43127d815f1df244$__638f77b68d90916040518263ffffffff1660e01b8152600401611dfa9190614e32565b600060405180830381865af4158015611e17573d6000803e3d6000fd5b505050506040513d6000823e3d601f19601f82011682018060405250810190611e409190614f25565b905090565b600080600360000160008473ffffffffffffffffffffffffffffffffffffffff1673ffffffffffffffffffffffffffffffffffffffff1681526020019081526020016000206040518060a0016040529081600082018054611ea59061480f565b80601f0160208091040260200160405190810160405280929190818152602001828054611ed19061480f565b8015611f1e5780601f10611ef357610100808354040283529160200191611f1e565b820191906000526020600020905b815481529060010190602001808311611f0157829003601f168201915b5050505050815260200160018201548152602001600282018054611f419061480f565b80601f0160208091040260200160405190810160405280929190818152602001828054611f6d9061480f565b8015611fba5780601f10611f8f57610100808354040283529160200191611fba565b820191906000526020600020905b815481529060010190602001808311611f9d57829003601f168201915b50505050508152602001600382018054611fd39061480f565b80601f0160208091040260200160405190810160405280929190818152602001828054611fff9061480f565b801561204c5780601f106120215761010080835404028352916020019161204c565b820191906000526020600020905b81548152906001019060200180831161202f57829003601f168201915b505050505081526020016004820160009054906101000a900460ff161515151581525050905061209c7f0af1dac7dea2fd7f7738119cec7df099dfad49aa9d2e7d17ba6b60f63ae7411f84611d8a565b80156120a9575080608001515b80156120b85750428160200151115b915050919050565b6000600b60003373ffffffffffffffffffffffffffffffffffffffff1673ffffffffffffffffffffffffffffffffffffffff168152602001908152602001600020905060005b81805490508110156122fb578382828154811061212657612125614e03565b5b906000526020600020906007020160000154036122ee57600182828154811061215257612151614e03565b5b906000526020600020906007020160060160006101000a81548160ff02191690831515021790555082600c60003373ffffffffffffffffffffffffffffffffffffffff1673ffffffffffffffffffffffffffffffffffffffff16815260200190815260200160002060008484815481106121cf576121ce614e03565b5b906000526020600020906007020160010160009054906101000a900473ffffffffffffffffffffffffffffffffffffffff1673ffffffffffffffffffffffffffffffffffffffff1673ffffffffffffffffffffffffffffffffffffffff16815260200190815260200160002090816122479190614fd4565b503373ffffffffffffffffffffffffffffffffffffffff1682828154811061227257612271614e03565b5b906000526020600020906007020160010160009054906101000a900473ffffffffffffffffffffffffffffffffffffffff1673ffffffffffffffffffffffffffffffffffffffff16857f734eac5b54039ed4ed359c7034f5c743cbea175340fc22ca139f102119991ce960405160405180910390a45050612337565b8080600101915050612106565b506040517f08c379a000000000000000000000000000000000000000000000000000000000815260040161232e906150f2565b60405180910390fd5b5050565b6000801b81565b7f72606200fac42b7dc86b75901d61ecfab2a4a1a6eded478b97a428094891abed61236c81612f8a565b6123967f0af1dac7dea2fd7f7738119cec7df099dfad49aa9d2e7d17ba6b60f63ae7411f86611d8a565b6123d5576040517f08c379a00000000000000000000000000000000000000000000000000000000081526004016123cc9061515e565b60405180910390fd5b60008211612418576040517f08c379a000000000000000000000000000000000000000000000000000000000815260040161240f906151ca565b60405180910390fd5b6000600173__$fa020a500783576cb949474ac6940fd299$__634f6601e0909188338989896040518763ffffffff1660e01b815260040161245e9695949392919061534e565b602060405180830381865af415801561247b573d6000803e3d6000fd5b505050506040513d601f19601f8201168201806040525081019061249f9190614c85565b90503373ffffffffffffffffffffffffffffffffffffffff168673ffffffffffffffffffffffffffffffffffffffff16827fefe5b72062702550465fdc2e5b73521c231f083cba1fd798d285715f9f483d6e86426124fd9190614b7e565b898960405161250e93929190615474565b60405180910390a4505050505050565b6060600173__$fa020a500783576cb949474ac6940fd299$__63de9d94b89091846040518363ffffffff1660e01b815260040161255c9291906154a6565b600060405180830381865af4158015612579573d6000803e3d6000fd5b505050506040513d6000823e3d601f19601f820116820180604052508101906125a2919061574d565b9050919050565b7f0af1dac7dea2fd7f7738119cec7df099dfad49aa9d2e7d17ba6b60f63ae7411f6125d381612f8a565b600060018001549050600b60008673ffffffffffffffffffffffffffffffffffffffff1673ffffffffffffffffffffffffffffffffffffffff1681526020019081526020016000206040518060e001604052808381526020013373ffffffffffffffffffffffffffffffffffffffff1681526020018773ffffffffffffffffffffffffffffffffffffffff1681526020018681526020018581526020014281526020016000151581525090806001815401808255809150506001900390600052602060002090600702016000909190919091506000820151816000015560208201518160010160006101000a81548173ffffffffffffffffffffffffffffffffffffffff021916908373ffffffffffffffffffffffffffffffffffffffff16021790555060408201518160020160006101000a81548173ffffffffffffffffffffffffffffffffffffffff021916908373ffffffffffffffffffffffffffffffffffffffff16021790555060608201518160030190816127539190615796565b5060808201518160040190816127699190615796565b5060a0820151816005015560c08201518160060160006101000a81548160ff02191690831515021790555050506001800160008154809291906127ab90615868565b91905055508473ffffffffffffffffffffffffffffffffffffffff163373ffffffffffffffffffffffffffffffffffffffff16827fc0d9df9d6d8acee28356fcc24c0de4597104943515c4c0b12fb3d6b1ca74b0ee60405160405180910390a45050505050565b7f72606200fac42b7dc86b75901d61ecfab2a4a1a6eded478b97a428094891abed81565b600173__$fa020a500783576cb949474ac6940fd299$__63cbca4aec909133846040518463ffffffff1660e01b8152600401612874939291906158b0565b60006040518083038186803b15801561288c57600080fd5b505af41580156128a0573d6000803e3d6000fd5b50505050807f91ff4d16576040b78e69b4d9da7512a6b24c63472eb50154802f3e3f4ed5500e60405160405180910390a250565b7fc2d498fa6734073871a6dde33c56174c52423804118e0d5b66171fad3494de6881565b6060600b60008373ffffffffffffffffffffffffffffffffffffffff1673ffffffffffffffffffffffffffffffffffffffff168152602001908152602001600020805480602002602001604051908101604052809291908181526020016000905b82821015612b8a57838290600052602060002090600702016040518060e0016040529081600082015481526020016001820160009054906101000a900473ffffffffffffffffffffffffffffffffffffffff1673ffffffffffffffffffffffffffffffffffffffff1673ffffffffffffffffffffffffffffffffffffffff1681526020016002820160009054906101000a900473ffffffffffffffffffffffffffffffffffffffff1673ffffffffffffffffffffffffffffffffffffffff1673ffffffffffffffffffffffffffffffffffffffff168152602001600382018054612a429061480f565b80601f0160208091040260200160405190810160405280929190818152602001828054612a6e9061480f565b8015612abb5780601f10612a9057610100808354040283529160200191612abb565b820191906000526020600020905b815481529060010190602001808311612a9e57829003601f168201915b50505050508152602001600482018054612ad49061480f565b80601f0160208091040260200160405190810160405280929190818152602001828054612b009061480f565b8015612b4d5780601f10612b2257610100808354040283529160200191612b4d565b820191906000526020600020905b815481529060010190602001808311612b3057829003601f168201915b50505050508152602001600582015481526020016006820160009054906101000a900460ff16151515158152505081526020019060010190612959565b505050509050919050565b6000600673__$f25c482e92a731d9ed43127d815f1df244$__63f3208c1e90916040518263ffffffff1660e01b8152600401612bd19190614e32565b602060405180830381865af4158015612bee573d6000803e3d6000fd5b505050506040513d601f19601f82011682018060405250810190612c129190614c85565b905090565b612c2082610c76565b612c2981612f8a565b612c338383613010565b8173ffffffffffffffffffffffffffffffffffffffff16837fcfb95b05744d1dc2a42dc08bf4bd2ed68f381aeac3c9b1a6250a6120e236ba8860405160405180910390a3505050565b6060600373__$f25c482e92a731d9ed43127d815f1df244$__637e39afd690916040518263ffffffff1660e01b8152600401612cb89190614c6a565b600060405180830381865af4158015612cd5573d6000803e3d6000fd5b505050506040513d6000823e3d601f19601f82011682018060405250810190612cfe9190614f25565b905090565b600e5481565b7f0af1dac7dea2fd7f7738119cec7df099dfad49aa9d2e7d17ba6b60f63ae7411f81565b60007f7965db0b000000000000000000000000000000000000000000000000000000007bffffffffffffffffffffffffffffffffffffffffffffffffffffffff1916827bffffffffffffffffffffffffffffffffffffffffffffffffffffffff19161480612da05750612d9f82613032565b5b9050919050565b6000612db38383611d8a565b15612e8e57600080600085815260200190815260200160002060000160008473ffffffffffffffffffffffffffffffffffffffff1673ffffffffffffffffffffffffffffffffffffffff16815260200190815260200160002060006101000a81548160ff021916908315150217905550612e2b612f9e565b73ffffffffffffffffffffffffffffffffffffffff168273ffffffffffffffffffffffffffffffffffffffff16847ff6391f5c32d9c69d2a47ea670b442974b53935d1edc7fd64eb21e047a839171b60405160405180910390a460019050612e93565b600090505b92915050565b6000612ea58383611d8a565b612f7f57600160008085815260200190815260200160002060000160008473ffffffffffffffffffffffffffffffffffffffff1673ffffffffffffffffffffffffffffffffffffffff16815260200190815260200160002060006101000a81548160ff021916908315150217905550612f1c612f9e565b73ffffffffffffffffffffffffffffffffffffffff168273ffffffffffffffffffffffffffffffffffffffff16847f2f8788117e7eff1d82e926ec794901d17c78024a50270940304540a733656f0d60405160405180910390a460019050612f84565b600090505b92915050565b612f9b81612f96612f9e565b61309c565b50565b600033905090565b600080600084815260200190815260200160002060000160008373ffffffffffffffffffffffffffffffffffffffff1673ffffffffffffffffffffffffffffffffffffffff16815260200190815260200160002060009054906101000a900460ff16905092915050565b61301982610c76565b61302281612f8a565b61302c8383612da7565b50505050565b60007f01ffc9a7000000000000000000000000000000000000000000000000000000007bffffffffffffffffffffffffffffffffffffffffffffffffffffffff1916827bffffffffffffffffffffffffffffffffffffffffffffffffffffffff1916149050919050565b6130a68282611d8a565b6130e95780826040517fe2517d3f0000000000000000000000000000000000000000000000000000000081526004016130e09291906158f6565b60405180910390fd5b5050565b6040518060a00160405280606081526020016000815260200160608152602001606081526020016000151581525090565b604051806060016040528060608152602001606081526020016000151581525090565b50805461314d9061480f565b6000825580601f1061315f575061317e565b601f01602090049060005260206000209081019061317d9190613181565b5b50565b5b8082111561319a576000816000905550600101613182565b5090565b6000604051905090565b600080fd5b600080fd5b60007fffffffff0000000000000000000000000000000000000000000000000000000082169050919050565b6131e7816131b2565b81146131f257600080fd5b50565b600081359050613204816131de565b92915050565b6000602082840312156132205761321f6131a8565b5b600061322e848285016131f5565b91505092915050565b60008115159050919050565b61324c81613237565b82525050565b60006020820190506132676000830184613243565b92915050565b600073ffffffffffffffffffffffffffffffffffffffff82169050919050565b60006132988261326d565b9050919050565b6132a88161328d565b81146132b357600080fd5b50565b6000813590506132c58161329f565b92915050565b6000602082840312156132e1576132e06131a8565b5b60006132ef848285016132b6565b91505092915050565b600080fd5b600080fd5b6000601f19601f8301169050919050565b7f4e487b7100000000000000000000000000000000000000000000000000000000600052604160045260246000fd5b61334b82613302565b810181811067ffffffffffffffff8211171561336a57613369613313565b5b80604052505050565b600061337d61319e565b90506133898282613342565b919050565b600067ffffffffffffffff8211156133a9576133a8613313565b5b6133b282613302565b9050602081019050919050565b82818337600083830152505050565b60006133e16133dc8461338e565b613373565b9050828152602081018484840111156133fd576133fc6132fd565b5b6134088482856133bf565b509392505050565b600082601f830112613425576134246132f8565b5b81356134358482602086016133ce565b91505092915050565b600080600060608486031215613457576134566131a8565b5b6000613465868287016132b6565b935050602084013567ffffffffffffffff811115613486576134856131ad565b5b61349286828701613410565b925050604084013567ffffffffffffffff8111156134b3576134b26131ad565b5b6134bf86828701613410565b9150509250925092565b6000819050919050565b6134dc816134c9565b81146134e757600080fd5b50565b6000813590506134f9816134d3565b92915050565b600060208284031215613515576135146131a8565b5b6000613523848285016134ea565b91505092915050565b613535816134c9565b82525050565b6000602082019050613550600083018461352c565b92915050565b600081519050919050565b600082825260208201905092915050565b60005b83811015613590578082015181840152602081019050613575565b60008484015250505050565b60006135a782613556565b6135b18185613561565b93506135c1818560208601613572565b6135ca81613302565b840191505092915050565b6000819050919050565b6135e8816135d5565b82525050565b6135f781613237565b82525050565b600060a083016000830151848203600086015261361a828261359c565b915050602083015161362f60208601826135df565b5060408301518482036040860152613647828261359c565b91505060608301518482036060860152613661828261359c565b915050608083015161367660808601826135ee565b508091505092915050565b6000602082019050818103600083015261369b81846135fd565b905092915050565b600080604083850312156136ba576136b96131a8565b5b60006136c8858286016134ea565b92505060206136d9858286016132b6565b9150509250929050565b6136ec816135d5565b81146136f757600080fd5b50565b600081359050613709816136e3565b92915050565b600080600080600060a0868803121561372b5761372a6131a8565b5b6000613739888289016132b6565b955050602086013567ffffffffffffffff81111561375a576137596131ad565b5b61376688828901613410565b9450506040613777888289016136fa565b935050606086013567ffffffffffffffff811115613798576137976131ad565b5b6137a488828901613410565b925050608086013567ffffffffffffffff8111156137c5576137c46131ad565b5b6137d188828901613410565b9150509295509295909350565b600080fd5b600080fd5b60008083601f8401126137fe576137fd6132f8565b5b8235905067ffffffffffffffff81111561381b5761381a6137de565b5b602083019150836001820283011115613837576138366137e3565b5b9250929050565b60008060208385031215613855576138546131a8565b5b600083013567ffffffffffffffff811115613873576138726131ad565b5b61387f858286016137e8565b92509250509250929050565b6000602082840312156138a1576138a06131a8565b5b60006138af848285016136fa565b91505092915050565b600080604083850312156138cf576138ce6131a8565b5b60006138dd858286016136fa565b92505060206138ee858286016136fa565b9150509250929050565b600082825260208201905092915050565b600061391482613556565b61391e81856138f8565b935061392e818560208601613572565b61393781613302565b840191505092915050565b6000602082019050818103600083015261395c8184613909565b905092915050565b61396d816135d5565b82525050565b60006020820190506139886000830184613964565b92915050565b600060608301600083015184820360008601526139ab828261359c565b915050602083015184820360208601526139c5828261359c565b91505060408301516139da60408601826135ee565b508091505092915050565b600060208201905081810360008301526139ff818461398e565b905092915050565b600081519050919050565b600082825260208201905092915050565b6000819050602082019050919050565b613a3c8161328d565b82525050565b6000613a4e8383613a33565b60208301905092915050565b6000602082019050919050565b6000613a7282613a07565b613a7c8185613a12565b9350613a8783613a23565b8060005b83811015613ab8578151613a9f8882613a42565b9750613aaa83613a5a565b925050600181019050613a8b565b5085935050505092915050565b60006020820190508181036000830152613adf8184613a67565b905092915050565b600067ffffffffffffffff821115613b0257613b01613313565b5b613b0b82613302565b9050602081019050919050565b6000613b2b613b2684613ae7565b613373565b905082815260208101848484011115613b4757613b466132fd565b5b613b528482856133bf565b509392505050565b600082601f830112613b6f57613b6e6132f8565b5b8135613b7f848260208601613b18565b91505092915050565b60008060408385031215613b9f57613b9e6131a8565b5b6000613bad858286016136fa565b925050602083013567ffffffffffffffff811115613bce57613bcd6131ad565b5b613bda85828601613b5a565b9150509250929050565b60008083601f840112613bfa57613bf96132f8565b5b8235905067ffffffffffffffff811115613c1757613c166137de565b5b602083019150836020820283011115613c3357613c326137e3565b5b9250929050565b60008060008060608587031215613c5457613c536131a8565b5b6000613c62878288016132b6565b945050602085013567ffffffffffffffff811115613c8357613c826131ad565b5b613c8f87828801613be4565b93509350506040613ca2878288016136fa565b91505092959194509250565b600081519050919050565b600082825260208201905092915050565b6000819050602082019050919050565b600081519050919050565b600082825260208201905092915050565b6000819050602082019050919050565b6000613d12838361359c565b905092915050565b6000602082019050919050565b6000613d3282613cda565b613d3c8185613ce5565b935083602082028501613d4e85613cf6565b8060005b85811015613d8a5784840389528151613d6b8582613d06565b9450613d7683613d1a565b925060208a01995050600181019050613d52565b50829750879550505050505092915050565b600060c083016000830151613db460008601826135df565b506020830151613dc76020860182613a33565b506040830151613dda6040860182613a33565b506060830151613ded60608601826135df565b5060808301518482036080860152613e058282613d27565b91505060a0830151613e1a60a08601826135ee565b508091505092915050565b6000613e318383613d9c565b905092915050565b6000602082019050919050565b6000613e5182613cae565b613e5b8185613cb9565b935083602082028501613e6d85613cca565b8060005b85811015613ea95784840389528151613e8a8582613e25565b9450613e9583613e39565b925060208a01995050600181019050613e71565b50829750879550505050505092915050565b60006020820190508181036000830152613ed58184613e46565b905092915050565b600081519050919050565b600082825260208201905092915050565b6000819050602082019050919050565b600060e083016000830151613f2160008601826135df565b506020830151613f346020860182613a33565b506040830151613f476040860182613a33565b5060608301518482036060860152613f5f828261359c565b91505060808301518482036080860152613f79828261359c565b91505060a0830151613f8e60a08601826135df565b5060c0830151613fa160c08601826135ee565b508091505092915050565b6000613fb88383613f09565b905092915050565b6000602082019050919050565b6000613fd882613edd565b613fe28185613ee8565b935083602082028501613ff485613ef9565b8060005b8581101561403057848403895281516140118582613fac565b945061401c83613fc0565b925060208a01995050600181019050613ff8565b50829750879550505050505092915050565b6000602082019050818103600083015261405c8184613fcd565b905092915050565b7f43616c6c6572206973206e6f7420616e2041646d696e00000000000000000000600082015250565b600061409a6016836138f8565b91506140a582614064565b602082019050919050565b600060208201905081810360008301526140c98161408d565b9050919050565b7f436f6e7472616374207061757365640000000000000000000000000000000000600082015250565b6000614106600f836138f8565b9150614111826140d0565b602082019050919050565b60006020820190508181036000830152614135816140f9565b9050919050565b8082525050565b61414c8161328d565b82525050565b6000604082019050614167600083018561413c565b6141746020830184614143565b9392505050565b7f496e76616c696420416464726573730000000000000000000000000000000000600082015250565b60006141b1600f836138f8565b91506141bc8261417b565b602082019050919050565b600060208201905081810360008301526141e0816141a4565b9050919050565b7f506861726d616369737420616c72656164792052656769737465726564000000600082015250565b600061421d601d836138f8565b9150614228826141e7565b602082019050919050565b6000602082019050818103600083015261424c81614210565b9050919050565b8082525050565b600082825260208201905092915050565b600061427682613556565b614280818561425a565b9350614290818560208601613572565b61429981613302565b840191505092915050565b60006080820190506142b96000830187614253565b6142c66020830186614143565b81810360408301526142d8818561426b565b905081810360608301526142ec818461426b565b905095945050505050565b600080fd5b600080fd5b600061431461430f8461338e565b613373565b9050828152602081018484840111156143305761432f6132fd565b5b61433b848285613572565b509392505050565b600082601f830112614358576143576132f8565b5b8151614368848260208601614301565b91505092915050565b600081519050614380816136e3565b92915050565b61438f81613237565b811461439a57600080fd5b50565b6000815190506143ac81614386565b92915050565b600060a082840312156143c8576143c76142f7565b5b6143d260a0613373565b9050600082015167ffffffffffffffff8111156143f2576143f16142fc565b5b6143fe84828501614343565b600083015250602061441284828501614371565b602083015250604082015167ffffffffffffffff811115614436576144356142fc565b5b61444284828501614343565b604083015250606082015167ffffffffffffffff811115614466576144656142fc565b5b61447284828501614343565b60608301525060806144868482850161439d565b60808301525092915050565b6000602082840312156144a8576144a76131a8565b5b600082015167ffffffffffffffff8111156144c6576144c56131ad565b5b6144d2848285016143b2565b91505092915050565b60006040820190506144f06000830185614253565b6144fd6020830184614143565b9392505050565b7f4c6963656e736520457870697265640000000000000000000000000000000000600082015250565b600061453a600f836138f8565b915061454582614504565b602082019050919050565b600060208201905081810360008301526145698161452d565b9050919050565b7f496e76616c6964204c6963656e73650000000000000000000000000000000000600082015250565b60006145a6600f836138f8565b91506145b182614570565b602082019050919050565b600060208201905081810360008301526145d581614599565b9050919050565b7f4e616d6520726571756972656400000000000000000000000000000000000000600082015250565b6000614612600d836138f8565b915061461d826145dc565b602082019050919050565b6000602082019050818103600083015261464181614605565b9050919050565b7f5370656369616c697a6174696f6e207265717569726564000000000000000000600082015250565b600061467e6017836138f8565b915061468982614648565b602082019050919050565b600060208201905081810360008301526146ad81614671565b9050919050565b7f446f63746f7220616c7265616479207265676973746572656400000000000000600082015250565b60006146ea6019836138f8565b91506146f5826146b4565b602082019050919050565b60006020820190508181036000830152614719816146dd565b9050919050565b614729816135d5565b82525050565b600060c082019050614744600083018961413c565b6147516020830188614143565b8181036040830152614763818761426b565b90506147726060830186614720565b8181036080830152614784818561426b565b905081810360a0830152614798818461426b565b9050979650505050505050565b600060408201905081810360008301526147bf8185613909565b90506147ce6020830184613964565b9392505050565b600082905092915050565b7f4e487b7100000000000000000000000000000000000000000000000000000000600052602260045260246000fd5b6000600282049050600182168061482757607f821691505b60208210810361483a576148396147e0565b5b50919050565b60008190508160005260206000209050919050565b60006020601f8301049050919050565b600082821b905092915050565b6000600883026148a27fffffffffffffffffffffffffffffffffffffffffffffffffffffffffffffffff82614865565b6148ac8683614865565b95508019841693508086168417925050509392505050565b6000819050919050565b60006148e96148e46148df846135d5565b6148c4565b6135d5565b9050919050565b6000819050919050565b614903836148ce565b61491761490f826148f0565b848454614872565b825550505050565b600090565b61492c61491f565b6149378184846148fa565b505050565b5b8181101561495b57614950600082614924565b60018101905061493d565b5050565b601f8211156149a05761497181614840565b61497a84614855565b81016020851015614989578190505b61499d61499585614855565b83018261493c565b50505b505050565b600082821c905092915050565b60006149c3600019846008026149a5565b1980831691505092915050565b60006149dc83836149b2565b9150826002028217905092915050565b6149f683836147d5565b67ffffffffffffffff811115614a0f57614a0e613313565b5b614a19825461480f565b614a2482828561495f565b6000601f831160018114614a535760008415614a41578287013590505b614a4b85826149d0565b865550614ab3565b601f198416614a6186614840565b60005b82811015614a8957848901358255600182019150602085019450602081019050614a64565b86831015614aa65784890135614aa2601f8916826149b2565b8355505b6001600288020188555050505b50505050505050565b6000614ac883856138f8565b9350614ad58385846133bf565b614ade83613302565b840190509392505050565b60006020820190508181036000830152614b04818486614abc565b90509392505050565b7f4e487b7100000000000000000000000000000000000000000000000000000000600052601160045260246000fd5b6000614b47826135d5565b9150614b52836135d5565b9250828202614b60816135d5565b91508282048414831517614b7757614b76614b0d565b5b5092915050565b6000614b89826135d5565b9150614b94836135d5565b9250828201905080821115614bac57614bab614b0d565b5b92915050565b8082525050565b6000608082019050614bce6000830187614bb2565b614bdb6020830186614143565b614be86040830185614720565b614bf56060830184614720565b95945050505050565b7f4e6f206163636573730000000000000000000000000000000000000000000000600082015250565b6000614c346009836138f8565b9150614c3f82614bfe565b602082019050919050565b60006020820190508181036000830152614c6381614c27565b9050919050565b6000602082019050614c7f600083018461413c565b92915050565b600060208284031215614c9b57614c9a6131a8565b5b6000614ca984828501614371565b91505092915050565b7f50617469656e7420616c72656164792072656769737465726564000000000000600082015250565b6000614ce8601a836138f8565b9150614cf382614cb2565b602082019050919050565b60006020820190508181036000830152614d1781614cdb565b9050919050565b600060608284031215614d3457614d336142f7565b5b614d3e6060613373565b9050600082015167ffffffffffffffff811115614d5e57614d5d6142fc565b5b614d6a84828501614343565b600083015250602082015167ffffffffffffffff811115614d8e57614d8d6142fc565b5b614d9a84828501614343565b6020830152506040614dae8482850161439d565b60408301525092915050565b600060208284031215614dd057614dcf6131a8565b5b600082015167ffffffffffffffff811115614dee57614ded6131ad565b5b614dfa84828501614d1e565b91505092915050565b7f4e487b7100000000000000000000000000000000000000000000000000000000600052603260045260246000fd5b6000602082019050614e476000830184614253565b92915050565b600067ffffffffffffffff821115614e6857614e67613313565b5b602082029050602081019050919050565b600081519050614e888161329f565b92915050565b6000614ea1614e9c84614e4d565b613373565b90508083825260208201905060208402830185811115614ec457614ec36137e3565b5b835b81811015614eed5780614ed98882614e79565b845260208401935050602081019050614ec6565b5050509392505050565b600082601f830112614f0c57614f0b6132f8565b5b8151614f1c848260208601614e8e565b91505092915050565b600060208284031215614f3b57614f3a6131a8565b5b600082015167ffffffffffffffff811115614f5957614f586131ad565b5b614f6584828501614ef7565b91505092915050565b600081519050919050565b60008190508160005260206000209050919050565b601f821115614fcf57614fa081614f79565b614fa984614855565b81016020851015614fb8578190505b614fcc614fc485614855565b83018261493c565b50505b505050565b614fdd82614f6e565b67ffffffffffffffff811115614ff657614ff5613313565b5b615000825461480f565b61500b828285614f8e565b600060209050601f83116001811461503e576000841561502c578287015190505b61503685826149d0565b86555061509e565b601f19841661504c86614f79565b60005b828110156150745784890151825560018201915060208501945060208101905061504f565b86831015615091578489015161508d601f8916826149b2565b8355505b6001600288020188555050505b505050505050565b7f52657175657374206e6f7420666f756e64000000000000000000000000000000600082015250565b60006150dc6011836138f8565b91506150e7826150a6565b602082019050919050565b6000602082019050818103600083015261510b816150cf565b9050919050565b7f4e6f7420612076616c696420646f63746f720000000000000000000000000000600082015250565b60006151486012836138f8565b915061515382615112565b602082019050919050565b600060208201905081810360008301526151778161513b565b9050919050565b7f4475726174696f6e206d75737420626520706f73697469766500000000000000600082015250565b60006151b46019836138f8565b91506151bf8261517e565b602082019050919050565b600060208201905081810360008301526151e3816151a7565b9050919050565b600082825260208201905092915050565b6000819050919050565b600082825260208201905092915050565b60006152228385615205565b935061522f8385846133bf565b61523883613302565b840190509392505050565b6000615250848484615216565b90509392505050565b600080fd5b600080fd5b600080fd5b6000808335600160200384360303811261528557615284615263565b5b83810192508235915060208301925067ffffffffffffffff8211156152ad576152ac615259565b5b6001820236038313156152c3576152c261525e565b5b509250929050565b6000602082019050919050565b60006152e483856151ea565b9350836020840285016152f6846151fb565b8060005b8781101561533c5784840389526153118284615268565b61531c868284615243565b9550615327846152cb565b935060208b019a5050506001810190506152fa565b50829750879450505050509392505050565b600060a0820190506153636000830189614bb2565b6153706020830188614143565b61537d6040830187614143565b81810360608301526153908185876152d8565b905061539f6080830184614720565b979650505050505050565b600082825260208201905092915050565b60006153c78385613561565b93506153d48385846133bf565b6153dd83613302565b840190509392505050565b60006153f58484846153bb565b90509392505050565b600061540a83856153aa565b93508360208402850161541c846151fb565b8060005b878110156154625784840389526154378284615268565b6154428682846153e8565b955061544d846152cb565b935060208b019a505050600181019050615420565b50829750879450505050509392505050565b60006040820190506154896000830186613964565b818103602083015261549c8184866153fe565b9050949350505050565b60006040820190506154bb6000830185614bb2565b6154c86020830184614143565b9392505050565b600067ffffffffffffffff8211156154ea576154e9613313565b5b602082029050602081019050919050565b600067ffffffffffffffff82111561551657615515613313565b5b602082029050602081019050919050565b600061553a615535846154fb565b613373565b9050808382526020820190506020840283018581111561555d5761555c6137e3565b5b835b818110156155a457805167ffffffffffffffff811115615582576155816132f8565b5b80860161558f8982614343565b8552602085019450505060208101905061555f565b5050509392505050565b600082601f8301126155c3576155c26132f8565b5b81516155d3848260208601615527565b91505092915050565b600060c082840312156155f2576155f16142f7565b5b6155fc60c0613373565b9050600061560c84828501614371565b600083015250602061562084828501614e79565b602083015250604061563484828501614e79565b604083015250606061564884828501614371565b606083015250608082015167ffffffffffffffff81111561566c5761566b6142fc565b5b615678848285016155ae565b60808301525060a061568c8482850161439d565b60a08301525092915050565b60006156ab6156a6846154cf565b613373565b905080838252602082019050602084028301858111156156ce576156cd6137e3565b5b835b8181101561571557805167ffffffffffffffff8111156156f3576156f26132f8565b5b80860161570089826155dc565b855260208501945050506020810190506156d0565b5050509392505050565b600082601f830112615734576157336132f8565b5b8151615744848260208601615698565b91505092915050565b600060208284031215615763576157626131a8565b5b600082015167ffffffffffffffff811115615781576157806131ad565b5b61578d8482850161571f565b91505092915050565b61579f82613556565b67ffffffffffffffff8111156157b8576157b7613313565b5b6157c2825461480f565b6157cd82828561495f565b600060209050601f83116001811461580057600084156157ee578287015190505b6157f885826149d0565b865550615860565b601f19841661580e86614840565b60005b8281101561583657848901518255600182019150602085019450602081019050615811565b86831015615853578489015161584f601f8916826149b2565b8355505b6001600288020188555050505b505050505050565b6000615873826135d5565b91507fffffffffffffffffffffffffffffffffffffffffffffffffffffffffffffffff82036158a5576158a4614b0d565b5b600182019050919050565b60006060820190506158c56000830186614bb2565b6158d26020830185614143565b6158df6040830184614720565b949350505050565b6158f08161328d565b82525050565b600060408201905061590b60008301856158e7565b615918602083018461352c565b939250505056fea26469706673582212208d77998bb71c05f688bc71e28fbf820192b47bdc01096c84e3d1ce82bd7bba6e64736f6c634300081c0033",
  "libraries": {
    "PermissionsLib": "0x5FbDB2315678afecb367f032d93F642f64180aa3",
    "RegistryLib": "0xe7f1725E7734CE288F8367e1Bb143E90bb3F0512"
  },
  "devdoc": {
    "errors": {
      "AccessControlBadConfirmation()": [
        {
          "details": "The caller of a function is not the expected one. NOTE: Don't confuse with {AccessControlUnauthorizedAccount}."
        }
      ],
      "AccessControlUnauthorizedAccount(address,bytes32)": [
        {
          "details": "The `account` is missing a role."
        }
      ]
    },
    "events": {
      "RoleAdminChanged(bytes32,bytes32,bytes32)": {
        "details": "Emitted when `newAdminRole` is set as ``role``'s admin role, replacing `previousAdminRole` `DEFAULT_ADMIN_ROLE` is the starting admin for all roles, despite {RoleAdminChanged} not being emitted to signal this."
      },
      "RoleGranted(bytes32,address,address)": {
        "details": "Emitted when `account` is granted `role`. `sender` is the account that originated the contract call. This account bears the admin role (for the granted role). Expected in cases where the role was granted using the internal {AccessControl-_grantRole}."
      },
      "RoleRevoked(bytes32,address,address)": {
        "details": "Emitted when `account` is revoked `role`. `sender` is the account that originated the contract call:   - if using `revokeRole`, it is the admin role bearer   - if using `renounceRole`, it is the role bearer (i.e. `account`)"
      }
    },
    "kind": "dev",
    "methods": {
      "getRoleAdmin(bytes32)": {
        "details": "Returns the admin role that controls `role`. See {grantRole} and {revokeRole}. To change a role's admin, use {_setRoleAdmin}."
      },
      "grantRole(bytes32,address)": {
        "details": "Grants `role` to `account`. If `account` had not been already granted `role`, emits a {RoleGranted} event. Requirements: - the caller must have ``role``'s admin role. May emit a {RoleGranted} event."
      },
      "renounceRole(bytes32,address)": {
        "details": "Revokes `role` from the calling account. Roles are often managed via {grantRole} and {revokeRole}: this function's purpose is to provide a mechanism for accounts to lose their privileges if they are compromised (such as when a trusted device is misplaced). If the calling account had been revoked `role`, emits a {RoleRevoked} event. Requirements: - the caller must be `callerConfirmation`. May emit a {RoleRevoked} event."
      },
      "revokeRole(bytes32,address)": {
        "details": "Revokes `role` from `account`. If `account` had been granted `role`, emits a {RoleRevoked} event. Requirements: - the caller must have ``role``'s admin role. May emit a {RoleRevoked} event."
      },
      "supportsInterface(bytes4)": {
        "details": "See {IERC165-supportsInterface}."
      }
    },
    "version": 1
  },
  "userdoc": {
    "kind": "user",
    "methods": {},
    "version": 1
  },
  "storageLayout": {
    "storage": [
      {
        "astId": 26,
        "contract": "contracts/access/MedicalAccess.sol:MedicalAccess",
        "label": "_roles",
        "offset": 0,
        "slot": "0",
        "type": "t_mapping(t_bytes32,t_struct(RoleData)21_storage)"
      },
      {
        "astId": 493,
        "contract": "contracts/access/MedicalAccess.sol:MedicalAccess",
        "label": "permissions",
        "offset": 0,
        "slot": "1",
        "type": "t_struct(AccessPermissionStorage)1782_storage"
      },
      {
        "astId": 496,
        "contract": "contracts/access/MedicalAccess.sol:MedicalAccess",
        "label": "doctors",
        "offset": 0,
        "slot": "3",
        "type": "t_struct(DoctorRegistry)2090_storage"
      },
      {
        "astId": 499,
        "contract": "contracts/access/MedicalAccess.sol:MedicalAccess",
        "label": "pharmacists",
        "offset": 0,
        "slot": "6",
        "type": "t_struct(PharmacistRegistry)2103_storage"
      },
      {
        "astId": 503,
        "contract": "contracts/access/MedicalAccess.sol:MedicalAccess",
        "label": "patientRegistry",
        "offset": 0,
        "slot": "9",
        "type": "t_mapping(t_address,t_bool)"
      },
      {
        "astId": 507,
        "contract": "contracts/access/MedicalAccess.sol:MedicalAccess",
        "label": "patientDataCIDs",
        "offset": 0,
        "slot": "10",
        "type": "t_mapping(t_address,t_string_storage)"
      },
      {
        "astId": 513,
        "contract": "contracts/access/MedicalAccess.sol:MedicalAccess",
        "label": "accessRequests",
        "offset": 0,
        "slot": "11",
        "type": "t_mapping(t_address,t_array(t_struct(AccessRequest)1487_storage)dyn_storage)"
      },
      {
        "astId": 519,
        "contract": "contracts/access/MedicalAccess.sol:MedicalAccess",
        "label": "accessKeys",
        "offset": 0,
        "slot": "12",
        "type": "t_mapping(t_address,t_mapping(t_address,t_bytes_storage))"
      },
      {
        "astId": 522,
        "contract": "contracts/access/MedicalAccess.sol:MedicalAccess",
        "label": "emergencyPause",
        "offset": 0,
        "slot": "13",
        "type": "t_bool"
      },
      {
        "astId": 524,
        "contract": "contracts/access/MedicalAccess.sol:MedicalAccess",
        "label": "pauseExpiry",
        "offset": 0,
        "slot": "14",
        "type": "t_uint256"
      }
    ],
    "types": {
      "t_address": {
        "encoding": "inplace",
        "label": "address",
        "numberOfBytes": "20"
      },
      "t_array(t_address)dyn_storage": {
        "base": "t_address",
        "encoding": "dynamic_array",
        "label": "address[]",
        "numberOfBytes": "32"
      },
      "t_array(t_string_storage)dyn_storage": {
        "base": "t_string_storage",
        "encoding": "dynamic_array",
        "label": "string[]",
        "numberOfBytes": "32"
      },
      "t_array(t_struct(AccessPermission)1446_storage)dyn_storage": {
        "base": "t_struct(AccessPermission)1446_storage",
        "encoding": "dynamic_array",
        "label": "struct IMedicalAccess.AccessPermission[]",
        "numberOfBytes": "32"
      },
      "t_array(t_struct(AccessRequest)1487_storage)dyn_storage": {
        "base": "t_struct(AccessRequest)1487_storage",
        "encoding": "dynamic_array",
        "label": "struct IMedicalAccess.AccessRequest[]",
        "numberOfBytes": "32"
      },
      "t_bool": {
        "encoding": "inplace",
        "label": "bool",
        "numberOfBytes": "1"
      },
      "t_bytes32": {
        "encoding": "inplace",
        "label": "bytes32",
        "numberOfBytes": "32"
      },
      "t_bytes_storage": {
        "encoding": "bytes",
        "label": "bytes",
        "numberOfBytes": "32"
      },
      "t_mapping(t_address,t_array(t_struct(AccessPermission)1446_storage)dyn_storage)": {
        "encoding": "mapping",
        "key": "t_address",
        "label": "mapping(address => struct IMedicalAccess.AccessPermission[])",
        "numberOfBytes": "32",
        "value": "t_array(t_struct(AccessPermission)1446_storage)dyn_storage"
      },
      "t_mapping(t_address,t_array(t_struct(AccessRequest)1487_storage)dyn_storage)": {
        "encoding": "mapping",
        "key": "t_address",
        "label": "mapping(address => struct IMedicalAccess.AccessRequest[])",
        "numberOfBytes": "32",
        "value": "t_array(t_struct(AccessRequest)1487_storage)dyn_storage"
      },
      "t_mapping(t_address,t_bool)": {
        "encoding": "mapping",
        "key": "t_address",
        "label": "mapping(address => bool)",
        "numberOfBytes": "32",
        "value": "t_bool"
      },
      "t_mapping(t_address,t_bytes_storage)": {
        "encoding": "mapping",
        "key": "t_address",
        "label": "mapping(address => bytes)",
        "numberOfBytes": "32",
        "value": "t_bytes_storage"
      },
      "t_mapping(t_address,t_mapping(t_address,t_bytes_storage))": {
        "encoding": "mapping",
        "key": "t_address",
        "label": "mapping(address => mapping(address => bytes))",
        "numberOfBytes": "32",
        "value": "t_mapping(t_address,t_bytes_storage)"
      },
      "t_mapping(t_address,t_string_storage)": {
        "encoding": "mapping",
        "key": "t_address",
        "label": "mapping(address => string)",
        "numberOfBytes": "32",
        "value": "t_string_storage"
      },
      "t_mapping(t_address,t_struct(DoctorProfile)1457_storage)": {
        "encoding": "mapping",
        "key": "t_address",
        "label": "mapping(address => struct IMedicalAccess.DoctorProfile)",
        "numberOfBytes": "32",
        "value": "t_struct(DoctorProfile)1457_storage"
      },
      "t_mapping(t_address,t_struct(PharmacistProfile)1464_storage)": {
        "encoding": "mapping",
        "key": "t_address",
        "label": "mapping(address => struct IMedicalAccess.PharmacistProfile)",
        "numberOfBytes": "32",
        "value": "t_struct(PharmacistProfile)1464_storage"
      },
      "t_mapping(t_address,t_uint256)": {
        "encoding": "mapping",
        "key": "t_address",
        "label": "mapping(address => uint256)",
        "numberOfBytes": "32",
        "value": "t_uint256"
      },
      "t_mapping(t_bytes32,t_struct(RoleData)21_storage)": {
        "encoding": "mapping",
        "key": "t_bytes32",
        "label": "mapping(bytes32 => struct AccessControl.RoleData)",
        "numberOfBytes": "32",
        "value": "t_struct(RoleData)21_storage"
      },
      "t_string_storage": {
        "encoding": "bytes",
        "label": "string",
        "numberOfBytes": "32"
      },
      "t_struct(AccessPermission)1446_storage": {
        "encoding": "inplace",
        "label": "struct IMedicalAccess.AccessPermission",
        "members": [
          {
            "astId": 1434,
            "contract": "contracts/access/MedicalAccess.sol:MedicalAccess",
            "label": "requestId",
            "offset": 0,
            "slot": "0",
            "type": "t_uint256"
          },
          {
            "astId": 1436,
            "contract": "contracts/access/MedicalAccess.sol:MedicalAccess",
            "label": "doctor",
            "offset": 0,
            "slot": "1",
            "type": "t_address"
          },
          {
            "astId": 1438,
            "contract": "contracts/access/MedicalAccess.sol:MedicalAccess",
            "label": "patient",
            "offset": 0,
            "slot": "2",
            "type": "t_address"
          },
          {
            "astId": 1440,
            "contract": "contracts/access/MedicalAccess.sol:MedicalAccess",
            "label": "expiryTime",
            "offset": 0,
            "slot": "3",
            "type": "t_uint256"
          },
          {
            "astId": 1443,
            "contract": "contracts/access/MedicalAccess.sol:MedicalAccess",
            "label": "dataFields",
            "offset": 0,
            "slot": "4",
            "type": "t_array(t_string_storage)dyn_storage"
          },
          {
            "astId": 1445,
            "contract": "contracts/access/MedicalAccess.sol:MedicalAccess",
            "label": "isActive",
            "offset": 0,
            "slot": "5",
            "type": "t_bool"
          }
        ],
        "numberOfBytes": "192"
      },
      "t_struct(AccessPermissionStorage)1782_storage": {
        "encoding": "inplace",
        "label": "struct PermissionsLib.AccessPermissionStorage",
        "members": [
          {
            "astId": 1779,
            "contract": "contracts/access/MedicalAccess.sol:MedicalAccess",
            "label": "patientPermissions",
            "offset": 0,
            "slot": "0",
            "type": "t_mapping(t_address,t_array(t_struct(AccessPermission)1446_storage)dyn_storage)"
          },
          {
            "astId": 1781,
            "contract": "contracts/access/MedicalAccess.sol:MedicalAccess",
            "label": "nextRequestId",
            "offset": 0,
            "slot": "1",
            "type": "t_uint256"
          }
        ],
        "numberOfBytes": "64"
      },
      "t_struct(AccessRequest)1487_storage": {
        "encoding": "inplace",
        "label": "struct IMedicalAccess.AccessRequest",
        "members": [
          {
            "astId": 1474,
            "contract": "contracts/access/MedicalAccess.sol:MedicalAccess",
            "label": "id",
            "offset": 0,
            "slot": "0",
            "type": "t_uint256"
          },
          {
            "astId": 1476,
            "contract": "contracts/access/MedicalAccess.sol:MedicalAccess",
            "label": "doctor",
            "offset": 0,
            "slot": "1",
            "type": "t_address"
          },
          {
            "astId": 1478,
            "contract": "contracts/access/MedicalAccess.sol:MedicalAccess",
            "label": "patient",
            "offset": 0,
            "slot": "2",
            "type": "t_address"
          },
          {
            "astId": 1480,
            "contract": "contracts/access/MedicalAccess.sol:MedicalAccess",
            "label": "doctorName",
            "offset": 0,
            "slot": "3",
            "type": "t_string_storage"
          },
          {
            "astId": 1482,
            "contract": "contracts/access/MedicalAccess.sol:MedicalAccess",
            "label": "hospital",
            "offset": 0,
            "slot": "4",
            "type": "t_string_storage"
          },
          {
            "astId": 1484,
            "contract": "contracts/access/MedicalAccess.sol:MedicalAccess",
            "label": "timestamp",
            "offset": 0,
            "slot": "5",
            "type": "t_uint256"
          },
          {
            "astId": 1486,
            "contract": "contracts/access/MedicalAccess.sol:MedicalAccess",
            "label": "fulfilled",
            "offset": 0,
            "slot": "6",
            "type": "t_bool"
          }
        ],
        "numberOfBytes": "224"
      },
      "t_struct(DoctorProfile)1457_storage": {
        "encoding": "inplace",
        "label": "struct IMedicalAccess.DoctorProfile",
        "members": [
          {
            "astId": 1448,
            "contract": "contracts/access/MedicalAccess.sol:MedicalAccess",
            "label": "licenseHash",
            "offset": 0,
            "slot": "0",
            "type": "t_string_storage"
          },
          {
            "astId": 1450,
            "contract": "contracts/access/MedicalAccess.sol:MedicalAccess",
            "label": "expiryDate",
            "offset": 0,
            "slot": "1",
            "type": "t_uint256"
          },
          {
            "astId": 1452,
            "contract": "contracts/access/MedicalAccess.sol:MedicalAccess",
            "label": "name",
            "offset": 0,
            "slot": "2",
            "type": "t_string_storage"
          },
          {
            "astId": 1454,
            "contract": "contracts/access/MedicalAccess.sol:MedicalAccess",
            "label": "specialization",
            "offset": 0,
            "slot": "3",
            "type": "t_string_storage"
          },
          {
            "astId": 1456,
            "contract": "contracts/access/MedicalAccess.sol:MedicalAccess",
            "label": "isActive",
            "offset": 0,
            "slot": "4",
            "type": "t_bool"
          }
        ],
        "numberOfBytes": "160"
      },
      "t_struct(DoctorRegistry)2090_storage": {
        "encoding": "inplace",
        "label": "struct RegistryLib.DoctorRegistry",
        "members": [
          {
            "astId": 2082,
            "contract": "contracts/access/MedicalAccess.sol:MedicalAccess",
            "label": "doctorRegistry",
            "offset": 0,
            "slot": "0",
            "type": "t_mapping(t_address,t_struct(DoctorProfile)1457_storage)"
          },
          {
            "astId": 2086,
            "contract": "contracts/access/MedicalAccess.sol:MedicalAccess",
            "label": "doctorIndex",
            "offset": 0,
            "slot": "1",
            "type": "t_mapping(t_address,t_uint256)"
          },
          {
            "astId": 2089,
            "contract": "contracts/access/MedicalAccess.sol:MedicalAccess",
            "label": "doctorList",
            "offset": 0,
            "slot": "2",
            "type": "t_array(t_address)dyn_storage"
          }
        ],
        "numberOfBytes": "96"
      },
      "t_struct(PharmacistProfile)1464_storage": {
        "encoding": "inplace",
        "label": "struct IMedicalAccess.PharmacistProfile",
        "members": [
          {
            "astId": 1459,
            "contract": "contracts/access/MedicalAccess.sol:MedicalAccess",
            "label": "pharmacyId",
            "offset": 0,
            "slot": "0",
            "type": "t_string_storage"
          },
          {
            "astId": 1461,
            "contract": "contracts/access/MedicalAccess.sol:MedicalAccess",
            "label": "pharmacyName",
            "offset": 0,
            "slot": "1",
            "type": "t_string_storage"
          },
          {
            "astId": 1463,
            "contract": "contracts/access/MedicalAccess.sol:MedicalAccess",
            "label": "isVerified",
            "offset": 0,
            "slot": "2",
            "type": "t_bool"
          }
        ],
        "numberOfBytes": "96"
      },
      "t_struct(PharmacistRegistry)2103_storage": {
        "encoding": "inplace",
        "label": "struct RegistryLib.PharmacistRegistry",
        "members": [
          {
            "astId": 2095,
            "contract": "contracts/access/MedicalAccess.sol:MedicalAccess",
            "label": "pharmacistRegistry",
            "offset": 0,
            "slot": "0",
            "type": "t_mapping(t_address,t_struct(PharmacistProfile)1464_storage)"
          },
          {
            "astId": 2099,
            "contract": "contracts/access/MedicalAccess.sol:MedicalAccess",
            "label": "pharmacistIndex",
            "offset": 0,
            "slot": "1",
            "type": "t_mapping(t_address,t_uint256)"
          },
          {
            "astId": 2102,
            "contract": "contracts/access/MedicalAccess.sol:MedicalAccess",
            "label": "pharmacistList",
            "offset": 0,
            "slot": "2",
            "type": "t_array(t_address)dyn_storage"
          }
        ],
        "numberOfBytes": "96"
      },
      "t_struct(RoleData)21_storage": {
        "encoding": "inplace",
        "label": "struct AccessControl.RoleData",
        "members": [
          {
            "astId": 18,
            "contract": "contracts/access/MedicalAccess.sol:MedicalAccess",
            "label": "hasRole",
            "offset": 0,
            "slot": "0",
            "type": "t_mapping(t_address,t_bool)"
          },
          {
            "astId": 20,
            "contract": "contracts/access/MedicalAccess.sol:MedicalAccess",
            "label": "adminRole",
            "offset": 0,
            "slot": "1",
            "type": "t_bytes32"
          }
        ],
        "numberOfBytes": "64"
      },
      "t_uint256": {
        "encoding": "inplace",
        "label": "uint256",
        "numberOfBytes": "32"
      }
    }
  }
}