{
  "address": "0xDc64a140Aa3E981100a9becA4E685f962f0cF6C9",
  "abi": [
    {
      "inputs": [
        {
          "internalType": "address",
          "name": "_medicalAccess",
          "type": "address"
        }
      ],
      "stateMutability": "nonpayable",
      "type": "constructor"
    },
    {
      "inputs": [],
      "name": "AccessControlBadConfirmation",
      "type": "error"
    },
    {
      "inputs": [
        {
          "internalType": "address",
          "name": "account",
          "type": "address"
        },
        {
          "internalType": "bytes32",
          "name": "neededRole",
          "type": "bytes32"
        }
      ],
      "name": "AccessControlUnauthorizedAccount",
      "type": "error"
    },
    {
      "anonymous": false,
      "inputs": [
        {
          "indexed": true,
          "internalType": "uint256",
          "name": "prescriptionId",
          "type": "uint256"
        },
        {
          "indexed": true,
          "internalType": "address",
          "name": "doctor",
          "type": "address"
        },
        {
          "indexed": true,
          "internalType": "address",
          "name": "patient",
          "type": "address"
        }
      ],
      "name": "PrescriptionCreated",
      "type": "event"
    },
    {
      "anonymous": false,
      "inputs": [
        {
          "indexed": true,
          "internalType": "uint256",
          "name": "prescriptionId",
          "type": "uint256"
        },
        {
          "indexed": true,
          "internalType": "address",
          "name": "pharmacist",
          "type": "address"
        }
      ],
      "name": "PrescriptionFulfilled",
      "type": "event"
    },
    {
      "anonymous": false,
      "inputs": [
        {
          "indexed": true,
          "internalType": "bytes32",
          "name": "role",
          "type": "bytes32"
        },
        {
          "indexed": true,
          "internalType": "bytes32",
          "name": "previousAdminRole",
          "type": "bytes32"
        },
        {
          "indexed": true,
          "internalType": "bytes32",
          "name": "newAdminRole",
          "type": "bytes32"
        }
      ],
      "name": "RoleAdminChanged",
      "type": "event"
    },
    {
      "anonymous": false,
      "inputs": [
        {
          "indexed": true,
          "internalType": "bytes32",
          "name": "role",
          "type": "bytes32"
        },
        {
          "indexed": true,
          "internalType": "address",
          "name": "account",
          "type": "address"
        },
        {
          "indexed": true,
          "internalType": "address",
          "name": "sender",
          "type": "address"
        }
      ],
      "name": "RoleGranted",
      "type": "event"
    },
    {
      "anonymous": false,
      "inputs": [
        {
          "indexed": true,
          "internalType": "bytes32",
          "name": "role",
          "type": "bytes32"
        },
        {
          "indexed": true,
          "internalType": "address",
          "name": "account",
          "type": "address"
        },
        {
          "indexed": true,
          "internalType": "address",
          "name": "sender",
          "type": "address"
        }
      ],
      "name": "RoleRevoked",
      "type": "event"
    },
    {
      "inputs": [],
      "name": "DEFAULT_ADMIN_ROLE",
      "outputs": [
        {
          "internalType": "bytes32",
          "name": "",
          "type": "bytes32"
        }
      ],
      "stateMutability": "view",
      "type": "function"
    },
    {
      "inputs": [
        {
          "internalType": "address",
          "name": "patient",
          "type": "address"
        },
        {
          "internalType": "uint256",
          "name": "expiryDate",
          "type": "uint256"
        },
        {
          "internalType": "string",
          "name": "prescriptionHash",
          "type": "string"
        }
      ],
      "name": "createPrescription",
      "outputs": [],
      "stateMutability": "nonpayable",
      "type": "function"
    },
    {
      "inputs": [
        {
          "internalType": "uint256",
          "name": "prescriptionId",
          "type": "uint256"
        }
      ],
      "name": "fulfillPrescription",
      "outputs": [],
      "stateMutability": "nonpayable",
      "type": "function"
    },
    {
      "inputs": [
        {
          "internalType": "address",
          "name": "doctor",
          "type": "address"
        }
      ],
      "name": "getDoctorPrescriptions",
      "outputs": [
        {
          "internalType": "uint256[]",
          "name": "",
          "type": "uint256[]"
        }
      ],
      "stateMutability": "view",
      "type": "function"
    },
    {
      "inputs": [
        {
          "internalType": "address",
          "name": "patient",
          "type": "address"
        }
      ],
      "name": "getPatientPrescriptions",
      "outputs": [
        {
          "internalType": "uint256[]",
          "name": "",
          "type": "uint256[]"
        }
      ],
      "stateMutability": "view",
      "type": "function"
    },
    {
      "inputs": [
        {
          "internalType": "uint256",
          "name": "prescriptionId",
          "type": "uint256"
        }
      ],
      "name": "getPrescription",
      "outputs": [
        {
          "components": [
            {
              "internalType": "address",
              "name": "doctor",
              "type": "address"
            },
            {
              "internalType": "address",
              "name": "patient",
              "type": "address"
            },
            {
              "internalType": "uint256",
              "name": "issueDate",
              "type": "uint256"
            },
            {
              "internalType": "uint256",
              "name": "expiryDate",
              "type": "uint256"
            },
            {
              "internalType": "string",
              "name": "prescriptionHash",
              "type": "string"
            },
            {
              "internalType": "bool",
              "name": "isFulfilled",
              "type": "bool"
            },
            {
              "internalType": "address",
              "name": "fulfilledBy",
              "type": "address"
            },
            {
              "internalType": "uint256",
              "name": "fulfillmentDate",
              "type": "uint256"
            }
          ],
          "internalType": "struct IPrescriptionRegistry.Prescription",
          "name": "",
          "type": "tuple"
        }
      ],
      "stateMutability": "view",
      "type": "function"
    },
    {
      "inputs": [],
      "name": "getPrescriptionCount",
      "outputs": [
        {
          "internalType": "uint256",
          "name": "",
          "type": "uint256"
        }
      ],
      "stateMutability": "view",
      "type": "function"
    },
    {
      "inputs": [
        {
          "internalType": "bytes32",
          "name": "role",
          "type": "bytes32"
        }
      ],
      "name": "getRoleAdmin",
      "outputs": [
        {
          "internalType": "bytes32",
          "name": "",
          "type": "bytes32"
        }
      ],
      "stateMutability": "view",
      "type": "function"
    },
    {
      "inputs": [
        {
          "internalType": "bytes32",
          "name": "role",
          "type": "bytes32"
        },
        {
          "internalType": "address",
          "name": "account",
          "type": "address"
        }
      ],
      "name": "grantRole",
      "outputs": [],
      "stateMutability": "nonpayable",
      "type": "function"
    },
    {
      "inputs": [
        {
          "internalType": "bytes32",
          "name": "role",
          "type": "bytes32"
        },
        {
          "internalType": "address",
          "name": "account",
          "type": "address"
        }
      ],
      "name": "hasRole",
      "outputs": [
        {
          "internalType": "bool",
          "name": "",
          "type": "bool"
        }
      ],
      "stateMutability": "view",
      "type": "function"
    },
    {
      "inputs": [],
      "name": "medicalAccess",
      "outputs": [
        {
          "internalType": "contract IMedicalAccess",
          "name": "",
          "type": "address"
        }
      ],
      "stateMutability": "view",
      "type": "function"
    },
    {
      "inputs": [],
      "name": "prescriptionCount",
      "outputs": [
        {
          "internalType": "uint256",
          "name": "",
          "type": "uint256"
        }
      ],
      "stateMutability": "view",
      "type": "function"
    },
    {
      "inputs": [],
      "name": "prescriptionToken",
      "outputs": [
        {
          "internalType": "contract IPrescriptionToken",
          "name": "",
          "type": "address"
        }
      ],
      "stateMutability": "view",
      "type": "function"
    },
    {
      "inputs": [
        {
          "internalType": "bytes32",
          "name": "role",
          "type": "bytes32"
        },
        {
          "internalType": "address",
          "name": "callerConfirmation",
          "type": "address"
        }
      ],
      "name": "renounceRole",
      "outputs": [],
      "stateMutability": "nonpayable",
      "type": "function"
    },
    {
      "inputs": [
        {
          "internalType": "bytes32",
          "name": "role",
          "type": "bytes32"
        },
        {
          "internalType": "address",
          "name": "account",
          "type": "address"
        }
      ],
      "name": "revokeRole",
      "outputs": [],
      "stateMutability": "nonpayable",
      "type": "function"
    },
    {
      "inputs": [
        {
          "internalType": "address",
          "name": "_prescriptionToken",
          "type": "address"
        }
      ],
      "name": "setPrescriptionToken",
      "outputs": [],
      "stateMutability": "nonpayable",
      "type": "function"
    },
    {
      "inputs": [
        {
          "internalType": "bytes4",
          "name": "interfaceId",
          "type": "bytes4"
        }
      ],
      "name": "supportsInterface",
      "outputs": [
        {
          "internalType": "bool",
          "name": "",
          "type": "bool"
        }
      ],
      "stateMutability": "view",
      "type": "function"
    }
  ],
  "transactionHash": "0x649c01f37f80c582c47651399c237529c999d876029201ec407d5a8195dee527",
  "args": [
    "0x9fE46736679d2D9a65F0992F2272dE9f3c7fa6e0"
  ],
  "numDeployments": 1,
  "solcInputHash": "e241d94db42bf7f990ae752aa099e0e6",
  "bytecode": "0x608060405234801561001057600080fd5b506040516129fd3803806129fd8339818101604052810190610032919061025f565b80600160006101000a81548173ffffffffffffffffffffffffffffffffffffffff021916908373ffffffffffffffffffffffffffffffffffffffff1602179055506100866000801b3361008d60201b60201c565b505061028c565b600061009f838361018a60201b60201c565b61017f57600160008085815260200190815260200160002060000160008473ffffffffffffffffffffffffffffffffffffffff1673ffffffffffffffffffffffffffffffffffffffff16815260200190815260200160002060006101000a81548160ff02191690831515021790555061011c6101f460201b60201c565b73ffffffffffffffffffffffffffffffffffffffff168273ffffffffffffffffffffffffffffffffffffffff16847f2f8788117e7eff1d82e926ec794901d17c78024a50270940304540a733656f0d60405160405180910390a460019050610184565b600090505b92915050565b600080600084815260200190815260200160002060000160008373ffffffffffffffffffffffffffffffffffffffff1673ffffffffffffffffffffffffffffffffffffffff16815260200190815260200160002060009054906101000a900460ff16905092915050565b600033905090565b600080fd5b600073ffffffffffffffffffffffffffffffffffffffff82169050919050565b600061022c82610201565b9050919050565b61023c81610221565b811461024757600080fd5b50565b60008151905061025981610233565b92915050565b600060208284031215610275576102746101fc565b5b60006102838482850161024a565b91505092915050565b6127628061029b6000396000f3fe608060405234801561001057600080fd5b506004361061010b5760003560e01c80636f16af10116100a25780639652d4ab116100715780639652d4ab146102c8578063a217fddf146102e6578063a4c54e7714610304578063b655849814610334578063d547741f146103525761010b565b80636f16af101461021a57806381932ac41461024a5780638a462e1a1461026857806391d14854146102985761010b565b80632cb20441116100de5780632cb20441146101aa5780632f2ff15d146101c657806336568abe146101e2578063686e9062146101fe5761010b565b806301ffc9a7146101105780630c49e8401461014057806322c12a9b1461015c578063248a9ca31461017a575b600080fd5b61012a600480360381019061012591906118c5565b61036e565b604051610137919061190d565b60405180910390f35b61015a60048036038101906101559190611986565b6103e8565b005b61016461043a565b60405161017191906119cc565b60405180910390f35b610194600480360381019061018f9190611a1d565b610444565b6040516101a19190611a59565b60405180910390f35b6101c460048036038101906101bf9190611b05565b610463565b005b6101e060048036038101906101db9190611b79565b610b60565b005b6101fc60048036038101906101f79190611b79565b610b82565b005b61021860048036038101906102139190611bb9565b610bfd565b005b610234600480360381019061022f9190611bb9565b610faf565b6040516102419190611d53565b60405180910390f35b6102526111aa565b60405161025f9190611dd4565b60405180910390f35b610282600480360381019061027d9190611986565b6111d0565b60405161028f9190611e9e565b60405180910390f35b6102b260048036038101906102ad9190611b79565b611267565b6040516102bf919061190d565b60405180910390f35b6102d06112d1565b6040516102dd9190611ee1565b60405180910390f35b6102ee6112f7565b6040516102fb9190611a59565b60405180910390f35b61031e60048036038101906103199190611986565b6112fe565b60405161032b9190611e9e565b60405180910390f35b61033c611395565b60405161034991906119cc565b60405180910390f35b61036c60048036038101906103679190611b79565b61139b565b005b60007f278871c5000000000000000000000000000000000000000000000000000000007bffffffffffffffffffffffffffffffffffffffffffffffffffffffff1916827bffffffffffffffffffffffffffffffffffffffffffffffffffffffff191614806103e157506103e0826113bd565b5b9050919050565b6000801b6103f581611437565b81600260006101000a81548173ffffffffffffffffffffffffffffffffffffffff021916908373ffffffffffffffffffffffffffffffffffffffff1602179055505050565b6000600354905090565b6000806000838152602001908152602001600020600101549050919050565b600160009054906101000a900473ffffffffffffffffffffffffffffffffffffffff1673ffffffffffffffffffffffffffffffffffffffff16639f8a13d7336040518263ffffffff1660e01b81526004016104be9190611f0b565b602060405180830381865afa1580156104db573d6000803e3d6000fd5b505050506040513d601f19601f820116820180604052508101906104ff9190611f52565b61053e576040517f08c379a000000000000000000000000000000000000000000000000000000000815260040161053590611fdc565b60405180910390fd5b428311610580576040517f08c379a000000000000000000000000000000000000000000000000000000000815260040161057790612048565b60405180910390fd5b600160009054906101000a900473ffffffffffffffffffffffffffffffffffffffff1673ffffffffffffffffffffffffffffffffffffffff166391d14854600160009054906101000a900473ffffffffffffffffffffffffffffffffffffffff1673ffffffffffffffffffffffffffffffffffffffff1663ac5cb97d6040518163ffffffff1660e01b8152600401602060405180830381865afa15801561062b573d6000803e3d6000fd5b505050506040513d601f19601f8201168201806040525081019061064f919061207d565b866040518363ffffffff1660e01b815260040161066d9291906120aa565b602060405180830381865afa15801561068a573d6000803e3d6000fd5b505050506040513d601f19601f820116820180604052508101906106ae9190611f52565b6106ed576040517f08c379a00000000000000000000000000000000000000000000000000000000081526004016106e49061211f565b60405180910390fd5b61072b6040518060400160405280601181526020017f2d2d2d2d2d2d2d2d2d2d2d2d2d2d2d2d2d00000000000000000000000000000081525061144b565b600060036000815461073c9061216e565b91905081905590506040518061010001604052803373ffffffffffffffffffffffffffffffffffffffff1681526020018673ffffffffffffffffffffffffffffffffffffffff16815260200142815260200185815260200184848080601f016020809104026020016040519081016040528093929190818152602001838380828437600081840152601f19601f820116905080830192505050505050508152602001600015158152602001600073ffffffffffffffffffffffffffffffffffffffff16815260200160008152506004600083815260200190815260200160002060008201518160000160006101000a81548173ffffffffffffffffffffffffffffffffffffffff021916908373ffffffffffffffffffffffffffffffffffffffff16021790555060208201518160010160006101000a81548173ffffffffffffffffffffffffffffffffffffffff021916908373ffffffffffffffffffffffffffffffffffffffff160217905550604082015181600201556060820151816003015560808201518160040190816108d391906123e7565b5060a08201518160050160006101000a81548160ff02191690831515021790555060c08201518160050160016101000a81548173ffffffffffffffffffffffffffffffffffffffff021916908373ffffffffffffffffffffffffffffffffffffffff16021790555060e08201518160060155905050600560008673ffffffffffffffffffffffffffffffffffffffff1673ffffffffffffffffffffffffffffffffffffffff168152602001908152602001600020819080600181540180825580915050600190039060005260206000200160009091909190915055600660003373ffffffffffffffffffffffffffffffffffffffff1673ffffffffffffffffffffffffffffffffffffffff168152602001908152602001600020819080600181540180825580915050600190039060005260206000200160009091909190915055600073ffffffffffffffffffffffffffffffffffffffff16600260009054906101000a900473ffffffffffffffffffffffffffffffffffffffff1673ffffffffffffffffffffffffffffffffffffffff1614610afe57600260009054906101000a900473ffffffffffffffffffffffffffffffffffffffff1673ffffffffffffffffffffffffffffffffffffffff1663d3fc9864868386866040518563ffffffff1660e01b8152600401610acb94939291906124f5565b600060405180830381600087803b158015610ae557600080fd5b505af1158015610af9573d6000803e3d6000fd5b505050505b8473ffffffffffffffffffffffffffffffffffffffff163373ffffffffffffffffffffffffffffffffffffffff16827f71d940cbfc82410e0b18e63896ef651239da8c4875128cfa30d1637278d0267060405160405180910390a45050505050565b610b6982610444565b610b7281611437565b610b7c83836114e4565b50505050565b610b8a6115d5565b73ffffffffffffffffffffffffffffffffffffffff168173ffffffffffffffffffffffffffffffffffffffff1614610bee576040517f6697b23200000000000000000000000000000000000000000000000000000000815260040160405180910390fd5b610bf882826115dd565b505050565b600160009054906101000a900473ffffffffffffffffffffffffffffffffffffffff1673ffffffffffffffffffffffffffffffffffffffff166356f25d27336040518263ffffffff1660e01b8152600401610c589190611f0b565b602060405180830381865afa158015610c75573d6000803e3d6000fd5b505050506040513d601f19601f82011682018060405250810190610c999190611f52565b610cd8576040517f08c379a0000000000000000000000000000000000000000000000000000000008152600401610ccf90611fdc565b60405180910390fd5b6000600460008381526020019081526020016000209050600073ffffffffffffffffffffffffffffffffffffffff168160000160009054906101000a900473ffffffffffffffffffffffffffffffffffffffff1673ffffffffffffffffffffffffffffffffffffffff1603610d82576040517f08c379a0000000000000000000000000000000000000000000000000000000008152600401610d7990612581565b60405180910390fd5b8060050160009054906101000a900460ff1615610dd4576040517f08c379a0000000000000000000000000000000000000000000000000000000008152600401610dcb906125ed565b60405180910390fd5b42816003015411610e1a576040517f08c379a0000000000000000000000000000000000000000000000000000000008152600401610e1190612659565b60405180910390fd5b60018160050160006101000a81548160ff021916908315150217905550338160050160016101000a81548173ffffffffffffffffffffffffffffffffffffffff021916908373ffffffffffffffffffffffffffffffffffffffff160217905550428160060181905550600073ffffffffffffffffffffffffffffffffffffffff16600260009054906101000a900473ffffffffffffffffffffffffffffffffffffffff1673ffffffffffffffffffffffffffffffffffffffff1614610f6757600260009054906101000a900473ffffffffffffffffffffffffffffffffffffffff1673ffffffffffffffffffffffffffffffffffffffff166342966c68836040518263ffffffff1660e01b8152600401610f3491906119cc565b600060405180830381600087803b158015610f4e57600080fd5b505af1158015610f62573d6000803e3d6000fd5b505050505b3373ffffffffffffffffffffffffffffffffffffffff16827f1fd747d593a3abe3d63a6823e8452fc4a810ea6aedf557a8fd0e6af7db71f4b660405160405180910390a35050565b610fb76117d0565b60046000838152602001908152602001600020604051806101000160405290816000820160009054906101000a900473ffffffffffffffffffffffffffffffffffffffff1673ffffffffffffffffffffffffffffffffffffffff1673ffffffffffffffffffffffffffffffffffffffff1681526020016001820160009054906101000a900473ffffffffffffffffffffffffffffffffffffffff1673ffffffffffffffffffffffffffffffffffffffff1673ffffffffffffffffffffffffffffffffffffffff16815260200160028201548152602001600382015481526020016004820180546110a690612214565b80601f01602080910402602001604051908101604052809291908181526020018280546110d290612214565b801561111f5780601f106110f45761010080835404028352916020019161111f565b820191906000526020600020905b81548152906001019060200180831161110257829003601f168201915b505050505081526020016005820160009054906101000a900460ff161515151581526020016005820160019054906101000a900473ffffffffffffffffffffffffffffffffffffffff1673ffffffffffffffffffffffffffffffffffffffff1673ffffffffffffffffffffffffffffffffffffffff1681526020016006820154815250509050919050565b600160009054906101000a900473ffffffffffffffffffffffffffffffffffffffff1681565b6060600560008373ffffffffffffffffffffffffffffffffffffffff1673ffffffffffffffffffffffffffffffffffffffff16815260200190815260200160002080548060200260200160405190810160405280929190818152602001828054801561125b57602002820191906000526020600020905b815481526020019060010190808311611247575b50505050509050919050565b600080600084815260200190815260200160002060000160008373ffffffffffffffffffffffffffffffffffffffff1673ffffffffffffffffffffffffffffffffffffffff16815260200190815260200160002060009054906101000a900460ff16905092915050565b600260009054906101000a900473ffffffffffffffffffffffffffffffffffffffff1681565b6000801b81565b6060600660008373ffffffffffffffffffffffffffffffffffffffff1673ffffffffffffffffffffffffffffffffffffffff16815260200190815260200160002080548060200260200160405190810160405280929190818152602001828054801561138957602002820191906000526020600020905b815481526020019060010190808311611375575b50505050509050919050565b60035481565b6113a482610444565b6113ad81611437565b6113b783836115dd565b50505050565b60007f7965db0b000000000000000000000000000000000000000000000000000000007bffffffffffffffffffffffffffffffffffffffffffffffffffffffff1916827bffffffffffffffffffffffffffffffffffffffffffffffffffffffff19161480611430575061142f826116cf565b5b9050919050565b611448816114436115d5565b611739565b50565b6114e18160405160240161145f91906126b2565b6040516020818303038152906040527f41304fac000000000000000000000000000000000000000000000000000000007bffffffffffffffffffffffffffffffffffffffffffffffffffffffff19166020820180517bffffffffffffffffffffffffffffffffffffffffffffffffffffffff838183161783525050505061178a565b50565b60006114f08383611267565b6115ca57600160008085815260200190815260200160002060000160008473ffffffffffffffffffffffffffffffffffffffff1673ffffffffffffffffffffffffffffffffffffffff16815260200190815260200160002060006101000a81548160ff0219169083151502179055506115676115d5565b73ffffffffffffffffffffffffffffffffffffffff168273ffffffffffffffffffffffffffffffffffffffff16847f2f8788117e7eff1d82e926ec794901d17c78024a50270940304540a733656f0d60405160405180910390a4600190506115cf565b600090505b92915050565b600033905090565b60006115e98383611267565b156116c457600080600085815260200190815260200160002060000160008473ffffffffffffffffffffffffffffffffffffffff1673ffffffffffffffffffffffffffffffffffffffff16815260200190815260200160002060006101000a81548160ff0219169083151502179055506116616115d5565b73ffffffffffffffffffffffffffffffffffffffff168273ffffffffffffffffffffffffffffffffffffffff16847ff6391f5c32d9c69d2a47ea670b442974b53935d1edc7fd64eb21e047a839171b60405160405180910390a4600190506116c9565b600090505b92915050565b60007f01ffc9a7000000000000000000000000000000000000000000000000000000007bffffffffffffffffffffffffffffffffffffffffffffffffffffffff1916827bffffffffffffffffffffffffffffffffffffffffffffffffffffffff1916149050919050565b6117438282611267565b6117865780826040517fe2517d3f00000000000000000000000000000000000000000000000000000000815260040161177d9291906126d4565b60405180910390fd5b5050565b6117a1816117996117a46117c5565b63ffffffff16565b50565b60006a636f6e736f6c652e6c6f679050600080835160208501845afa505050565b611859819050919050565b604051806101000160405280600073ffffffffffffffffffffffffffffffffffffffff168152602001600073ffffffffffffffffffffffffffffffffffffffff168152602001600081526020016000815260200160608152602001600015158152602001600073ffffffffffffffffffffffffffffffffffffffff168152602001600081525090565b6118616126fd565b565b600080fd5b600080fd5b60007fffffffff0000000000000000000000000000000000000000000000000000000082169050919050565b6118a28161186d565b81146118ad57600080fd5b50565b6000813590506118bf81611899565b92915050565b6000602082840312156118db576118da611863565b5b60006118e9848285016118b0565b91505092915050565b60008115159050919050565b611907816118f2565b82525050565b600060208201905061192260008301846118fe565b92915050565b600073ffffffffffffffffffffffffffffffffffffffff82169050919050565b600061195382611928565b9050919050565b61196381611948565b811461196e57600080fd5b50565b6000813590506119808161195a565b92915050565b60006020828403121561199c5761199b611863565b5b60006119aa84828501611971565b91505092915050565b6000819050919050565b6119c6816119b3565b82525050565b60006020820190506119e160008301846119bd565b92915050565b6000819050919050565b6119fa816119e7565b8114611a0557600080fd5b50565b600081359050611a17816119f1565b92915050565b600060208284031215611a3357611a32611863565b5b6000611a4184828501611a08565b91505092915050565b611a53816119e7565b82525050565b6000602082019050611a6e6000830184611a4a565b92915050565b611a7d816119b3565b8114611a8857600080fd5b50565b600081359050611a9a81611a74565b92915050565b600080fd5b600080fd5b600080fd5b60008083601f840112611ac557611ac4611aa0565b5b8235905067ffffffffffffffff811115611ae257611ae1611aa5565b5b602083019150836001820283011115611afe57611afd611aaa565b5b9250929050565b60008060008060608587031215611b1f57611b1e611863565b5b6000611b2d87828801611971565b9450506020611b3e87828801611a8b565b935050604085013567ffffffffffffffff811115611b5f57611b5e611868565b5b611b6b87828801611aaf565b925092505092959194509250565b60008060408385031215611b9057611b8f611863565b5b6000611b9e85828601611a08565b9250506020611baf85828601611971565b9150509250929050565b600060208284031215611bcf57611bce611863565b5b6000611bdd84828501611a8b565b91505092915050565b611bef81611948565b82525050565b611bfe816119b3565b82525050565b600081519050919050565b600082825260208201905092915050565b60005b83811015611c3e578082015181840152602081019050611c23565b60008484015250505050565b6000601f19601f8301169050919050565b6000611c6682611c04565b611c708185611c0f565b9350611c80818560208601611c20565b611c8981611c4a565b840191505092915050565b611c9d816118f2565b82525050565b600061010083016000830151611cbc6000860182611be6565b506020830151611ccf6020860182611be6565b506040830151611ce26040860182611bf5565b506060830151611cf56060860182611bf5565b5060808301518482036080860152611d0d8282611c5b565b91505060a0830151611d2260a0860182611c94565b5060c0830151611d3560c0860182611be6565b5060e0830151611d4860e0860182611bf5565b508091505092915050565b60006020820190508181036000830152611d6d8184611ca3565b905092915050565b6000819050919050565b6000611d9a611d95611d9084611928565b611d75565b611928565b9050919050565b6000611dac82611d7f565b9050919050565b6000611dbe82611da1565b9050919050565b611dce81611db3565b82525050565b6000602082019050611de96000830184611dc5565b92915050565b600081519050919050565b600082825260208201905092915050565b6000819050602082019050919050565b6000611e278383611bf5565b60208301905092915050565b6000602082019050919050565b6000611e4b82611def565b611e558185611dfa565b9350611e6083611e0b565b8060005b83811015611e91578151611e788882611e1b565b9750611e8383611e33565b925050600181019050611e64565b5085935050505092915050565b60006020820190508181036000830152611eb88184611e40565b905092915050565b6000611ecb82611da1565b9050919050565b611edb81611ec0565b82525050565b6000602082019050611ef66000830184611ed2565b92915050565b611f0581611948565b82525050565b6000602082019050611f206000830184611efc565b92915050565b611f2f816118f2565b8114611f3a57600080fd5b50565b600081519050611f4c81611f26565b92915050565b600060208284031215611f6857611f67611863565b5b6000611f7684828501611f3d565b91505092915050565b600082825260208201905092915050565b7f556e617574686f72697a65640000000000000000000000000000000000000000600082015250565b6000611fc6600c83611f7f565b9150611fd182611f90565b602082019050919050565b60006020820190508181036000830152611ff581611fb9565b9050919050565b7f496e76616c696420657870697279000000000000000000000000000000000000600082015250565b6000612032600e83611f7f565b915061203d82611ffc565b602082019050919050565b6000602082019050818103600083015261206181612025565b9050919050565b600081519050612077816119f1565b92915050565b60006020828403121561209357612092611863565b5b60006120a184828501612068565b91505092915050565b60006040820190506120bf6000830185611a4a565b6120cc6020830184611efc565b9392505050565b7f496e76616c69642070617469656e740000000000000000000000000000000000600082015250565b6000612109600f83611f7f565b9150612114826120d3565b602082019050919050565b60006020820190508181036000830152612138816120fc565b9050919050565b7f4e487b7100000000000000000000000000000000000000000000000000000000600052601160045260246000fd5b6000612179826119b3565b91507fffffffffffffffffffffffffffffffffffffffffffffffffffffffffffffffff82036121ab576121aa61213f565b5b600182019050919050565b7f4e487b7100000000000000000000000000000000000000000000000000000000600052604160045260246000fd5b7f4e487b7100000000000000000000000000000000000000000000000000000000600052602260045260246000fd5b6000600282049050600182168061222c57607f821691505b60208210810361223f5761223e6121e5565b5b50919050565b60008190508160005260206000209050919050565b60006020601f8301049050919050565b600082821b905092915050565b6000600883026122a77fffffffffffffffffffffffffffffffffffffffffffffffffffffffffffffffff8261226a565b6122b1868361226a565b95508019841693508086168417925050509392505050565b60006122e46122df6122da846119b3565b611d75565b6119b3565b9050919050565b6000819050919050565b6122fe836122c9565b61231261230a826122eb565b848454612277565b825550505050565b600090565b61232761231a565b6123328184846122f5565b505050565b5b818110156123565761234b60008261231f565b600181019050612338565b5050565b601f82111561239b5761236c81612245565b6123758461225a565b81016020851015612384578190505b6123986123908561225a565b830182612337565b50505b505050565b600082821c905092915050565b60006123be600019846008026123a0565b1980831691505092915050565b60006123d783836123ad565b9150826002028217905092915050565b6123f082611c04565b67ffffffffffffffff811115612409576124086121b6565b5b6124138254612214565b61241e82828561235a565b600060209050601f831160018114612451576000841561243f578287015190505b61244985826123cb565b8655506124b1565b601f19841661245f86612245565b60005b8281101561248757848901518255600182019150602085019450602081019050612462565b868310156124a457848901516124a0601f8916826123ad565b8355505b6001600288020188555050505b505050505050565b82818337600083830152505050565b60006124d48385611f7f565b93506124e18385846124b9565b6124ea83611c4a565b840190509392505050565b600060608201905061250a6000830187611efc565b61251760208301866119bd565b818103604083015261252a8184866124c8565b905095945050505050565b7f496e76616c696420707265736372697074696f6e000000000000000000000000600082015250565b600061256b601483611f7f565b915061257682612535565b602082019050919050565b6000602082019050818103600083015261259a8161255e565b9050919050565b7f416c72656164792066756c66696c6c6564000000000000000000000000000000600082015250565b60006125d7601183611f7f565b91506125e2826125a1565b602082019050919050565b60006020820190508181036000830152612606816125ca565b9050919050565b7f507265736372697074696f6e2065787069726564000000000000000000000000600082015250565b6000612643601483611f7f565b915061264e8261260d565b602082019050919050565b6000602082019050818103600083015261267281612636565b9050919050565b600061268482611c04565b61268e8185611f7f565b935061269e818560208601611c20565b6126a781611c4a565b840191505092915050565b600060208201905081810360008301526126cc8184612679565b905092915050565b60006040820190506126e96000830185611efc565b6126f66020830184611a4a565b9392505050565b7f4e487b7100000000000000000000000000000000000000000000000000000000600052605160045260246000fdfea2646970667358221220905012a3f7bbb69b0b93cc722bad91b9b9a69302150da5c03e6eeeff5de26c0164736f6c634300081c0033",
  "devdoc": {
    "errors": {
      "AccessControlBadConfirmation()": [
        {
          "details": "The caller of a function is not the expected one. NOTE: Don't confuse with {AccessControlUnauthorizedAccount}."
        }
      ],
      "AccessControlUnauthorizedAccount(address,bytes32)": [
        {
          "details": "The `account` is missing a role."
        }
      ]
    },
    "events": {
      "RoleAdminChanged(bytes32,bytes32,bytes32)": {
        "details": "Emitted when `newAdminRole` is set as ``role``'s admin role, replacing `previousAdminRole` `DEFAULT_ADMIN_ROLE` is the starting admin for all roles, despite {RoleAdminChanged} not being emitted to signal this."
      },
      "RoleGranted(bytes32,address,address)": {
        "details": "Emitted when `account` is granted `role`. `sender` is the account that originated the contract call. This account bears the admin role (for the granted role). Expected in cases where the role was granted using the internal {AccessControl-_grantRole}."
      },
      "RoleRevoked(bytes32,address,address)": {
        "details": "Emitted when `account` is revoked `role`. `sender` is the account that originated the contract call:   - if using `revokeRole`, it is the admin role bearer   - if using `renounceRole`, it is the role bearer (i.e. `account`)"
      }
    },
    "kind": "dev",
    "methods": {
      "getRoleAdmin(bytes32)": {
        "details": "Returns the admin role that controls `role`. See {grantRole} and {revokeRole}. To change a role's admin, use {_setRoleAdmin}."
      },
      "grantRole(bytes32,address)": {
        "details": "Grants `role` to `account`. If `account` had not been already granted `role`, emits a {RoleGranted} event. Requirements: - the caller must have ``role``'s admin role. May emit a {RoleGranted} event."
      },
      "hasRole(bytes32,address)": {
        "details": "Returns `true` if `account` has been granted `role`."
      },
      "renounceRole(bytes32,address)": {
        "details": "Revokes `role` from the calling account. Roles are often managed via {grantRole} and {revokeRole}: this function's purpose is to provide a mechanism for accounts to lose their privileges if they are compromised (such as when a trusted device is misplaced). If the calling account had been revoked `role`, emits a {RoleRevoked} event. Requirements: - the caller must be `callerConfirmation`. May emit a {RoleRevoked} event."
      },
      "revokeRole(bytes32,address)": {
        "details": "Revokes `role` from `account`. If `account` had been granted `role`, emits a {RoleRevoked} event. Requirements: - the caller must have ``role``'s admin role. May emit a {RoleRevoked} event."
      },
      "supportsInterface(bytes4)": {
        "details": "See {IERC165-supportsInterface}."
      }
    },
    "version": 1
  },
  "userdoc": {
    "kind": "user",
    "methods": {},
    "version": 1
  },
  "storageLayout": {
    "storage": [
      {
        "astId": 26,
        "contract": "contracts/prescription/PrescriptionRegistry.sol:PrescriptionRegistry",
        "label": "_roles",
        "offset": 0,
        "slot": "0",
        "type": "t_mapping(t_bytes32,t_struct(RoleData)21_storage)"
      },
      {
        "astId": 1038,
        "contract": "contracts/prescription/PrescriptionRegistry.sol:PrescriptionRegistry",
        "label": "medicalAccess",
        "offset": 0,
        "slot": "1",
        "type": "t_contract(IMedicalAccess)910"
      },
      {
        "astId": 1041,
        "contract": "contracts/prescription/PrescriptionRegistry.sol:PrescriptionRegistry",
        "label": "prescriptionToken",
        "offset": 0,
        "slot": "2",
        "type": "t_contract(IPrescriptionToken)1024"
      },
      {
        "astId": 1043,
        "contract": "contracts/prescription/PrescriptionRegistry.sol:PrescriptionRegistry",
        "label": "prescriptionCount",
        "offset": 0,
        "slot": "3",
        "type": "t_uint256"
      },
      {
        "astId": 1048,
        "contract": "contracts/prescription/PrescriptionRegistry.sol:PrescriptionRegistry",
        "label": "_prescriptions",
        "offset": 0,
        "slot": "4",
        "type": "t_mapping(t_uint256,t_struct(Prescription)929_storage)"
      },
      {
        "astId": 1053,
        "contract": "contracts/prescription/PrescriptionRegistry.sol:PrescriptionRegistry",
        "label": "_patientPrescriptions",
        "offset": 0,
        "slot": "5",
        "type": "t_mapping(t_address,t_array(t_uint256)dyn_storage)"
      },
      {
        "astId": 1058,
        "contract": "contracts/prescription/PrescriptionRegistry.sol:PrescriptionRegistry",
        "label": "_doctorPrescriptions",
        "offset": 0,
        "slot": "6",
        "type": "t_mapping(t_address,t_array(t_uint256)dyn_storage)"
      }
    ],
    "types": {
      "t_address": {
        "encoding": "inplace",
        "label": "address",
        "numberOfBytes": "20"
      },
      "t_array(t_uint256)dyn_storage": {
        "base": "t_uint256",
        "encoding": "dynamic_array",
        "label": "uint256[]",
        "numberOfBytes": "32"
      },
      "t_bool": {
        "encoding": "inplace",
        "label": "bool",
        "numberOfBytes": "1"
      },
      "t_bytes32": {
        "encoding": "inplace",
        "label": "bytes32",
        "numberOfBytes": "32"
      },
      "t_contract(IMedicalAccess)910": {
        "encoding": "inplace",
        "label": "contract IMedicalAccess",
        "numberOfBytes": "20"
      },
      "t_contract(IPrescriptionToken)1024": {
        "encoding": "inplace",
        "label": "contract IPrescriptionToken",
        "numberOfBytes": "20"
      },
      "t_mapping(t_address,t_array(t_uint256)dyn_storage)": {
        "encoding": "mapping",
        "key": "t_address",
        "label": "mapping(address => uint256[])",
        "numberOfBytes": "32",
        "value": "t_array(t_uint256)dyn_storage"
      },
      "t_mapping(t_address,t_bool)": {
        "encoding": "mapping",
        "key": "t_address",
        "label": "mapping(address => bool)",
        "numberOfBytes": "32",
        "value": "t_bool"
      },
      "t_mapping(t_bytes32,t_struct(RoleData)21_storage)": {
        "encoding": "mapping",
        "key": "t_bytes32",
        "label": "mapping(bytes32 => struct AccessControl.RoleData)",
        "numberOfBytes": "32",
        "value": "t_struct(RoleData)21_storage"
      },
      "t_mapping(t_uint256,t_struct(Prescription)929_storage)": {
        "encoding": "mapping",
        "key": "t_uint256",
        "label": "mapping(uint256 => struct IPrescriptionRegistry.Prescription)",
        "numberOfBytes": "32",
        "value": "t_struct(Prescription)929_storage"
      },
      "t_string_storage": {
        "encoding": "bytes",
        "label": "string",
        "numberOfBytes": "32"
      },
      "t_struct(Prescription)929_storage": {
        "encoding": "inplace",
        "label": "struct IPrescriptionRegistry.Prescription",
        "members": [
          {
            "astId": 914,
            "contract": "contracts/prescription/PrescriptionRegistry.sol:PrescriptionRegistry",
            "label": "doctor",
            "offset": 0,
            "slot": "0",
            "type": "t_address"
          },
          {
            "astId": 916,
            "contract": "contracts/prescription/PrescriptionRegistry.sol:PrescriptionRegistry",
            "label": "patient",
            "offset": 0,
            "slot": "1",
            "type": "t_address"
          },
          {
            "astId": 918,
            "contract": "contracts/prescription/PrescriptionRegistry.sol:PrescriptionRegistry",
            "label": "issueDate",
            "offset": 0,
            "slot": "2",
            "type": "t_uint256"
          },
          {
            "astId": 920,
            "contract": "contracts/prescription/PrescriptionRegistry.sol:PrescriptionRegistry",
            "label": "expiryDate",
            "offset": 0,
            "slot": "3",
            "type": "t_uint256"
          },
          {
            "astId": 922,
            "contract": "contracts/prescription/PrescriptionRegistry.sol:PrescriptionRegistry",
            "label": "prescriptionHash",
            "offset": 0,
            "slot": "4",
            "type": "t_string_storage"
          },
          {
            "astId": 924,
            "contract": "contracts/prescription/PrescriptionRegistry.sol:PrescriptionRegistry",
            "label": "isFulfilled",
            "offset": 0,
            "slot": "5",
            "type": "t_bool"
          },
          {
            "astId": 926,
            "contract": "contracts/prescription/PrescriptionRegistry.sol:PrescriptionRegistry",
            "label": "fulfilledBy",
            "offset": 1,
            "slot": "5",
            "type": "t_address"
          },
          {
            "astId": 928,
            "contract": "contracts/prescription/PrescriptionRegistry.sol:PrescriptionRegistry",
            "label": "fulfillmentDate",
            "offset": 0,
            "slot": "6",
            "type": "t_uint256"
          }
        ],
        "numberOfBytes": "224"
      },
      "t_struct(RoleData)21_storage": {
        "encoding": "inplace",
        "label": "struct AccessControl.RoleData",
        "members": [
          {
            "astId": 18,
            "contract": "contracts/prescription/PrescriptionRegistry.sol:PrescriptionRegistry",
            "label": "hasRole",
            "offset": 0,
            "slot": "0",
            "type": "t_mapping(t_address,t_bool)"
          },
          {
            "astId": 20,
            "contract": "contracts/prescription/PrescriptionRegistry.sol:PrescriptionRegistry",
            "label": "adminRole",
            "offset": 0,
            "slot": "1",
            "type": "t_bytes32"
          }
        ],
        "numberOfBytes": "64"
      },
      "t_uint256": {
        "encoding": "inplace",
        "label": "uint256",
        "numberOfBytes": "32"
      }
    }
  }
}