{
  "address": "0xDc64a140Aa3E981100a9becA4E685f962f0cF6C9",
  "abi": [
    {
      "inputs": [
        {
          "internalType": "address",
          "name": "_medicalAccess",
          "type": "address"
        }
      ],
      "stateMutability": "nonpayable",
      "type": "constructor"
    },
    {
      "inputs": [],
      "name": "AccessControlBadConfirmation",
      "type": "error"
    },
    {
      "inputs": [
        {
          "internalType": "address",
          "name": "account",
          "type": "address"
        },
        {
          "internalType": "bytes32",
          "name": "neededRole",
          "type": "bytes32"
        }
      ],
      "name": "AccessControlUnauthorizedAccount",
      "type": "error"
    },
    {
      "anonymous": false,
      "inputs": [
        {
          "indexed": true,
          "internalType": "uint256",
          "name": "prescriptionId",
          "type": "uint256"
        },
        {
          "indexed": true,
          "internalType": "address",
          "name": "doctor",
          "type": "address"
        },
        {
          "indexed": true,
          "internalType": "address",
          "name": "patient",
          "type": "address"
        }
      ],
      "name": "PrescriptionCreated",
      "type": "event"
    },
    {
      "anonymous": false,
      "inputs": [
        {
          "indexed": true,
          "internalType": "uint256",
          "name": "prescriptionId",
          "type": "uint256"
        },
        {
          "indexed": true,
          "internalType": "address",
          "name": "pharmacist",
          "type": "address"
        }
      ],
      "name": "PrescriptionFulfilled",
      "type": "event"
    },
    {
      "anonymous": false,
      "inputs": [
        {
          "indexed": true,
          "internalType": "bytes32",
          "name": "role",
          "type": "bytes32"
        },
        {
          "indexed": true,
          "internalType": "bytes32",
          "name": "previousAdminRole",
          "type": "bytes32"
        },
        {
          "indexed": true,
          "internalType": "bytes32",
          "name": "newAdminRole",
          "type": "bytes32"
        }
      ],
      "name": "RoleAdminChanged",
      "type": "event"
    },
    {
      "anonymous": false,
      "inputs": [
        {
          "indexed": true,
          "internalType": "bytes32",
          "name": "role",
          "type": "bytes32"
        },
        {
          "indexed": true,
          "internalType": "address",
          "name": "account",
          "type": "address"
        },
        {
          "indexed": true,
          "internalType": "address",
          "name": "sender",
          "type": "address"
        }
      ],
      "name": "RoleGranted",
      "type": "event"
    },
    {
      "anonymous": false,
      "inputs": [
        {
          "indexed": true,
          "internalType": "bytes32",
          "name": "role",
          "type": "bytes32"
        },
        {
          "indexed": true,
          "internalType": "address",
          "name": "account",
          "type": "address"
        },
        {
          "indexed": true,
          "internalType": "address",
          "name": "sender",
          "type": "address"
        }
      ],
      "name": "RoleRevoked",
      "type": "event"
    },
    {
      "inputs": [],
      "name": "DEFAULT_ADMIN_ROLE",
      "outputs": [
        {
          "internalType": "bytes32",
          "name": "",
          "type": "bytes32"
        }
      ],
      "stateMutability": "view",
      "type": "function"
    },
    {
      "inputs": [
        {
          "internalType": "address",
          "name": "patient",
          "type": "address"
        },
        {
          "internalType": "uint256",
          "name": "expiryDate",
          "type": "uint256"
        },
        {
          "internalType": "string",
          "name": "prescriptionHash",
          "type": "string"
        }
      ],
      "name": "createPrescription",
      "outputs": [],
      "stateMutability": "nonpayable",
      "type": "function"
    },
    {
      "inputs": [
        {
          "internalType": "uint256",
          "name": "prescriptionId",
          "type": "uint256"
        }
      ],
      "name": "fulfillPrescription",
      "outputs": [],
      "stateMutability": "nonpayable",
      "type": "function"
    },
    {
      "inputs": [
        {
          "internalType": "address",
          "name": "doctor",
          "type": "address"
        }
      ],
      "name": "getDoctorPrescriptions",
      "outputs": [
        {
          "internalType": "uint256[]",
          "name": "",
          "type": "uint256[]"
        }
      ],
      "stateMutability": "view",
      "type": "function"
    },
    {
      "inputs": [
        {
          "internalType": "address",
          "name": "patient",
          "type": "address"
        }
      ],
      "name": "getPatientPrescriptions",
      "outputs": [
        {
          "internalType": "uint256[]",
          "name": "",
          "type": "uint256[]"
        }
      ],
      "stateMutability": "view",
      "type": "function"
    },
    {
      "inputs": [
        {
          "internalType": "uint256",
          "name": "prescriptionId",
          "type": "uint256"
        }
      ],
      "name": "getPrescription",
      "outputs": [
        {
          "components": [
            {
              "internalType": "address",
              "name": "doctor",
              "type": "address"
            },
            {
              "internalType": "address",
              "name": "patient",
              "type": "address"
            },
            {
              "internalType": "uint256",
              "name": "issueDate",
              "type": "uint256"
            },
            {
              "internalType": "uint256",
              "name": "expiryDate",
              "type": "uint256"
            },
            {
              "internalType": "string",
              "name": "prescriptionHash",
              "type": "string"
            },
            {
              "internalType": "bool",
              "name": "isFulfilled",
              "type": "bool"
            },
            {
              "internalType": "address",
              "name": "fulfilledBy",
              "type": "address"
            },
            {
              "internalType": "uint256",
              "name": "fulfillmentDate",
              "type": "uint256"
            }
          ],
          "internalType": "struct IPrescriptionRegistry.Prescription",
          "name": "",
          "type": "tuple"
        }
      ],
      "stateMutability": "view",
      "type": "function"
    },
    {
      "inputs": [],
      "name": "getPrescriptionCount",
      "outputs": [
        {
          "internalType": "uint256",
          "name": "",
          "type": "uint256"
        }
      ],
      "stateMutability": "view",
      "type": "function"
    },
    {
      "inputs": [
        {
          "internalType": "bytes32",
          "name": "role",
          "type": "bytes32"
        }
      ],
      "name": "getRoleAdmin",
      "outputs": [
        {
          "internalType": "bytes32",
          "name": "",
          "type": "bytes32"
        }
      ],
      "stateMutability": "view",
      "type": "function"
    },
    {
      "inputs": [
        {
          "internalType": "bytes32",
          "name": "role",
          "type": "bytes32"
        },
        {
          "internalType": "address",
          "name": "account",
          "type": "address"
        }
      ],
      "name": "grantRole",
      "outputs": [],
      "stateMutability": "nonpayable",
      "type": "function"
    },
    {
      "inputs": [
        {
          "internalType": "bytes32",
          "name": "role",
          "type": "bytes32"
        },
        {
          "internalType": "address",
          "name": "account",
          "type": "address"
        }
      ],
      "name": "hasRole",
      "outputs": [
        {
          "internalType": "bool",
          "name": "",
          "type": "bool"
        }
      ],
      "stateMutability": "view",
      "type": "function"
    },
    {
      "inputs": [],
      "name": "medicalAccess",
      "outputs": [
        {
          "internalType": "contract IMedicalAccess",
          "name": "",
          "type": "address"
        }
      ],
      "stateMutability": "view",
      "type": "function"
    },
    {
      "inputs": [],
      "name": "prescriptionCount",
      "outputs": [
        {
          "internalType": "uint256",
          "name": "",
          "type": "uint256"
        }
      ],
      "stateMutability": "view",
      "type": "function"
    },
    {
      "inputs": [],
      "name": "prescriptionToken",
      "outputs": [
        {
          "internalType": "contract IPrescriptionToken",
          "name": "",
          "type": "address"
        }
      ],
      "stateMutability": "view",
      "type": "function"
    },
    {
      "inputs": [
        {
          "internalType": "bytes32",
          "name": "role",
          "type": "bytes32"
        },
        {
          "internalType": "address",
          "name": "callerConfirmation",
          "type": "address"
        }
      ],
      "name": "renounceRole",
      "outputs": [],
      "stateMutability": "nonpayable",
      "type": "function"
    },
    {
      "inputs": [
        {
          "internalType": "bytes32",
          "name": "role",
          "type": "bytes32"
        },
        {
          "internalType": "address",
          "name": "account",
          "type": "address"
        }
      ],
      "name": "revokeRole",
      "outputs": [],
      "stateMutability": "nonpayable",
      "type": "function"
    },
    {
      "inputs": [
        {
          "internalType": "address",
          "name": "_prescriptionToken",
          "type": "address"
        }
      ],
      "name": "setPrescriptionToken",
      "outputs": [],
      "stateMutability": "nonpayable",
      "type": "function"
    },
    {
      "inputs": [
        {
          "internalType": "bytes4",
          "name": "interfaceId",
          "type": "bytes4"
        }
      ],
      "name": "supportsInterface",
      "outputs": [
        {
          "internalType": "bool",
          "name": "",
          "type": "bool"
        }
      ],
      "stateMutability": "view",
      "type": "function"
    }
  ],
  "transactionHash": "0x2f0f7bcfd8854059835f79dbd385392af1f809ceec1469755d361929957b3561",
  "args": [
    "0x9fE46736679d2D9a65F0992F2272dE9f3c7fa6e0"
  ],
  "numDeployments": 1,
  "solcInputHash": "59ae38f1cb551820bd93d3d8a232d5e1",
  "bytecode": "0x608060405234801561001057600080fd5b5060405161284c38038061284c8339818101604052810190610032919061025f565b80600160006101000a81548173ffffffffffffffffffffffffffffffffffffffff021916908373ffffffffffffffffffffffffffffffffffffffff1602179055506100866000801b3361008d60201b60201c565b505061028c565b600061009f838361018a60201b60201c565b61017f57600160008085815260200190815260200160002060000160008473ffffffffffffffffffffffffffffffffffffffff1673ffffffffffffffffffffffffffffffffffffffff16815260200190815260200160002060006101000a81548160ff02191690831515021790555061011c6101f460201b60201c565b73ffffffffffffffffffffffffffffffffffffffff168273ffffffffffffffffffffffffffffffffffffffff16847f2f8788117e7eff1d82e926ec794901d17c78024a50270940304540a733656f0d60405160405180910390a460019050610184565b600090505b92915050565b600080600084815260200190815260200160002060000160008373ffffffffffffffffffffffffffffffffffffffff1673ffffffffffffffffffffffffffffffffffffffff16815260200190815260200160002060009054906101000a900460ff16905092915050565b600033905090565b600080fd5b600073ffffffffffffffffffffffffffffffffffffffff82169050919050565b600061022c82610201565b9050919050565b61023c81610221565b811461024757600080fd5b50565b60008151905061025981610233565b92915050565b600060208284031215610275576102746101fc565b5b60006102838482850161024a565b91505092915050565b6125b18061029b6000396000f3fe608060405234801561001057600080fd5b506004361061010b5760003560e01c80636f16af10116100a25780639652d4ab116100715780639652d4ab146102c8578063a217fddf146102e6578063a4c54e7714610304578063b655849814610334578063d547741f146103525761010b565b80636f16af101461021a57806381932ac41461024a5780638a462e1a1461026857806391d14854146102985761010b565b80632cb20441116100de5780632cb20441146101aa5780632f2ff15d146101c657806336568abe146101e2578063686e9062146101fe5761010b565b806301ffc9a7146101105780630c49e8401461014057806322c12a9b1461015c578063248a9ca31461017a575b600080fd5b61012a6004803603810190610125919061179e565b61036e565b60405161013791906117e6565b60405180910390f35b61015a6004803603810190610155919061185f565b6103e8565b005b61016461043a565b60405161017191906118a5565b60405180910390f35b610194600480360381019061018f91906118f6565b610444565b6040516101a19190611932565b60405180910390f35b6101c460048036038101906101bf91906119de565b610463565b005b6101e060048036038101906101db9190611a52565b610b22565b005b6101fc60048036038101906101f79190611a52565b610b44565b005b61021860048036038101906102139190611a92565b610bbf565b005b610234600480360381019061022f9190611a92565b610f71565b6040516102419190611c2c565b60405180910390f35b61025261116c565b60405161025f9190611cad565b60405180910390f35b610282600480360381019061027d919061185f565b611192565b60405161028f9190611d77565b60405180910390f35b6102b260048036038101906102ad9190611a52565b611229565b6040516102bf91906117e6565b60405180910390f35b6102d0611293565b6040516102dd9190611dba565b60405180910390f35b6102ee6112b9565b6040516102fb9190611932565b60405180910390f35b61031e6004803603810190610319919061185f565b6112c0565b60405161032b9190611d77565b60405180910390f35b61033c611357565b60405161034991906118a5565b60405180910390f35b61036c60048036038101906103679190611a52565b61135d565b005b60007f278871c5000000000000000000000000000000000000000000000000000000007bffffffffffffffffffffffffffffffffffffffffffffffffffffffff1916827bffffffffffffffffffffffffffffffffffffffffffffffffffffffff191614806103e157506103e08261137f565b5b9050919050565b6000801b6103f5816113f9565b81600260006101000a81548173ffffffffffffffffffffffffffffffffffffffff021916908373ffffffffffffffffffffffffffffffffffffffff1602179055505050565b6000600354905090565b6000806000838152602001908152602001600020600101549050919050565b600160009054906101000a900473ffffffffffffffffffffffffffffffffffffffff1673ffffffffffffffffffffffffffffffffffffffff16639f8a13d7336040518263ffffffff1660e01b81526004016104be9190611de4565b602060405180830381865afa1580156104db573d6000803e3d6000fd5b505050506040513d601f19601f820116820180604052508101906104ff9190611e2b565b61053e576040517f08c379a000000000000000000000000000000000000000000000000000000000815260040161053590611eb5565b60405180910390fd5b428311610580576040517f08c379a000000000000000000000000000000000000000000000000000000000815260040161057790611f21565b60405180910390fd5b600160009054906101000a900473ffffffffffffffffffffffffffffffffffffffff1673ffffffffffffffffffffffffffffffffffffffff166391d14854600160009054906101000a900473ffffffffffffffffffffffffffffffffffffffff1673ffffffffffffffffffffffffffffffffffffffff1663ac5cb97d6040518163ffffffff1660e01b8152600401602060405180830381865afa15801561062b573d6000803e3d6000fd5b505050506040513d601f19601f8201168201806040525081019061064f9190611f56565b866040518363ffffffff1660e01b815260040161066d929190611f83565b602060405180830381865afa15801561068a573d6000803e3d6000fd5b505050506040513d601f19601f820116820180604052508101906106ae9190611e2b565b6106ed576040517f08c379a00000000000000000000000000000000000000000000000000000000081526004016106e490611ff8565b60405180910390fd5b60006003600081546106fe90612047565b91905081905590506040518061010001604052803373ffffffffffffffffffffffffffffffffffffffff1681526020018673ffffffffffffffffffffffffffffffffffffffff16815260200142815260200185815260200184848080601f016020809104026020016040519081016040528093929190818152602001838380828437600081840152601f19601f820116905080830192505050505050508152602001600015158152602001600073ffffffffffffffffffffffffffffffffffffffff16815260200160008152506004600083815260200190815260200160002060008201518160000160006101000a81548173ffffffffffffffffffffffffffffffffffffffff021916908373ffffffffffffffffffffffffffffffffffffffff16021790555060208201518160010160006101000a81548173ffffffffffffffffffffffffffffffffffffffff021916908373ffffffffffffffffffffffffffffffffffffffff1602179055506040820151816002015560608201518160030155608082015181600401908161089591906122c0565b5060a08201518160050160006101000a81548160ff02191690831515021790555060c08201518160050160016101000a81548173ffffffffffffffffffffffffffffffffffffffff021916908373ffffffffffffffffffffffffffffffffffffffff16021790555060e08201518160060155905050600560008673ffffffffffffffffffffffffffffffffffffffff1673ffffffffffffffffffffffffffffffffffffffff168152602001908152602001600020819080600181540180825580915050600190039060005260206000200160009091909190915055600660003373ffffffffffffffffffffffffffffffffffffffff1673ffffffffffffffffffffffffffffffffffffffff168152602001908152602001600020819080600181540180825580915050600190039060005260206000200160009091909190915055600073ffffffffffffffffffffffffffffffffffffffff16600260009054906101000a900473ffffffffffffffffffffffffffffffffffffffff1673ffffffffffffffffffffffffffffffffffffffff1614610ac057600260009054906101000a900473ffffffffffffffffffffffffffffffffffffffff1673ffffffffffffffffffffffffffffffffffffffff1663d3fc9864868386866040518563ffffffff1660e01b8152600401610a8d94939291906123ce565b600060405180830381600087803b158015610aa757600080fd5b505af1158015610abb573d6000803e3d6000fd5b505050505b8473ffffffffffffffffffffffffffffffffffffffff163373ffffffffffffffffffffffffffffffffffffffff16827f71d940cbfc82410e0b18e63896ef651239da8c4875128cfa30d1637278d0267060405160405180910390a45050505050565b610b2b82610444565b610b34816113f9565b610b3e838361140d565b50505050565b610b4c6114fe565b73ffffffffffffffffffffffffffffffffffffffff168173ffffffffffffffffffffffffffffffffffffffff1614610bb0576040517f6697b23200000000000000000000000000000000000000000000000000000000815260040160405180910390fd5b610bba8282611506565b505050565b600160009054906101000a900473ffffffffffffffffffffffffffffffffffffffff1673ffffffffffffffffffffffffffffffffffffffff166356f25d27336040518263ffffffff1660e01b8152600401610c1a9190611de4565b602060405180830381865afa158015610c37573d6000803e3d6000fd5b505050506040513d601f19601f82011682018060405250810190610c5b9190611e2b565b610c9a576040517f08c379a0000000000000000000000000000000000000000000000000000000008152600401610c9190611eb5565b60405180910390fd5b6000600460008381526020019081526020016000209050600073ffffffffffffffffffffffffffffffffffffffff168160000160009054906101000a900473ffffffffffffffffffffffffffffffffffffffff1673ffffffffffffffffffffffffffffffffffffffff1603610d44576040517f08c379a0000000000000000000000000000000000000000000000000000000008152600401610d3b9061245a565b60405180910390fd5b8060050160009054906101000a900460ff1615610d96576040517f08c379a0000000000000000000000000000000000000000000000000000000008152600401610d8d906124c6565b60405180910390fd5b42816003015411610ddc576040517f08c379a0000000000000000000000000000000000000000000000000000000008152600401610dd390612532565b60405180910390fd5b60018160050160006101000a81548160ff021916908315150217905550338160050160016101000a81548173ffffffffffffffffffffffffffffffffffffffff021916908373ffffffffffffffffffffffffffffffffffffffff160217905550428160060181905550600073ffffffffffffffffffffffffffffffffffffffff16600260009054906101000a900473ffffffffffffffffffffffffffffffffffffffff1673ffffffffffffffffffffffffffffffffffffffff1614610f2957600260009054906101000a900473ffffffffffffffffffffffffffffffffffffffff1673ffffffffffffffffffffffffffffffffffffffff166342966c68836040518263ffffffff1660e01b8152600401610ef691906118a5565b600060405180830381600087803b158015610f1057600080fd5b505af1158015610f24573d6000803e3d6000fd5b505050505b3373ffffffffffffffffffffffffffffffffffffffff16827f1fd747d593a3abe3d63a6823e8452fc4a810ea6aedf557a8fd0e6af7db71f4b660405160405180910390a35050565b610f796116b3565b60046000838152602001908152602001600020604051806101000160405290816000820160009054906101000a900473ffffffffffffffffffffffffffffffffffffffff1673ffffffffffffffffffffffffffffffffffffffff1673ffffffffffffffffffffffffffffffffffffffff1681526020016001820160009054906101000a900473ffffffffffffffffffffffffffffffffffffffff1673ffffffffffffffffffffffffffffffffffffffff1673ffffffffffffffffffffffffffffffffffffffff1681526020016002820154815260200160038201548152602001600482018054611068906120ed565b80601f0160208091040260200160405190810160405280929190818152602001828054611094906120ed565b80156110e15780601f106110b6576101008083540402835291602001916110e1565b820191906000526020600020905b8154815290600101906020018083116110c457829003601f168201915b505050505081526020016005820160009054906101000a900460ff161515151581526020016005820160019054906101000a900473ffffffffffffffffffffffffffffffffffffffff1673ffffffffffffffffffffffffffffffffffffffff1673ffffffffffffffffffffffffffffffffffffffff1681526020016006820154815250509050919050565b600160009054906101000a900473ffffffffffffffffffffffffffffffffffffffff1681565b6060600560008373ffffffffffffffffffffffffffffffffffffffff1673ffffffffffffffffffffffffffffffffffffffff16815260200190815260200160002080548060200260200160405190810160405280929190818152602001828054801561121d57602002820191906000526020600020905b815481526020019060010190808311611209575b50505050509050919050565b600080600084815260200190815260200160002060000160008373ffffffffffffffffffffffffffffffffffffffff1673ffffffffffffffffffffffffffffffffffffffff16815260200190815260200160002060009054906101000a900460ff16905092915050565b600260009054906101000a900473ffffffffffffffffffffffffffffffffffffffff1681565b6000801b81565b6060600660008373ffffffffffffffffffffffffffffffffffffffff1673ffffffffffffffffffffffffffffffffffffffff16815260200190815260200160002080548060200260200160405190810160405280929190818152602001828054801561134b57602002820191906000526020600020905b815481526020019060010190808311611337575b50505050509050919050565b60035481565b61136682610444565b61136f816113f9565b6113798383611506565b50505050565b60007f7965db0b000000000000000000000000000000000000000000000000000000007bffffffffffffffffffffffffffffffffffffffffffffffffffffffff1916827bffffffffffffffffffffffffffffffffffffffffffffffffffffffff191614806113f257506113f1826115f8565b5b9050919050565b61140a816114056114fe565b611662565b50565b60006114198383611229565b6114f357600160008085815260200190815260200160002060000160008473ffffffffffffffffffffffffffffffffffffffff1673ffffffffffffffffffffffffffffffffffffffff16815260200190815260200160002060006101000a81548160ff0219169083151502179055506114906114fe565b73ffffffffffffffffffffffffffffffffffffffff168273ffffffffffffffffffffffffffffffffffffffff16847f2f8788117e7eff1d82e926ec794901d17c78024a50270940304540a733656f0d60405160405180910390a4600190506114f8565b600090505b92915050565b600033905090565b60006115128383611229565b156115ed57600080600085815260200190815260200160002060000160008473ffffffffffffffffffffffffffffffffffffffff1673ffffffffffffffffffffffffffffffffffffffff16815260200190815260200160002060006101000a81548160ff02191690831515021790555061158a6114fe565b73ffffffffffffffffffffffffffffffffffffffff168273ffffffffffffffffffffffffffffffffffffffff16847ff6391f5c32d9c69d2a47ea670b442974b53935d1edc7fd64eb21e047a839171b60405160405180910390a4600190506115f2565b600090505b92915050565b60007f01ffc9a7000000000000000000000000000000000000000000000000000000007bffffffffffffffffffffffffffffffffffffffffffffffffffffffff1916827bffffffffffffffffffffffffffffffffffffffffffffffffffffffff1916149050919050565b61166c8282611229565b6116af5780826040517fe2517d3f0000000000000000000000000000000000000000000000000000000081526004016116a6929190612552565b60405180910390fd5b5050565b604051806101000160405280600073ffffffffffffffffffffffffffffffffffffffff168152602001600073ffffffffffffffffffffffffffffffffffffffff168152602001600081526020016000815260200160608152602001600015158152602001600073ffffffffffffffffffffffffffffffffffffffff168152602001600081525090565b600080fd5b600080fd5b60007fffffffff0000000000000000000000000000000000000000000000000000000082169050919050565b61177b81611746565b811461178657600080fd5b50565b60008135905061179881611772565b92915050565b6000602082840312156117b4576117b361173c565b5b60006117c284828501611789565b91505092915050565b60008115159050919050565b6117e0816117cb565b82525050565b60006020820190506117fb60008301846117d7565b92915050565b600073ffffffffffffffffffffffffffffffffffffffff82169050919050565b600061182c82611801565b9050919050565b61183c81611821565b811461184757600080fd5b50565b60008135905061185981611833565b92915050565b6000602082840312156118755761187461173c565b5b60006118838482850161184a565b91505092915050565b6000819050919050565b61189f8161188c565b82525050565b60006020820190506118ba6000830184611896565b92915050565b6000819050919050565b6118d3816118c0565b81146118de57600080fd5b50565b6000813590506118f0816118ca565b92915050565b60006020828403121561190c5761190b61173c565b5b600061191a848285016118e1565b91505092915050565b61192c816118c0565b82525050565b60006020820190506119476000830184611923565b92915050565b6119568161188c565b811461196157600080fd5b50565b6000813590506119738161194d565b92915050565b600080fd5b600080fd5b600080fd5b60008083601f84011261199e5761199d611979565b5b8235905067ffffffffffffffff8111156119bb576119ba61197e565b5b6020830191508360018202830111156119d7576119d6611983565b5b9250929050565b600080600080606085870312156119f8576119f761173c565b5b6000611a068782880161184a565b9450506020611a1787828801611964565b935050604085013567ffffffffffffffff811115611a3857611a37611741565b5b611a4487828801611988565b925092505092959194509250565b60008060408385031215611a6957611a6861173c565b5b6000611a77858286016118e1565b9250506020611a888582860161184a565b9150509250929050565b600060208284031215611aa857611aa761173c565b5b6000611ab684828501611964565b91505092915050565b611ac881611821565b82525050565b611ad78161188c565b82525050565b600081519050919050565b600082825260208201905092915050565b60005b83811015611b17578082015181840152602081019050611afc565b60008484015250505050565b6000601f19601f8301169050919050565b6000611b3f82611add565b611b498185611ae8565b9350611b59818560208601611af9565b611b6281611b23565b840191505092915050565b611b76816117cb565b82525050565b600061010083016000830151611b956000860182611abf565b506020830151611ba86020860182611abf565b506040830151611bbb6040860182611ace565b506060830151611bce6060860182611ace565b5060808301518482036080860152611be68282611b34565b91505060a0830151611bfb60a0860182611b6d565b5060c0830151611c0e60c0860182611abf565b5060e0830151611c2160e0860182611ace565b508091505092915050565b60006020820190508181036000830152611c468184611b7c565b905092915050565b6000819050919050565b6000611c73611c6e611c6984611801565b611c4e565b611801565b9050919050565b6000611c8582611c58565b9050919050565b6000611c9782611c7a565b9050919050565b611ca781611c8c565b82525050565b6000602082019050611cc26000830184611c9e565b92915050565b600081519050919050565b600082825260208201905092915050565b6000819050602082019050919050565b6000611d008383611ace565b60208301905092915050565b6000602082019050919050565b6000611d2482611cc8565b611d2e8185611cd3565b9350611d3983611ce4565b8060005b83811015611d6a578151611d518882611cf4565b9750611d5c83611d0c565b925050600181019050611d3d565b5085935050505092915050565b60006020820190508181036000830152611d918184611d19565b905092915050565b6000611da482611c7a565b9050919050565b611db481611d99565b82525050565b6000602082019050611dcf6000830184611dab565b92915050565b611dde81611821565b82525050565b6000602082019050611df96000830184611dd5565b92915050565b611e08816117cb565b8114611e1357600080fd5b50565b600081519050611e2581611dff565b92915050565b600060208284031215611e4157611e4061173c565b5b6000611e4f84828501611e16565b91505092915050565b600082825260208201905092915050565b7f556e617574686f72697a65640000000000000000000000000000000000000000600082015250565b6000611e9f600c83611e58565b9150611eaa82611e69565b602082019050919050565b60006020820190508181036000830152611ece81611e92565b9050919050565b7f496e76616c696420657870697279000000000000000000000000000000000000600082015250565b6000611f0b600e83611e58565b9150611f1682611ed5565b602082019050919050565b60006020820190508181036000830152611f3a81611efe565b9050919050565b600081519050611f50816118ca565b92915050565b600060208284031215611f6c57611f6b61173c565b5b6000611f7a84828501611f41565b91505092915050565b6000604082019050611f986000830185611923565b611fa56020830184611dd5565b9392505050565b7f496e76616c69642070617469656e740000000000000000000000000000000000600082015250565b6000611fe2600f83611e58565b9150611fed82611fac565b602082019050919050565b6000602082019050818103600083015261201181611fd5565b9050919050565b7f4e487b7100000000000000000000000000000000000000000000000000000000600052601160045260246000fd5b60006120528261188c565b91507fffffffffffffffffffffffffffffffffffffffffffffffffffffffffffffffff820361208457612083612018565b5b600182019050919050565b7f4e487b7100000000000000000000000000000000000000000000000000000000600052604160045260246000fd5b7f4e487b7100000000000000000000000000000000000000000000000000000000600052602260045260246000fd5b6000600282049050600182168061210557607f821691505b602082108103612118576121176120be565b5b50919050565b60008190508160005260206000209050919050565b60006020601f8301049050919050565b600082821b905092915050565b6000600883026121807fffffffffffffffffffffffffffffffffffffffffffffffffffffffffffffffff82612143565b61218a8683612143565b95508019841693508086168417925050509392505050565b60006121bd6121b86121b38461188c565b611c4e565b61188c565b9050919050565b6000819050919050565b6121d7836121a2565b6121eb6121e3826121c4565b848454612150565b825550505050565b600090565b6122006121f3565b61220b8184846121ce565b505050565b5b8181101561222f576122246000826121f8565b600181019050612211565b5050565b601f821115612274576122458161211e565b61224e84612133565b8101602085101561225d578190505b61227161226985612133565b830182612210565b50505b505050565b600082821c905092915050565b600061229760001984600802612279565b1980831691505092915050565b60006122b08383612286565b9150826002028217905092915050565b6122c982611add565b67ffffffffffffffff8111156122e2576122e161208f565b5b6122ec82546120ed565b6122f7828285612233565b600060209050601f83116001811461232a5760008415612318578287015190505b61232285826122a4565b86555061238a565b601f1984166123388661211e565b60005b828110156123605784890151825560018201915060208501945060208101905061233b565b8683101561237d5784890151612379601f891682612286565b8355505b6001600288020188555050505b505050505050565b82818337600083830152505050565b60006123ad8385611e58565b93506123ba838584612392565b6123c383611b23565b840190509392505050565b60006060820190506123e36000830187611dd5565b6123f06020830186611896565b81810360408301526124038184866123a1565b905095945050505050565b7f496e76616c696420707265736372697074696f6e000000000000000000000000600082015250565b6000612444601483611e58565b915061244f8261240e565b602082019050919050565b6000602082019050818103600083015261247381612437565b9050919050565b7f416c72656164792066756c66696c6c6564000000000000000000000000000000600082015250565b60006124b0601183611e58565b91506124bb8261247a565b602082019050919050565b600060208201905081810360008301526124df816124a3565b9050919050565b7f507265736372697074696f6e2065787069726564000000000000000000000000600082015250565b600061251c601483611e58565b9150612527826124e6565b602082019050919050565b6000602082019050818103600083015261254b8161250f565b9050919050565b60006040820190506125676000830185611dd5565b6125746020830184611923565b939250505056fea2646970667358221220ce8a625d1f3741869b1a2b1182bbcd505d37c1af7095b20faa4794cc6135257a64736f6c634300081c0033",
  "devdoc": {
    "errors": {
      "AccessControlBadConfirmation()": [
        {
          "details": "The caller of a function is not the expected one. NOTE: Don't confuse with {AccessControlUnauthorizedAccount}."
        }
      ],
      "AccessControlUnauthorizedAccount(address,bytes32)": [
        {
          "details": "The `account` is missing a role."
        }
      ]
    },
    "events": {
      "RoleAdminChanged(bytes32,bytes32,bytes32)": {
        "details": "Emitted when `newAdminRole` is set as ``role``'s admin role, replacing `previousAdminRole` `DEFAULT_ADMIN_ROLE` is the starting admin for all roles, despite {RoleAdminChanged} not being emitted to signal this."
      },
      "RoleGranted(bytes32,address,address)": {
        "details": "Emitted when `account` is granted `role`. `sender` is the account that originated the contract call. This account bears the admin role (for the granted role). Expected in cases where the role was granted using the internal {AccessControl-_grantRole}."
      },
      "RoleRevoked(bytes32,address,address)": {
        "details": "Emitted when `account` is revoked `role`. `sender` is the account that originated the contract call:   - if using `revokeRole`, it is the admin role bearer   - if using `renounceRole`, it is the role bearer (i.e. `account`)"
      }
    },
    "kind": "dev",
    "methods": {
      "getRoleAdmin(bytes32)": {
        "details": "Returns the admin role that controls `role`. See {grantRole} and {revokeRole}. To change a role's admin, use {_setRoleAdmin}."
      },
      "grantRole(bytes32,address)": {
        "details": "Grants `role` to `account`. If `account` had not been already granted `role`, emits a {RoleGranted} event. Requirements: - the caller must have ``role``'s admin role. May emit a {RoleGranted} event."
      },
      "hasRole(bytes32,address)": {
        "details": "Returns `true` if `account` has been granted `role`."
      },
      "renounceRole(bytes32,address)": {
        "details": "Revokes `role` from the calling account. Roles are often managed via {grantRole} and {revokeRole}: this function's purpose is to provide a mechanism for accounts to lose their privileges if they are compromised (such as when a trusted device is misplaced). If the calling account had been revoked `role`, emits a {RoleRevoked} event. Requirements: - the caller must be `callerConfirmation`. May emit a {RoleRevoked} event."
      },
      "revokeRole(bytes32,address)": {
        "details": "Revokes `role` from `account`. If `account` had been granted `role`, emits a {RoleRevoked} event. Requirements: - the caller must have ``role``'s admin role. May emit a {RoleRevoked} event."
      },
      "supportsInterface(bytes4)": {
        "details": "See {IERC165-supportsInterface}."
      }
    },
    "version": 1
  },
  "userdoc": {
    "kind": "user",
    "methods": {},
    "version": 1
  },
  "storageLayout": {
    "storage": [
      {
        "astId": 26,
        "contract": "contracts/prescription/PrescriptionRegistry.sol:PrescriptionRegistry",
        "label": "_roles",
        "offset": 0,
        "slot": "0",
        "type": "t_mapping(t_bytes32,t_struct(RoleData)21_storage)"
      },
      {
        "astId": 3023,
        "contract": "contracts/prescription/PrescriptionRegistry.sol:PrescriptionRegistry",
        "label": "medicalAccess",
        "offset": 0,
        "slot": "1",
        "type": "t_contract(IMedicalAccess)1934"
      },
      {
        "astId": 3026,
        "contract": "contracts/prescription/PrescriptionRegistry.sol:PrescriptionRegistry",
        "label": "prescriptionToken",
        "offset": 0,
        "slot": "2",
        "type": "t_contract(IPrescriptionToken)2048"
      },
      {
        "astId": 3028,
        "contract": "contracts/prescription/PrescriptionRegistry.sol:PrescriptionRegistry",
        "label": "prescriptionCount",
        "offset": 0,
        "slot": "3",
        "type": "t_uint256"
      },
      {
        "astId": 3033,
        "contract": "contracts/prescription/PrescriptionRegistry.sol:PrescriptionRegistry",
        "label": "_prescriptions",
        "offset": 0,
        "slot": "4",
        "type": "t_mapping(t_uint256,t_struct(Prescription)1953_storage)"
      },
      {
        "astId": 3038,
        "contract": "contracts/prescription/PrescriptionRegistry.sol:PrescriptionRegistry",
        "label": "_patientPrescriptions",
        "offset": 0,
        "slot": "5",
        "type": "t_mapping(t_address,t_array(t_uint256)dyn_storage)"
      },
      {
        "astId": 3043,
        "contract": "contracts/prescription/PrescriptionRegistry.sol:PrescriptionRegistry",
        "label": "_doctorPrescriptions",
        "offset": 0,
        "slot": "6",
        "type": "t_mapping(t_address,t_array(t_uint256)dyn_storage)"
      }
    ],
    "types": {
      "t_address": {
        "encoding": "inplace",
        "label": "address",
        "numberOfBytes": "20"
      },
      "t_array(t_uint256)dyn_storage": {
        "base": "t_uint256",
        "encoding": "dynamic_array",
        "label": "uint256[]",
        "numberOfBytes": "32"
      },
      "t_bool": {
        "encoding": "inplace",
        "label": "bool",
        "numberOfBytes": "1"
      },
      "t_bytes32": {
        "encoding": "inplace",
        "label": "bytes32",
        "numberOfBytes": "32"
      },
      "t_contract(IMedicalAccess)1934": {
        "encoding": "inplace",
        "label": "contract IMedicalAccess",
        "numberOfBytes": "20"
      },
      "t_contract(IPrescriptionToken)2048": {
        "encoding": "inplace",
        "label": "contract IPrescriptionToken",
        "numberOfBytes": "20"
      },
      "t_mapping(t_address,t_array(t_uint256)dyn_storage)": {
        "encoding": "mapping",
        "key": "t_address",
        "label": "mapping(address => uint256[])",
        "numberOfBytes": "32",
        "value": "t_array(t_uint256)dyn_storage"
      },
      "t_mapping(t_address,t_bool)": {
        "encoding": "mapping",
        "key": "t_address",
        "label": "mapping(address => bool)",
        "numberOfBytes": "32",
        "value": "t_bool"
      },
      "t_mapping(t_bytes32,t_struct(RoleData)21_storage)": {
        "encoding": "mapping",
        "key": "t_bytes32",
        "label": "mapping(bytes32 => struct AccessControl.RoleData)",
        "numberOfBytes": "32",
        "value": "t_struct(RoleData)21_storage"
      },
      "t_mapping(t_uint256,t_struct(Prescription)1953_storage)": {
        "encoding": "mapping",
        "key": "t_uint256",
        "label": "mapping(uint256 => struct IPrescriptionRegistry.Prescription)",
        "numberOfBytes": "32",
        "value": "t_struct(Prescription)1953_storage"
      },
      "t_string_storage": {
        "encoding": "bytes",
        "label": "string",
        "numberOfBytes": "32"
      },
      "t_struct(Prescription)1953_storage": {
        "encoding": "inplace",
        "label": "struct IPrescriptionRegistry.Prescription",
        "members": [
          {
            "astId": 1938,
            "contract": "contracts/prescription/PrescriptionRegistry.sol:PrescriptionRegistry",
            "label": "doctor",
            "offset": 0,
            "slot": "0",
            "type": "t_address"
          },
          {
            "astId": 1940,
            "contract": "contracts/prescription/PrescriptionRegistry.sol:PrescriptionRegistry",
            "label": "patient",
            "offset": 0,
            "slot": "1",
            "type": "t_address"
          },
          {
            "astId": 1942,
            "contract": "contracts/prescription/PrescriptionRegistry.sol:PrescriptionRegistry",
            "label": "issueDate",
            "offset": 0,
            "slot": "2",
            "type": "t_uint256"
          },
          {
            "astId": 1944,
            "contract": "contracts/prescription/PrescriptionRegistry.sol:PrescriptionRegistry",
            "label": "expiryDate",
            "offset": 0,
            "slot": "3",
            "type": "t_uint256"
          },
          {
            "astId": 1946,
            "contract": "contracts/prescription/PrescriptionRegistry.sol:PrescriptionRegistry",
            "label": "prescriptionHash",
            "offset": 0,
            "slot": "4",
            "type": "t_string_storage"
          },
          {
            "astId": 1948,
            "contract": "contracts/prescription/PrescriptionRegistry.sol:PrescriptionRegistry",
            "label": "isFulfilled",
            "offset": 0,
            "slot": "5",
            "type": "t_bool"
          },
          {
            "astId": 1950,
            "contract": "contracts/prescription/PrescriptionRegistry.sol:PrescriptionRegistry",
            "label": "fulfilledBy",
            "offset": 1,
            "slot": "5",
            "type": "t_address"
          },
          {
            "astId": 1952,
            "contract": "contracts/prescription/PrescriptionRegistry.sol:PrescriptionRegistry",
            "label": "fulfillmentDate",
            "offset": 0,
            "slot": "6",
            "type": "t_uint256"
          }
        ],
        "numberOfBytes": "224"
      },
      "t_struct(RoleData)21_storage": {
        "encoding": "inplace",
        "label": "struct AccessControl.RoleData",
        "members": [
          {
            "astId": 18,
            "contract": "contracts/prescription/PrescriptionRegistry.sol:PrescriptionRegistry",
            "label": "hasRole",
            "offset": 0,
            "slot": "0",
            "type": "t_mapping(t_address,t_bool)"
          },
          {
            "astId": 20,
            "contract": "contracts/prescription/PrescriptionRegistry.sol:PrescriptionRegistry",
            "label": "adminRole",
            "offset": 0,
            "slot": "1",
            "type": "t_bytes32"
          }
        ],
        "numberOfBytes": "64"
      },
      "t_uint256": {
        "encoding": "inplace",
        "label": "uint256",
        "numberOfBytes": "32"
      }
    }
  }
}