{
  "address": "0x9fE46736679d2D9a65F0992F2272dE9f3c7fa6e0",
  "abi": [
    {
      "inputs": [
        {
          "internalType": "address",
          "name": "_medicalAccess",
          "type": "address"
        },
        {
          "internalType": "address",
          "name": "doctorAddress",
          "type": "address"
        },
        {
          "internalType": "address",
          "name": "pharmacistAddress",
          "type": "address"
        }
      ],
      "stateMutability": "nonpayable",
      "type": "constructor"
    },
    {
      "inputs": [],
      "name": "AccessControlBadConfirmation",
      "type": "error"
    },
    {
      "inputs": [
        {
          "internalType": "address",
          "name": "account",
          "type": "address"
        },
        {
          "internalType": "bytes32",
          "name": "neededRole",
          "type": "bytes32"
        }
      ],
      "name": "AccessControlUnauthorizedAccount",
      "type": "error"
    },
    {
      "inputs": [
        {
          "internalType": "uint256",
          "name": "value",
          "type": "uint256"
        },
        {
          "internalType": "uint256",
          "name": "length",
          "type": "uint256"
        }
      ],
      "name": "StringsInsufficientHexLength",
      "type": "error"
    },
    {
      "anonymous": false,
      "inputs": [
        {
          "indexed": true,
          "internalType": "uint256",
          "name": "prescriptionId",
          "type": "uint256"
        },
        {
          "indexed": true,
          "internalType": "address",
          "name": "doctor",
          "type": "address"
        },
        {
          "indexed": true,
          "internalType": "address",
          "name": "patient",
          "type": "address"
        }
      ],
      "name": "PrescriptionCreated",
      "type": "event"
    },
    {
      "anonymous": false,
      "inputs": [
        {
          "indexed": true,
          "internalType": "uint256",
          "name": "prescriptionId",
          "type": "uint256"
        },
        {
          "indexed": true,
          "internalType": "address",
          "name": "pharmacist",
          "type": "address"
        }
      ],
      "name": "PrescriptionFulfilled",
      "type": "event"
    },
    {
      "anonymous": false,
      "inputs": [
        {
          "indexed": true,
          "internalType": "bytes32",
          "name": "role",
          "type": "bytes32"
        },
        {
          "indexed": true,
          "internalType": "bytes32",
          "name": "previousAdminRole",
          "type": "bytes32"
        },
        {
          "indexed": true,
          "internalType": "bytes32",
          "name": "newAdminRole",
          "type": "bytes32"
        }
      ],
      "name": "RoleAdminChanged",
      "type": "event"
    },
    {
      "anonymous": false,
      "inputs": [
        {
          "indexed": true,
          "internalType": "bytes32",
          "name": "role",
          "type": "bytes32"
        },
        {
          "indexed": true,
          "internalType": "address",
          "name": "account",
          "type": "address"
        },
        {
          "indexed": true,
          "internalType": "address",
          "name": "sender",
          "type": "address"
        }
      ],
      "name": "RoleGranted",
      "type": "event"
    },
    {
      "anonymous": false,
      "inputs": [
        {
          "indexed": true,
          "internalType": "bytes32",
          "name": "role",
          "type": "bytes32"
        },
        {
          "indexed": true,
          "internalType": "address",
          "name": "account",
          "type": "address"
        },
        {
          "indexed": true,
          "internalType": "address",
          "name": "sender",
          "type": "address"
        }
      ],
      "name": "RoleRevoked",
      "type": "event"
    },
    {
      "inputs": [],
      "name": "DEFAULT_ADMIN_ROLE",
      "outputs": [
        {
          "internalType": "bytes32",
          "name": "",
          "type": "bytes32"
        }
      ],
      "stateMutability": "view",
      "type": "function"
    },
    {
      "inputs": [],
      "name": "DOCTOR_ROLE",
      "outputs": [
        {
          "internalType": "bytes32",
          "name": "",
          "type": "bytes32"
        }
      ],
      "stateMutability": "view",
      "type": "function"
    },
    {
      "inputs": [],
      "name": "PHARMACIST_ROLE",
      "outputs": [
        {
          "internalType": "bytes32",
          "name": "",
          "type": "bytes32"
        }
      ],
      "stateMutability": "view",
      "type": "function"
    },
    {
      "inputs": [
        {
          "internalType": "address",
          "name": "patient",
          "type": "address"
        },
        {
          "internalType": "uint256",
          "name": "expiryDate",
          "type": "uint256"
        },
        {
          "internalType": "string",
          "name": "prescriptionHash",
          "type": "string"
        }
      ],
      "name": "createPrescription",
      "outputs": [],
      "stateMutability": "nonpayable",
      "type": "function"
    },
    {
      "inputs": [
        {
          "internalType": "uint256",
          "name": "prescriptionId",
          "type": "uint256"
        }
      ],
      "name": "fulfillPrescription",
      "outputs": [],
      "stateMutability": "nonpayable",
      "type": "function"
    },
    {
      "inputs": [
        {
          "internalType": "address",
          "name": "doctor",
          "type": "address"
        }
      ],
      "name": "getDoctorPrescriptions",
      "outputs": [
        {
          "internalType": "uint256[]",
          "name": "",
          "type": "uint256[]"
        }
      ],
      "stateMutability": "view",
      "type": "function"
    },
    {
      "inputs": [
        {
          "internalType": "address",
          "name": "patient",
          "type": "address"
        }
      ],
      "name": "getPatientPrescriptions",
      "outputs": [
        {
          "internalType": "uint256[]",
          "name": "",
          "type": "uint256[]"
        }
      ],
      "stateMutability": "view",
      "type": "function"
    },
    {
      "inputs": [
        {
          "internalType": "uint256",
          "name": "prescriptionId",
          "type": "uint256"
        }
      ],
      "name": "getPrescription",
      "outputs": [
        {
          "components": [
            {
              "internalType": "address",
              "name": "doctor",
              "type": "address"
            },
            {
              "internalType": "address",
              "name": "patient",
              "type": "address"
            },
            {
              "internalType": "uint256",
              "name": "issueDate",
              "type": "uint256"
            },
            {
              "internalType": "uint256",
              "name": "expiryDate",
              "type": "uint256"
            },
            {
              "internalType": "string",
              "name": "prescriptionHash",
              "type": "string"
            },
            {
              "internalType": "bool",
              "name": "isFulfilled",
              "type": "bool"
            },
            {
              "internalType": "address",
              "name": "fulfilledBy",
              "type": "address"
            },
            {
              "internalType": "uint256",
              "name": "fulfillmentDate",
              "type": "uint256"
            }
          ],
          "internalType": "struct IPrescriptionRegistry.Prescription",
          "name": "",
          "type": "tuple"
        }
      ],
      "stateMutability": "view",
      "type": "function"
    },
    {
      "inputs": [],
      "name": "getPrescriptionCount",
      "outputs": [
        {
          "internalType": "uint256",
          "name": "",
          "type": "uint256"
        }
      ],
      "stateMutability": "view",
      "type": "function"
    },
    {
      "inputs": [
        {
          "internalType": "bytes32",
          "name": "role",
          "type": "bytes32"
        }
      ],
      "name": "getRoleAdmin",
      "outputs": [
        {
          "internalType": "bytes32",
          "name": "",
          "type": "bytes32"
        }
      ],
      "stateMutability": "view",
      "type": "function"
    },
    {
      "inputs": [
        {
          "internalType": "bytes32",
          "name": "role",
          "type": "bytes32"
        },
        {
          "internalType": "address",
          "name": "account",
          "type": "address"
        }
      ],
      "name": "grantRole",
      "outputs": [],
      "stateMutability": "nonpayable",
      "type": "function"
    },
    {
      "inputs": [
        {
          "internalType": "bytes32",
          "name": "role",
          "type": "bytes32"
        },
        {
          "internalType": "address",
          "name": "account",
          "type": "address"
        }
      ],
      "name": "hasRole",
      "outputs": [
        {
          "internalType": "bool",
          "name": "",
          "type": "bool"
        }
      ],
      "stateMutability": "view",
      "type": "function"
    },
    {
      "inputs": [],
      "name": "medicalAccess",
      "outputs": [
        {
          "internalType": "contract IMedicalAccess",
          "name": "",
          "type": "address"
        }
      ],
      "stateMutability": "view",
      "type": "function"
    },
    {
      "inputs": [],
      "name": "prescriptionCount",
      "outputs": [
        {
          "internalType": "uint256",
          "name": "",
          "type": "uint256"
        }
      ],
      "stateMutability": "view",
      "type": "function"
    },
    {
      "inputs": [],
      "name": "prescriptionToken",
      "outputs": [
        {
          "internalType": "contract IPrescriptionToken",
          "name": "",
          "type": "address"
        }
      ],
      "stateMutability": "view",
      "type": "function"
    },
    {
      "inputs": [
        {
          "internalType": "bytes32",
          "name": "role",
          "type": "bytes32"
        },
        {
          "internalType": "address",
          "name": "callerConfirmation",
          "type": "address"
        }
      ],
      "name": "renounceRole",
      "outputs": [],
      "stateMutability": "nonpayable",
      "type": "function"
    },
    {
      "inputs": [
        {
          "internalType": "bytes32",
          "name": "role",
          "type": "bytes32"
        },
        {
          "internalType": "address",
          "name": "account",
          "type": "address"
        }
      ],
      "name": "revokeRole",
      "outputs": [],
      "stateMutability": "nonpayable",
      "type": "function"
    },
    {
      "inputs": [
        {
          "internalType": "address",
          "name": "_prescriptionToken",
          "type": "address"
        }
      ],
      "name": "setPrescriptionToken",
      "outputs": [],
      "stateMutability": "nonpayable",
      "type": "function"
    },
    {
      "inputs": [
        {
          "internalType": "bytes4",
          "name": "interfaceId",
          "type": "bytes4"
        }
      ],
      "name": "supportsInterface",
      "outputs": [
        {
          "internalType": "bool",
          "name": "",
          "type": "bool"
        }
      ],
      "stateMutability": "view",
      "type": "function"
    }
  ],
  "transactionHash": "0x30ff10daef1fa153db82dbaa5af0dadbbf6209ed0b662c40baf651a1dca3660f",
  "args": [
    "0x5FbDB2315678afecb367f032d93F642f64180aa3",
    "0x0000000000000000000000000000000000000000",
    "0x0000000000000000000000000000000000000000"
  ],
  "numDeployments": 1,
  "solcInputHash": "25b2e4f4af9076b5a9bc7238fb33d809",
  "bytecode": "0x608060405234801561001057600080fd5b5060405161350e38038061350e833981810160405281019061003291906103a9565b82600160006101000a81548173ffffffffffffffffffffffffffffffffffffffff021916908373ffffffffffffffffffffffffffffffffffffffff1602179055506100866000801b3361015760201b60201c565b506100b77f0af1dac7dea2fd7f7738119cec7df099dfad49aa9d2e7d17ba6b60f63ae7411f8361015760201b60201c565b506100e87fc2d498fa6734073871a6dde33c56174c52423804118e0d5b66171fad3494de688261015760201b60201c565b5061011c7f0af1dac7dea2fd7f7738119cec7df099dfad49aa9d2e7d17ba6b60f63ae7411f6000801b61025460201b60201c565b61014f7fc2d498fa6734073871a6dde33c56174c52423804118e0d5b66171fad3494de686000801b61025460201b60201c565b5050506103fc565b600061016983836102b560201b60201c565b61024957600160008085815260200190815260200160002060000160008473ffffffffffffffffffffffffffffffffffffffff1673ffffffffffffffffffffffffffffffffffffffff16815260200190815260200160002060006101000a81548160ff0219169083151502179055506101e661031f60201b60201c565b73ffffffffffffffffffffffffffffffffffffffff168273ffffffffffffffffffffffffffffffffffffffff16847f2f8788117e7eff1d82e926ec794901d17c78024a50270940304540a733656f0d60405160405180910390a46001905061024e565b600090505b92915050565b60006102658361032760201b60201c565b905081600080858152602001908152602001600020600101819055508181847fbd79b86ffe0ab8e8776151514217cd7cacd52c909f66475c3af44e129f0b00ff60405160405180910390a4505050565b600080600084815260200190815260200160002060000160008373ffffffffffffffffffffffffffffffffffffffff1673ffffffffffffffffffffffffffffffffffffffff16815260200190815260200160002060009054906101000a900460ff16905092915050565b600033905090565b6000806000838152602001908152602001600020600101549050919050565b600080fd5b600073ffffffffffffffffffffffffffffffffffffffff82169050919050565b60006103768261034b565b9050919050565b6103868161036b565b811461039157600080fd5b50565b6000815190506103a38161037d565b92915050565b6000806000606084860312156103c2576103c1610346565b5b60006103d086828701610394565b93505060206103e186828701610394565b92505060406103f286828701610394565b9150509250925092565b6131038061040b6000396000f3fe608060405234801561001057600080fd5b50600436106101215760003560e01c806381932ac4116100ad578063a4c54e7711610071578063a4c54e771461031a578063b65584981461034a578063c532d9fa14610368578063d547741f14610386578063fec331f2146103a257610121565b806381932ac4146102605780638a462e1a1461027e57806391d14854146102ae5780639652d4ab146102de578063a217fddf146102fc57610121565b80632cb20441116100f45780632cb20441146101c05780632f2ff15d146101dc57806336568abe146101f8578063686e9062146102145780636f16af101461023057610121565b806301ffc9a7146101265780630c49e8401461015657806322c12a9b14610172578063248a9ca314610190575b600080fd5b610140600480360381019061013b9190611e87565b6103c0565b60405161014d9190611ecf565b60405180910390f35b610170600480360381019061016b9190611f48565b61043a565b005b61017a61048c565b6040516101879190611f8e565b60405180910390f35b6101aa60048036038101906101a59190611fdf565b610496565b6040516101b7919061201b565b60405180910390f35b6101da60048036038101906101d591906120c7565b6104b5565b005b6101f660048036038101906101f1919061213b565b610cc9565b005b610212600480360381019061020d919061213b565b610ceb565b005b61022e6004803603810190610229919061217b565b610d66565b005b61024a6004803603810190610245919061217b565b6111ab565b6040516102579190612315565b60405180910390f35b6102686113a6565b6040516102759190612396565b60405180910390f35b61029860048036038101906102939190611f48565b6113cc565b6040516102a59190612460565b60405180910390f35b6102c860048036038101906102c3919061213b565b611463565b6040516102d59190611ecf565b60405180910390f35b6102e66114cd565b6040516102f391906124a3565b60405180910390f35b6103046114f3565b604051610311919061201b565b60405180910390f35b610334600480360381019061032f9190611f48565b6114fa565b6040516103419190612460565b60405180910390f35b610352611591565b60405161035f9190611f8e565b60405180910390f35b610370611597565b60405161037d919061201b565b60405180910390f35b6103a0600480360381019061039b919061213b565b6115bb565b005b6103aa6115dd565b6040516103b7919061201b565b60405180910390f35b60007f278871c5000000000000000000000000000000000000000000000000000000007bffffffffffffffffffffffffffffffffffffffffffffffffffffffff1916827bffffffffffffffffffffffffffffffffffffffffffffffffffffffff19161480610433575061043282611601565b5b9050919050565b6000801b6104478161167b565b81600260006101000a81548173ffffffffffffffffffffffffffffffffffffffff021916908373ffffffffffffffffffffffffffffffffffffffff1602179055505050565b6000600354905090565b6000806000838152602001908152602001600020600101549050919050565b7f0af1dac7dea2fd7f7738119cec7df099dfad49aa9d2e7d17ba6b60f63ae7411f6104df8161167b565b600160009054906101000a900473ffffffffffffffffffffffffffffffffffffffff1673ffffffffffffffffffffffffffffffffffffffff16639f8a13d7336040518263ffffffff1660e01b815260040161053a91906124cd565b602060405180830381865afa158015610557573d6000803e3d6000fd5b505050506040513d601f19601f8201168201806040525081019061057b9190612514565b6105ba576040517f08c379a00000000000000000000000000000000000000000000000000000000081526004016105b1906125c4565b60405180910390fd5b4284116105fc576040517f08c379a00000000000000000000000000000000000000000000000000000000081526004016105f390612630565b60405180910390fd5b600160009054906101000a900473ffffffffffffffffffffffffffffffffffffffff1673ffffffffffffffffffffffffffffffffffffffff166391d14854600160009054906101000a900473ffffffffffffffffffffffffffffffffffffffff1673ffffffffffffffffffffffffffffffffffffffff1663ac5cb97d6040518163ffffffff1660e01b8152600401602060405180830381865afa1580156106a7573d6000803e3d6000fd5b505050506040513d601f19601f820116820180604052508101906106cb9190612665565b876040518363ffffffff1660e01b81526004016106e9929190612692565b602060405180830381865afa158015610706573d6000803e3d6000fd5b505050506040513d601f19601f8201168201806040525081019061072a9190612514565b610769576040517f08c379a000000000000000000000000000000000000000000000000000000000815260040161076090612707565b60405180910390fd5b600073ffffffffffffffffffffffffffffffffffffffff168573ffffffffffffffffffffffffffffffffffffffff16036107d8576040517f08c379a00000000000000000000000000000000000000000000000000000000081526004016107cf90612773565b60405180910390fd5b6000838390501161081e576040517f08c379a0000000000000000000000000000000000000000000000000000000008152600401610815906127df565b60405180910390fd5b600360008154809291906108319061282e565b9190505550600060035490506040518061010001604052803373ffffffffffffffffffffffffffffffffffffffff1681526020018773ffffffffffffffffffffffffffffffffffffffff16815260200142815260200186815260200185858080601f016020809104026020016040519081016040528093929190818152602001838380828437600081840152601f19601f820116905080830192505050505050508152602001600015158152602001600073ffffffffffffffffffffffffffffffffffffffff16815260200160008152506004600083815260200190815260200160002060008201518160000160006101000a81548173ffffffffffffffffffffffffffffffffffffffff021916908373ffffffffffffffffffffffffffffffffffffffff16021790555060208201518160010160006101000a81548173ffffffffffffffffffffffffffffffffffffffff021916908373ffffffffffffffffffffffffffffffffffffffff160217905550604082015181600201556060820151816003015560808201518160040190816109cc9190612aa7565b5060a08201518160050160006101000a81548160ff02191690831515021790555060c08201518160050160016101000a81548173ffffffffffffffffffffffffffffffffffffffff021916908373ffffffffffffffffffffffffffffffffffffffff16021790555060e08201518160060155905050600560008773ffffffffffffffffffffffffffffffffffffffff1673ffffffffffffffffffffffffffffffffffffffff168152602001908152602001600020819080600181540180825580915050600190039060005260206000200160009091909190915055600660003373ffffffffffffffffffffffffffffffffffffffff1673ffffffffffffffffffffffffffffffffffffffff168152602001908152602001600020819080600181540180825580915050600190039060005260206000200160009091909190915055600073ffffffffffffffffffffffffffffffffffffffff16600260009054906101000a900473ffffffffffffffffffffffffffffffffffffffff1673ffffffffffffffffffffffffffffffffffffffff1614610c66576000610b6e8261168f565b610b8f3373ffffffffffffffffffffffffffffffffffffffff16601461175d565b610bb08973ffffffffffffffffffffffffffffffffffffffff16601461175d565b604051602001610bc293929190612c99565b6040516020818303038152906040529050600260009054906101000a900473ffffffffffffffffffffffffffffffffffffffff1673ffffffffffffffffffffffffffffffffffffffff1663d3fc98648884846040518463ffffffff1660e01b8152600401610c3293929190612d24565b600060405180830381600087803b158015610c4c57600080fd5b505af1158015610c60573d6000803e3d6000fd5b50505050505b8573ffffffffffffffffffffffffffffffffffffffff163373ffffffffffffffffffffffffffffffffffffffff16827f71d940cbfc82410e0b18e63896ef651239da8c4875128cfa30d1637278d0267060405160405180910390a4505050505050565b610cd282610496565b610cdb8161167b565b610ce583836119a3565b50505050565b610cf3611a94565b73ffffffffffffffffffffffffffffffffffffffff168173ffffffffffffffffffffffffffffffffffffffff1614610d57576040517f6697b23200000000000000000000000000000000000000000000000000000000815260040160405180910390fd5b610d618282611a9c565b505050565b600160009054906101000a900473ffffffffffffffffffffffffffffffffffffffff1673ffffffffffffffffffffffffffffffffffffffff166356f25d27336040518263ffffffff1660e01b8152600401610dc191906124cd565b602060405180830381865afa158015610dde573d6000803e3d6000fd5b505050506040513d601f19601f82011682018060405250810190610e029190612514565b610e41576040517f08c379a0000000000000000000000000000000000000000000000000000000008152600401610e3890612dae565b60405180910390fd5b6000600460008381526020019081526020016000209050600073ffffffffffffffffffffffffffffffffffffffff168160000160009054906101000a900473ffffffffffffffffffffffffffffffffffffffff1673ffffffffffffffffffffffffffffffffffffffff1603610eeb576040517f08c379a0000000000000000000000000000000000000000000000000000000008152600401610ee290612e1a565b60405180910390fd5b600073ffffffffffffffffffffffffffffffffffffffff168160010160009054906101000a900473ffffffffffffffffffffffffffffffffffffffff1673ffffffffffffffffffffffffffffffffffffffff1603610f7e576040517f08c379a0000000000000000000000000000000000000000000000000000000008152600401610f7590612e86565b60405180910390fd5b8060050160009054906101000a900460ff1615610fd0576040517f08c379a0000000000000000000000000000000000000000000000000000000008152600401610fc790612ef2565b60405180910390fd5b42816003015411611016576040517f08c379a000000000000000000000000000000000000000000000000000000000815260040161100d90612f5e565b60405180910390fd5b60018160050160006101000a81548160ff021916908315150217905550338160050160016101000a81548173ffffffffffffffffffffffffffffffffffffffff021916908373ffffffffffffffffffffffffffffffffffffffff160217905550428160060181905550600073ffffffffffffffffffffffffffffffffffffffff16600260009054906101000a900473ffffffffffffffffffffffffffffffffffffffff1673ffffffffffffffffffffffffffffffffffffffff161461116357600260009054906101000a900473ffffffffffffffffffffffffffffffffffffffff1673ffffffffffffffffffffffffffffffffffffffff166342966c68836040518263ffffffff1660e01b81526004016111309190611f8e565b600060405180830381600087803b15801561114a57600080fd5b505af115801561115e573d6000803e3d6000fd5b505050505b3373ffffffffffffffffffffffffffffffffffffffff16827f1fd747d593a3abe3d63a6823e8452fc4a810ea6aedf557a8fd0e6af7db71f4b660405160405180910390a35050565b6111b3611d9c565b60046000838152602001908152602001600020604051806101000160405290816000820160009054906101000a900473ffffffffffffffffffffffffffffffffffffffff1673ffffffffffffffffffffffffffffffffffffffff1673ffffffffffffffffffffffffffffffffffffffff1681526020016001820160009054906101000a900473ffffffffffffffffffffffffffffffffffffffff1673ffffffffffffffffffffffffffffffffffffffff1673ffffffffffffffffffffffffffffffffffffffff16815260200160028201548152602001600382015481526020016004820180546112a2906128d4565b80601f01602080910402602001604051908101604052809291908181526020018280546112ce906128d4565b801561131b5780601f106112f05761010080835404028352916020019161131b565b820191906000526020600020905b8154815290600101906020018083116112fe57829003601f168201915b505050505081526020016005820160009054906101000a900460ff161515151581526020016005820160019054906101000a900473ffffffffffffffffffffffffffffffffffffffff1673ffffffffffffffffffffffffffffffffffffffff1673ffffffffffffffffffffffffffffffffffffffff1681526020016006820154815250509050919050565b600160009054906101000a900473ffffffffffffffffffffffffffffffffffffffff1681565b6060600560008373ffffffffffffffffffffffffffffffffffffffff1673ffffffffffffffffffffffffffffffffffffffff16815260200190815260200160002080548060200260200160405190810160405280929190818152602001828054801561145757602002820191906000526020600020905b815481526020019060010190808311611443575b50505050509050919050565b600080600084815260200190815260200160002060000160008373ffffffffffffffffffffffffffffffffffffffff1673ffffffffffffffffffffffffffffffffffffffff16815260200190815260200160002060009054906101000a900460ff16905092915050565b600260009054906101000a900473ffffffffffffffffffffffffffffffffffffffff1681565b6000801b81565b6060600660008373ffffffffffffffffffffffffffffffffffffffff1673ffffffffffffffffffffffffffffffffffffffff16815260200190815260200160002080548060200260200160405190810160405280929190818152602001828054801561158557602002820191906000526020600020905b815481526020019060010190808311611571575b50505050509050919050565b60035481565b7fc2d498fa6734073871a6dde33c56174c52423804118e0d5b66171fad3494de6881565b6115c482610496565b6115cd8161167b565b6115d78383611a9c565b50505050565b7f0af1dac7dea2fd7f7738119cec7df099dfad49aa9d2e7d17ba6b60f63ae7411f81565b60007f7965db0b000000000000000000000000000000000000000000000000000000007bffffffffffffffffffffffffffffffffffffffffffffffffffffffff1916827bffffffffffffffffffffffffffffffffffffffffffffffffffffffff19161480611674575061167382611b8e565b5b9050919050565b61168c81611687611a94565b611bf8565b50565b60606000600161169e84611c49565b01905060008167ffffffffffffffff8111156116bd576116bc612876565b5b6040519080825280601f01601f1916602001820160405280156116ef5781602001600182028036833780820191505090505b509050600082602001820190505b600115611752578080600190039150507f3031323334353637383961626364656600000000000000000000000000000000600a86061a8153600a858161174657611745612f7e565b5b049450600085036116fd575b819350505050919050565b60606000839050600060028460026117759190612fad565b61177f9190612fef565b67ffffffffffffffff81111561179857611797612876565b5b6040519080825280601f01601f1916602001820160405280156117ca5781602001600182028036833780820191505090505b5090507f30000000000000000000000000000000000000000000000000000000000000008160008151811061180257611801613023565b5b60200101907effffffffffffffffffffffffffffffffffffffffffffffffffffffffffffff1916908160001a9053507f78000000000000000000000000000000000000000000000000000000000000008160018151811061186657611865613023565b5b60200101907effffffffffffffffffffffffffffffffffffffffffffffffffffffffffffff1916908160001a905350600060018560026118a69190612fad565b6118b09190612fef565b90505b6001811115611950577f3031323334353637383961626364656600000000000000000000000000000000600f8416601081106118f2576118f1613023565b5b1a60f81b82828151811061190957611908613023565b5b60200101907effffffffffffffffffffffffffffffffffffffffffffffffffffffffffffff1916908160001a905350600483901c92508061194990613052565b90506118b3565b50600082146119985784846040517fe22e27eb00000000000000000000000000000000000000000000000000000000815260040161198f92919061307b565b60405180910390fd5b809250505092915050565b60006119af8383611463565b611a8957600160008085815260200190815260200160002060000160008473ffffffffffffffffffffffffffffffffffffffff1673ffffffffffffffffffffffffffffffffffffffff16815260200190815260200160002060006101000a81548160ff021916908315150217905550611a26611a94565b73ffffffffffffffffffffffffffffffffffffffff168273ffffffffffffffffffffffffffffffffffffffff16847f2f8788117e7eff1d82e926ec794901d17c78024a50270940304540a733656f0d60405160405180910390a460019050611a8e565b600090505b92915050565b600033905090565b6000611aa88383611463565b15611b8357600080600085815260200190815260200160002060000160008473ffffffffffffffffffffffffffffffffffffffff1673ffffffffffffffffffffffffffffffffffffffff16815260200190815260200160002060006101000a81548160ff021916908315150217905550611b20611a94565b73ffffffffffffffffffffffffffffffffffffffff168273ffffffffffffffffffffffffffffffffffffffff16847ff6391f5c32d9c69d2a47ea670b442974b53935d1edc7fd64eb21e047a839171b60405160405180910390a460019050611b88565b600090505b92915050565b60007f01ffc9a7000000000000000000000000000000000000000000000000000000007bffffffffffffffffffffffffffffffffffffffffffffffffffffffff1916827bffffffffffffffffffffffffffffffffffffffffffffffffffffffff1916149050919050565b611c028282611463565b611c455780826040517fe2517d3f000000000000000000000000000000000000000000000000000000008152600401611c3c9291906130a4565b60405180910390fd5b5050565b600080600090507a184f03e93ff9f4daa797ed6e38ed64bf6a1f0100000000000000008310611ca7577a184f03e93ff9f4daa797ed6e38ed64bf6a1f0100000000000000008381611c9d57611c9c612f7e565b5b0492506040810190505b6d04ee2d6d415b85acef81000000008310611ce4576d04ee2d6d415b85acef81000000008381611cda57611cd9612f7e565b5b0492506020810190505b662386f26fc100008310611d1357662386f26fc100008381611d0957611d08612f7e565b5b0492506010810190505b6305f5e1008310611d3c576305f5e1008381611d3257611d31612f7e565b5b0492506008810190505b6127108310611d61576127108381611d5757611d56612f7e565b5b0492506004810190505b60648310611d845760648381611d7a57611d79612f7e565b5b0492506002810190505b600a8310611d93576001810190505b80915050919050565b604051806101000160405280600073ffffffffffffffffffffffffffffffffffffffff168152602001600073ffffffffffffffffffffffffffffffffffffffff168152602001600081526020016000815260200160608152602001600015158152602001600073ffffffffffffffffffffffffffffffffffffffff168152602001600081525090565b600080fd5b600080fd5b60007fffffffff0000000000000000000000000000000000000000000000000000000082169050919050565b611e6481611e2f565b8114611e6f57600080fd5b50565b600081359050611e8181611e5b565b92915050565b600060208284031215611e9d57611e9c611e25565b5b6000611eab84828501611e72565b91505092915050565b60008115159050919050565b611ec981611eb4565b82525050565b6000602082019050611ee46000830184611ec0565b92915050565b600073ffffffffffffffffffffffffffffffffffffffff82169050919050565b6000611f1582611eea565b9050919050565b611f2581611f0a565b8114611f3057600080fd5b50565b600081359050611f4281611f1c565b92915050565b600060208284031215611f5e57611f5d611e25565b5b6000611f6c84828501611f33565b91505092915050565b6000819050919050565b611f8881611f75565b82525050565b6000602082019050611fa36000830184611f7f565b92915050565b6000819050919050565b611fbc81611fa9565b8114611fc757600080fd5b50565b600081359050611fd981611fb3565b92915050565b600060208284031215611ff557611ff4611e25565b5b600061200384828501611fca565b91505092915050565b61201581611fa9565b82525050565b6000602082019050612030600083018461200c565b92915050565b61203f81611f75565b811461204a57600080fd5b50565b60008135905061205c81612036565b92915050565b600080fd5b600080fd5b600080fd5b60008083601f84011261208757612086612062565b5b8235905067ffffffffffffffff8111156120a4576120a3612067565b5b6020830191508360018202830111156120c0576120bf61206c565b5b9250929050565b600080600080606085870312156120e1576120e0611e25565b5b60006120ef87828801611f33565b94505060206121008782880161204d565b935050604085013567ffffffffffffffff81111561212157612120611e2a565b5b61212d87828801612071565b925092505092959194509250565b6000806040838503121561215257612151611e25565b5b600061216085828601611fca565b925050602061217185828601611f33565b9150509250929050565b60006020828403121561219157612190611e25565b5b600061219f8482850161204d565b91505092915050565b6121b181611f0a565b82525050565b6121c081611f75565b82525050565b600081519050919050565b600082825260208201905092915050565b60005b838110156122005780820151818401526020810190506121e5565b60008484015250505050565b6000601f19601f8301169050919050565b6000612228826121c6565b61223281856121d1565b93506122428185602086016121e2565b61224b8161220c565b840191505092915050565b61225f81611eb4565b82525050565b60006101008301600083015161227e60008601826121a8565b50602083015161229160208601826121a8565b5060408301516122a460408601826121b7565b5060608301516122b760608601826121b7565b50608083015184820360808601526122cf828261221d565b91505060a08301516122e460a0860182612256565b5060c08301516122f760c08601826121a8565b5060e083015161230a60e08601826121b7565b508091505092915050565b6000602082019050818103600083015261232f8184612265565b905092915050565b6000819050919050565b600061235c61235761235284611eea565b612337565b611eea565b9050919050565b600061236e82612341565b9050919050565b600061238082612363565b9050919050565b61239081612375565b82525050565b60006020820190506123ab6000830184612387565b92915050565b600081519050919050565b600082825260208201905092915050565b6000819050602082019050919050565b60006123e983836121b7565b60208301905092915050565b6000602082019050919050565b600061240d826123b1565b61241781856123bc565b9350612422836123cd565b8060005b8381101561245357815161243a88826123dd565b9750612445836123f5565b925050600181019050612426565b5085935050505092915050565b6000602082019050818103600083015261247a8184612402565b905092915050565b600061248d82612363565b9050919050565b61249d81612482565b82525050565b60006020820190506124b86000830184612494565b92915050565b6124c781611f0a565b82525050565b60006020820190506124e260008301846124be565b92915050565b6124f181611eb4565b81146124fc57600080fd5b50565b60008151905061250e816124e8565b92915050565b60006020828403121561252a57612529611e25565b5b6000612538848285016124ff565b91505092915050565b600082825260208201905092915050565b7f4f6e6c792061637469766520646f63746f72732063616e20637265617465207060008201527f7265736372697074696f6e000000000000000000000000000000000000000000602082015250565b60006125ae602b83612541565b91506125b982612552565b604082019050919050565b600060208201905081810360008301526125dd816125a1565b9050919050565b7f45787069727920646174652073686f756c6420626520696e2066757475726500600082015250565b600061261a601f83612541565b9150612625826125e4565b602082019050919050565b600060208201905081810360008301526126498161260d565b9050919050565b60008151905061265f81611fb3565b92915050565b60006020828403121561267b5761267a611e25565b5b600061268984828501612650565b91505092915050565b60006040820190506126a7600083018561200c565b6126b460208301846124be565b9392505050565b7f50617469656e74206e6f74207265676973746572656400000000000000000000600082015250565b60006126f1601683612541565b91506126fc826126bb565b602082019050919050565b60006020820190508181036000830152612720816126e4565b9050919050565b7f496e76616c69642050617469656e742041646472657373000000000000000000600082015250565b600061275d601783612541565b915061276882612727565b602082019050919050565b6000602082019050818103600083015261278c81612750565b9050919050565b7f496e76616c696420507265736372697074696f6e204861736800000000000000600082015250565b60006127c9601983612541565b91506127d482612793565b602082019050919050565b600060208201905081810360008301526127f8816127bc565b9050919050565b7f4e487b7100000000000000000000000000000000000000000000000000000000600052601160045260246000fd5b600061283982611f75565b91507fffffffffffffffffffffffffffffffffffffffffffffffffffffffffffffffff820361286b5761286a6127ff565b5b600182019050919050565b7f4e487b7100000000000000000000000000000000000000000000000000000000600052604160045260246000fd5b7f4e487b7100000000000000000000000000000000000000000000000000000000600052602260045260246000fd5b600060028204905060018216806128ec57607f821691505b6020821081036128ff576128fe6128a5565b5b50919050565b60008190508160005260206000209050919050565b60006020601f8301049050919050565b600082821b905092915050565b6000600883026129677fffffffffffffffffffffffffffffffffffffffffffffffffffffffffffffffff8261292a565b612971868361292a565b95508019841693508086168417925050509392505050565b60006129a461299f61299a84611f75565b612337565b611f75565b9050919050565b6000819050919050565b6129be83612989565b6129d26129ca826129ab565b848454612937565b825550505050565b600090565b6129e76129da565b6129f28184846129b5565b505050565b5b81811015612a1657612a0b6000826129df565b6001810190506129f8565b5050565b601f821115612a5b57612a2c81612905565b612a358461291a565b81016020851015612a44578190505b612a58612a508561291a565b8301826129f7565b50505b505050565b600082821c905092915050565b6000612a7e60001984600802612a60565b1980831691505092915050565b6000612a978383612a6d565b9150826002028217905092915050565b612ab0826121c6565b67ffffffffffffffff811115612ac957612ac8612876565b5b612ad382546128d4565b612ade828285612a1a565b600060209050601f831160018114612b115760008415612aff578287015190505b612b098582612a8b565b865550612b71565b601f198416612b1f86612905565b60005b82811015612b4757848901518255600182019150602085019450602081019050612b22565b86831015612b645784890151612b60601f891682612a6d565b8355505b6001600288020188555050505b505050505050565b600081905092915050565b7f707265736372697074696f6e3a00000000000000000000000000000000000000600082015250565b6000612bba600d83612b79565b9150612bc582612b84565b600d82019050919050565b6000612bdb826121c6565b612be58185612b79565b9350612bf58185602086016121e2565b80840191505092915050565b7f2c646f63746f723a000000000000000000000000000000000000000000000000600082015250565b6000612c37600883612b79565b9150612c4282612c01565b600882019050919050565b7f2c70617469656e743a0000000000000000000000000000000000000000000000600082015250565b6000612c83600983612b79565b9150612c8e82612c4d565b600982019050919050565b6000612ca482612bad565b9150612cb08286612bd0565b9150612cbb82612c2a565b9150612cc78285612bd0565b9150612cd282612c76565b9150612cde8284612bd0565b9150819050949350505050565b6000612cf6826121c6565b612d008185612541565b9350612d108185602086016121e2565b612d198161220c565b840191505092915050565b6000606082019050612d3960008301866124be565b612d466020830185611f7f565b8181036040830152612d588184612ceb565b9050949350505050565b7f4e6f74206120766572696669656420506861726d616369737400000000000000600082015250565b6000612d98601983612541565b9150612da382612d62565b602082019050919050565b60006020820190508181036000830152612dc781612d8b565b9050919050565b7f507265736372697074696f6e20646f6573206e6f742065786973740000000000600082015250565b6000612e04601b83612541565b9150612e0f82612dce565b602082019050919050565b60006020820190508181036000830152612e3381612df7565b9050919050565b7f507265736372697074696f6e20646f65736e2774206578697374000000000000600082015250565b6000612e70601a83612541565b9150612e7b82612e3a565b602082019050919050565b60006020820190508181036000830152612e9f81612e63565b9050919050565b7f507265736372697074696f6e2069732066756c66696c6c656400000000000000600082015250565b6000612edc601983612541565b9150612ee782612ea6565b602082019050919050565b60006020820190508181036000830152612f0b81612ecf565b9050919050565b7f507265736372697074696f6e2065787069726564000000000000000000000000600082015250565b6000612f48601483612541565b9150612f5382612f12565b602082019050919050565b60006020820190508181036000830152612f7781612f3b565b9050919050565b7f4e487b7100000000000000000000000000000000000000000000000000000000600052601260045260246000fd5b6000612fb882611f75565b9150612fc383611f75565b9250828202612fd181611f75565b91508282048414831517612fe857612fe76127ff565b5b5092915050565b6000612ffa82611f75565b915061300583611f75565b925082820190508082111561301d5761301c6127ff565b5b92915050565b7f4e487b7100000000000000000000000000000000000000000000000000000000600052603260045260246000fd5b600061305d82611f75565b9150600082036130705761306f6127ff565b5b600182039050919050565b60006040820190506130906000830185611f7f565b61309d6020830184611f7f565b9392505050565b60006040820190506130b960008301856124be565b6130c6602083018461200c565b939250505056fea264697066735822122048584c55fc921f87bc85d0fd9751d3fea8fbad5663ed6c4308dac8fe80e0971264736f6c634300081c0033",
  "devdoc": {
    "errors": {
      "AccessControlBadConfirmation()": [
        {
          "details": "The caller of a function is not the expected one. NOTE: Don't confuse with {AccessControlUnauthorizedAccount}."
        }
      ],
      "AccessControlUnauthorizedAccount(address,bytes32)": [
        {
          "details": "The `account` is missing a role."
        }
      ],
      "StringsInsufficientHexLength(uint256,uint256)": [
        {
          "details": "The `value` string doesn't fit in the specified `length`."
        }
      ]
    },
    "events": {
      "RoleAdminChanged(bytes32,bytes32,bytes32)": {
        "details": "Emitted when `newAdminRole` is set as ``role``'s admin role, replacing `previousAdminRole` `DEFAULT_ADMIN_ROLE` is the starting admin for all roles, despite {RoleAdminChanged} not being emitted to signal this."
      },
      "RoleGranted(bytes32,address,address)": {
        "details": "Emitted when `account` is granted `role`. `sender` is the account that originated the contract call. This account bears the admin role (for the granted role). Expected in cases where the role was granted using the internal {AccessControl-_grantRole}."
      },
      "RoleRevoked(bytes32,address,address)": {
        "details": "Emitted when `account` is revoked `role`. `sender` is the account that originated the contract call:   - if using `revokeRole`, it is the admin role bearer   - if using `renounceRole`, it is the role bearer (i.e. `account`)"
      }
    },
    "kind": "dev",
    "methods": {
      "getRoleAdmin(bytes32)": {
        "details": "Returns the admin role that controls `role`. See {grantRole} and {revokeRole}. To change a role's admin, use {_setRoleAdmin}."
      },
      "grantRole(bytes32,address)": {
        "details": "Grants `role` to `account`. If `account` had not been already granted `role`, emits a {RoleGranted} event. Requirements: - the caller must have ``role``'s admin role. May emit a {RoleGranted} event."
      },
      "hasRole(bytes32,address)": {
        "details": "Returns `true` if `account` has been granted `role`."
      },
      "renounceRole(bytes32,address)": {
        "details": "Revokes `role` from the calling account. Roles are often managed via {grantRole} and {revokeRole}: this function's purpose is to provide a mechanism for accounts to lose their privileges if they are compromised (such as when a trusted device is misplaced). If the calling account had been revoked `role`, emits a {RoleRevoked} event. Requirements: - the caller must be `callerConfirmation`. May emit a {RoleRevoked} event."
      },
      "revokeRole(bytes32,address)": {
        "details": "Revokes `role` from `account`. If `account` had been granted `role`, emits a {RoleRevoked} event. Requirements: - the caller must have ``role``'s admin role. May emit a {RoleRevoked} event."
      },
      "supportsInterface(bytes4)": {
        "details": "See {IERC165-supportsInterface}."
      }
    },
    "version": 1
  },
  "userdoc": {
    "kind": "user",
    "methods": {},
    "version": 1
  },
  "storageLayout": {
    "storage": [
      {
        "astId": 26,
        "contract": "contracts/prescription/PrescriptionRegistry.sol:PrescriptionRegistry",
        "label": "_roles",
        "offset": 0,
        "slot": "0",
        "type": "t_mapping(t_bytes32,t_struct(RoleData)21_storage)"
      },
      {
        "astId": 8261,
        "contract": "contracts/prescription/PrescriptionRegistry.sol:PrescriptionRegistry",
        "label": "medicalAccess",
        "offset": 0,
        "slot": "1",
        "type": "t_contract(IMedicalAccess)8127"
      },
      {
        "astId": 8264,
        "contract": "contracts/prescription/PrescriptionRegistry.sol:PrescriptionRegistry",
        "label": "prescriptionToken",
        "offset": 0,
        "slot": "2",
        "type": "t_contract(IPrescriptionToken)8246"
      },
      {
        "astId": 8266,
        "contract": "contracts/prescription/PrescriptionRegistry.sol:PrescriptionRegistry",
        "label": "prescriptionCount",
        "offset": 0,
        "slot": "3",
        "type": "t_uint256"
      },
      {
        "astId": 8271,
        "contract": "contracts/prescription/PrescriptionRegistry.sol:PrescriptionRegistry",
        "label": "_prescriptions",
        "offset": 0,
        "slot": "4",
        "type": "t_mapping(t_uint256,t_struct(Prescription)8146_storage)"
      },
      {
        "astId": 8276,
        "contract": "contracts/prescription/PrescriptionRegistry.sol:PrescriptionRegistry",
        "label": "_patientPrescriptions",
        "offset": 0,
        "slot": "5",
        "type": "t_mapping(t_address,t_array(t_uint256)dyn_storage)"
      },
      {
        "astId": 8281,
        "contract": "contracts/prescription/PrescriptionRegistry.sol:PrescriptionRegistry",
        "label": "_doctorPrescriptions",
        "offset": 0,
        "slot": "6",
        "type": "t_mapping(t_address,t_array(t_uint256)dyn_storage)"
      }
    ],
    "types": {
      "t_address": {
        "encoding": "inplace",
        "label": "address",
        "numberOfBytes": "20"
      },
      "t_array(t_uint256)dyn_storage": {
        "base": "t_uint256",
        "encoding": "dynamic_array",
        "label": "uint256[]",
        "numberOfBytes": "32"
      },
      "t_bool": {
        "encoding": "inplace",
        "label": "bool",
        "numberOfBytes": "1"
      },
      "t_bytes32": {
        "encoding": "inplace",
        "label": "bytes32",
        "numberOfBytes": "32"
      },
      "t_contract(IMedicalAccess)8127": {
        "encoding": "inplace",
        "label": "contract IMedicalAccess",
        "numberOfBytes": "20"
      },
      "t_contract(IPrescriptionToken)8246": {
        "encoding": "inplace",
        "label": "contract IPrescriptionToken",
        "numberOfBytes": "20"
      },
      "t_mapping(t_address,t_array(t_uint256)dyn_storage)": {
        "encoding": "mapping",
        "key": "t_address",
        "label": "mapping(address => uint256[])",
        "numberOfBytes": "32",
        "value": "t_array(t_uint256)dyn_storage"
      },
      "t_mapping(t_address,t_bool)": {
        "encoding": "mapping",
        "key": "t_address",
        "label": "mapping(address => bool)",
        "numberOfBytes": "32",
        "value": "t_bool"
      },
      "t_mapping(t_bytes32,t_struct(RoleData)21_storage)": {
        "encoding": "mapping",
        "key": "t_bytes32",
        "label": "mapping(bytes32 => struct AccessControl.RoleData)",
        "numberOfBytes": "32",
        "value": "t_struct(RoleData)21_storage"
      },
      "t_mapping(t_uint256,t_struct(Prescription)8146_storage)": {
        "encoding": "mapping",
        "key": "t_uint256",
        "label": "mapping(uint256 => struct IPrescriptionRegistry.Prescription)",
        "numberOfBytes": "32",
        "value": "t_struct(Prescription)8146_storage"
      },
      "t_string_storage": {
        "encoding": "bytes",
        "label": "string",
        "numberOfBytes": "32"
      },
      "t_struct(Prescription)8146_storage": {
        "encoding": "inplace",
        "label": "struct IPrescriptionRegistry.Prescription",
        "members": [
          {
            "astId": 8131,
            "contract": "contracts/prescription/PrescriptionRegistry.sol:PrescriptionRegistry",
            "label": "doctor",
            "offset": 0,
            "slot": "0",
            "type": "t_address"
          },
          {
            "astId": 8133,
            "contract": "contracts/prescription/PrescriptionRegistry.sol:PrescriptionRegistry",
            "label": "patient",
            "offset": 0,
            "slot": "1",
            "type": "t_address"
          },
          {
            "astId": 8135,
            "contract": "contracts/prescription/PrescriptionRegistry.sol:PrescriptionRegistry",
            "label": "issueDate",
            "offset": 0,
            "slot": "2",
            "type": "t_uint256"
          },
          {
            "astId": 8137,
            "contract": "contracts/prescription/PrescriptionRegistry.sol:PrescriptionRegistry",
            "label": "expiryDate",
            "offset": 0,
            "slot": "3",
            "type": "t_uint256"
          },
          {
            "astId": 8139,
            "contract": "contracts/prescription/PrescriptionRegistry.sol:PrescriptionRegistry",
            "label": "prescriptionHash",
            "offset": 0,
            "slot": "4",
            "type": "t_string_storage"
          },
          {
            "astId": 8141,
            "contract": "contracts/prescription/PrescriptionRegistry.sol:PrescriptionRegistry",
            "label": "isFulfilled",
            "offset": 0,
            "slot": "5",
            "type": "t_bool"
          },
          {
            "astId": 8143,
            "contract": "contracts/prescription/PrescriptionRegistry.sol:PrescriptionRegistry",
            "label": "fulfilledBy",
            "offset": 1,
            "slot": "5",
            "type": "t_address"
          },
          {
            "astId": 8145,
            "contract": "contracts/prescription/PrescriptionRegistry.sol:PrescriptionRegistry",
            "label": "fulfillmentDate",
            "offset": 0,
            "slot": "6",
            "type": "t_uint256"
          }
        ],
        "numberOfBytes": "224"
      },
      "t_struct(RoleData)21_storage": {
        "encoding": "inplace",
        "label": "struct AccessControl.RoleData",
        "members": [
          {
            "astId": 18,
            "contract": "contracts/prescription/PrescriptionRegistry.sol:PrescriptionRegistry",
            "label": "hasRole",
            "offset": 0,
            "slot": "0",
            "type": "t_mapping(t_address,t_bool)"
          },
          {
            "astId": 20,
            "contract": "contracts/prescription/PrescriptionRegistry.sol:PrescriptionRegistry",
            "label": "adminRole",
            "offset": 0,
            "slot": "1",
            "type": "t_bytes32"
          }
        ],
        "numberOfBytes": "64"
      },
      "t_uint256": {
        "encoding": "inplace",
        "label": "uint256",
        "numberOfBytes": "32"
      }
    }
  }
}